:100000000C9472060C948F060C948F060C94212489
:100010000C948F060C948F060C948F060C948F060C
:100020000C948F060C948F060C94CB200C94BF215B
:100030000C948F060C948F060C948F060C948F06EC
:100040000C948F060C94B7190C948F060C948F06A1
:100050000C948F060C94A7200C948F060C948F069A
:100060000C948F060C948F060C948F060C948F06BC
:100070000C948F060C948F060C948F060C948F06AC
:100080000C948F060C948F060C948F060C948F069C
:100090000C948F060C948F060C948F060C948F068C
:1000A0000C948F060C948F060C948F0600AF00AE54
:1000B00005010980A101850319012AB70015012650
:1000C000B700950175108100C0050C0901A10185DB
:1000D0000419012AA002150126A0029501751081BC
:1000E00000C005010906A1018506050719E029E7F9
:1000F000150025019508750181020507190029EFF2
:100100001500250195F075018102050819012905E1
:10011000950575019102950175039101C0050109CD
:1001200006A101050719E029E715002501950875C5
:100130000181029501750881010507190029FF1544
:100140000026FF009506750881000508190129059C
:100150001500250195057501910295017503910121
:10016000C009023B00020100A0FA090400000103DB
:10017000010100092111010001224400070581034A
:100180000800010904010001030000000921110118
:100190000001226D00070582032000011201000208
:1001A00000000008534601000100010200010C0399
:1001B00043006F0072006E006500000010036600CF
:1001C0006F006F007300740061006E000000040394
:1001D00009040000000000003E5B4F5B3E003E6BE8
:1001E0004F6B3E001C3E7C3E1C00183C7E3C1800C1
:1001F0001C577D571C001C5E7F5E1C0000183C18BD
:100200000000FFE7C3E7FF00001824180000FFE725
:10021000DBE7FF0030483A060E0026297929260040
:10022000407F05050700407F05253F005A3CE73C1D
:100230005A007F3E1C1C0800081C1C3E7F00142234
:100240007F2214005F5F005F5F0006097F017F006F
:10025000006689956A0060606060600094A2FFA2F9
:10026000940008047E04080010207E201000080876
:100270002A1C0800081C2A0808001E101010100074
:100280000C1E0C1E0C0030383E383000060E3E0EA0
:10029000060000000000000000005F0000000007F2
:1002A00000070000147F147F1400242A7F2A120004
:1002B00023130864620036495620500000080703E3
:1002C0000000001C224100000041221C00002A1CEA
:1002D0007F1C2A0008083E080800008070300000DB
:1002E00008080808080000006060000020100804EA
:1002F00002003E5149453E0000427F4000007249E5
:10030000494946002141494D33001814127F10001D
:100310002745454539003C4A4949310041211109E9
:100320000700364949493600464949291E00000060
:1003300014000000004034000000000814224100B6
:100340001414141414000041221408000201590965
:1003500006003E415D594E007C1211127C007F491F
:10036000494936003E41414122007F4141413E0022
:100370007F49494941007F09090901003E41415136
:1003800073007F0808087F0000417F410000204083
:10039000413F01007F08142241007F40404040005F
:1003A0007F021C027F007F0408107F003E41414114
:1003B0003E007F09090906003E4151215E007F0988
:1003C0001929460026494949320003017F010300EB
:1003D0003F4040403F001F2040201F003F4038402A
:1003E0003F00631408146300030478040300615998
:1003F000494D4300007F41414100020408102000A4
:10040000004141417F00040201020400404040409D
:1004100040000003070800002054547840007F2863
:1004200044443800384444442800384444287F0079
:1004300038545454180000087E0902001824241C63
:1004400078007F080404780000447D4000002040CC
:10045000403D00007F102844000000417F40000024
:100460007C04780478007C08040478003844444410
:1004700038007C1824241800182424187C007C08D8
:100480000404080048545454240004043F44240045
:100490003C4040207C001C2040201C003C40304060
:1004A0003C004428102844004C9090907C00446408
:1004B000544C440000083641000000007700000062
:1004C0000041360800000201020402003C262326F7
:1004D0003C000000000000000000000000000000E0
:1004E0000000C0E0F0F8F81800C0F0FCFEFFFFFFCD
:1004F000FFFFFFFF7E00000000000000000080C042
:10050000E0E0E0E0E0E0E0E0C0800000000080C06B
:10051000E0E0E0E0E0E0E0E0C080000000E0E0C01B
:10052000C0E0E0E0E00000E0E0C0C0E0E0E0E0E0EB
:10053000C0800000000080C0E0E0E0E0E0E0E0E03B
:10054000C08000000000000000000000000000006B
:10055000E0F0F0F0E0ECEEF7F37020007C7C7C7EC5
:10056000007E7E7E7F7F7F000080C0E07E5B4F5BF1
:10057000FEC00000C000DCD7DEDEDED7DC00C0003D
:10058000000000000000000000000000000000006B
:100590000000000000000000000000F8FCFEFFE08A
:1005A00000FFFFFFFFFFFF80FFFFFFFFFFFFFFFFD9
:1005B000FF1F0701000000000000000000FFFFFF18
:1005C0008100000000000081C3C3C30000FFFFFFE3
:1005D0008100000000000081FFFFFF0000FFFFFF1F
:1005E00001000000000000FFFFFF0100000000010B
:1005F000FFFFFF0000FFFFFF9D1C1C1C1C1C1C9D1F
:10060000DFDFDF000000000000000000000000004D
:100610000F1F3F7F7F7F7F7F3F1E0C001F1F1F3FED
:10062000003F3F3F7F7F7F00307B7F78302020304E
:10063000787F3B0003000F7F0F0F0F7F0F00030039
:1006400000000000000000000000000000000000AA
:100650000000000000000000000000030F1F3F3FEB
:100660003F3F1F1F3F3F7F7F7F3F3F1F3F7F7F7F7A
:100670007F7C7878381C0F00000000000000010328
:10068000070707070707070703010000000001032A
:100690000707070707070707030100000007070709
:1006A0000000000000000007070700000000000035
:1006B00007070700000001030707070707070707E9
:1006C0000301000000000000000000000000000026
:1006D000000000000000000000000000000000001A
:1006E000000000000000000000000000000000000A
:1006F00000000000000000000000000000000000FA
:1007000000000000000000000000000000000000E9
:1007100000000000000000000000000000010204D2
:10072000060A0F17202C3A4A5D71879DB3C7DAE994
:10073000F5FCFFFCF5E9DAC7B39D87715D4A3A2CF9
:1007400020170F0A0604020100000000000000004C
:10075000000000DA0281FFD9F1DB20A4A62EAF0051
:10076000A0C0D30000A1C8D30000AED580A81F4010
:100770008D14200000000000E0100808C8B0808040
:10078000808080808040403C14040890180408B0A9
:1007900040800000000000000102C4A4FC00000032
:1007A000008000000000000000000080C858282AD7
:1007B000100F000000000000000E090404040402F1
:1007C000030201010202040810262B320405060070
:1007D00000000000000000E01010F0000000000029
:1007E0000000008080807828081020300810204009
:1007F000800000000000000304081011F90101014D
:1008000001010100000000000000000110B050557F
:10081000201F000000000000000000000001020C8A
:1008200010202837021E2020180C141E0100000082
:100830000000000000000000008040201090909018
:10084000A0C08080807008140890101008A47880E0
:100850000000000000000000000708FC010000008C
:1008600000800000010000000000000818EA100FDE
:100870000000000000000000000000031C20203CDD
:100880000F111F03061820203C0C121E010000004F
:1008900000000000000000000000804020202040F8
:1008A0008000000000E01028102020201048F000F8
:1008B0000000000000000000001F20F802010101FC
:1008C00001010101030000000001001030D5201FCC
:1008D00000000000000000000000003F20300C027B
:1008E0000509121E021C140810202C320100000001
:1008F00000000000000000000000000000000000F8
:100900000000E01C02050224040402A91EE000000D
:1009100000000000000000000000E010086810085F
:100920000403000000000000000206827C030000B7
:10093000000000000000000000000102040C101084
:10094000202020283E1C20203E0F111F0000000008
:100950000000000000000000000000000000000097
:100960000000E01C02050224040402A91EE00000AD
:10097000000000000000000000E09008186010086F
:10098000040300000000000000020E827C0300004F
:10099000000000000000000000000102040C101024
:1009A000202020283E1C20203E0F111F00000000A8
:1009B0000000000000000000000080404040408037
:1009C000000000000000C040408000804080000027
:1009D00000000000000000001E21F00402020202DC
:1009E0000302020404040301000009018080AB0437
:1009F000F8000000000000000000031C20203C0F55
:100A0000111F0206182020380810180404020201E1
:100A10000000000000000000000080404040800016
:100A2000000000000000E0A0204080C020408000C6
:100A300000000000000000003E41F004020202033A
:100A4000020202040402010000000400404055823A
:100A50007C0000000000000000003F20300C020578
:100A600009121E0418100810202834060201010083
:100A7000000000004350534C4B00556E6465660AFD
:100A80000041646A73740A004C6F7765720A005201
:100A9000616973650A00426173650A00556E646599
:100AA0006600434C4D414B00000000000000000078
:100AB000000000BCBCBEBE00BEBEBFBFBFBF0000CA
:100AC0000000000000000000000000000000000026
:100AD00000000007070F0F000F0F1F1F1F1F000050
:100AE00000000000000000008081828384858687EA
:100AF00088898A8B8C8D8E8F9091929394A0A1A2DD
:100B0000A3A4A5A6A7A8A9AAABACADAEAFB0B1B23D
:100B1000B3B4C0C1C2C3C4C5C6C7C8C9CACBCCCD93
:100B2000CECFD0D1D2D3D400290014001A000900AE
:100B3000130005002B0004001600150017000A0022
:100B4000E1001D000600070019001B000000000066
:100B50000000E000417E2C002F0033001C00180034
:100B60000F000D002A0012000C00080011001000F8
:100B7000E5003800370036000B000E0000000000D2
:100B80000000E600427E28001E021F022002210211
:100B900022022302141435002D142D002D022702E9
:100BA000E1007A007C004C007D007B00000000002A
:100BB0000000E00001002C0026022502550026005E
:100BC00025002400310234022402230022002100E7
:100BD00031003400570020001F001E0000000000FC
:100BE00000006400010027003A003B003C003D008B
:100BF0003E003F00400041004200430044004500E9
:100C0000E1000000000074006500E3000000000047
:100C10000000E00001004700000000004B0052000F
:100C20004A004900000000004F00510050004C00F5
:100C3000000000004E0000004D007E00000000009B
:100C40000000E6000100390000000000000046003E
:100C50004700480000000000000000000000000005
:100C60000000000000000000000000000000000084
:100C70000000000000000000A900AA00A800000079
:100C80000000000021782278207800000000000099
:100C90000000000000000000000000000000000054
:100CA000000000000000000020202020616263643A
:100CB00065666768696A6B6C6D6E6F70717273746C
:100CC00075767778797A313233343536373839304A
:100CD000524542545F2D3D5B5D5C233B27602C2ECB
:100CE0002F20202011241FBECFEFDAE0DEBFCDBFC2
:100CF00012E0A0E0B1E0EAE1FDE402C005900D924F
:100D0000AE32B107D9F725E0AEE2B2E001C01D92E4
:100D1000AB3CB207E1F70E949E1B0C9481260C9419
:100D20000000982F92959F7024E0911102C020E05E
:100D3000982F892F86958695811511F02E5F982F13
:100D4000892F8695820F0895809387050895809353
:100D50008805089521E030E001C0220F8A95EAF766
:100D600080918805822B0E94A706089521E030E03B
:100D7000A90102C0440F551F8A95E2F7CA01809568
:100D80009091880589230E94A7060895292F9830FD
:100D900090F5863080F590E036E0239F800D911D20
:100DA0001124282F277041E001C0440F2A95EAF74B
:100DB00023E0969587952A95E1F7FC01EE0FFF1F3A
:100DC000E80FF91FE75CFA4F20E030E070E0519146
:100DD000DF01CB01022E02C0969587950A94E2F7B7
:100DE000817081958527842385278E932F5F3F4FC0
:100DF0002330310561F70895292F983078F5863032
:100E000068F590E036E0239F800D911D1124682F36
:100E1000677023E0969587952A95E1F7FC01EE0F20
:100E2000FF1FE80FF91FE75CFA4F40E050E080E059
:100E3000219130E0062E02C0369527950A94E2F7FC
:100E400021703327042E01C0220F0A94EAF7822B67
:100E50004F5F5F4F4330510559F7089580E0089583
:100E600080918B0590918A05981301C008958F5F3A
:100E70008770FACF7830B8F46630A8F48430B0F4D4
:100E8000E62FF0E096E0799FE00DF11D112490E34C
:100E9000899FE00DF11D1124EE0FFF1FE85DF44F57
:100EA00085919491089580E090E0089581E0FCCFD1
:100EB0009C01803E910509F448C0D8F48133910526
:100EC00009F47DC048F48932910509F46DC08A9710
:100ED00009F47CC0C90108958933910551F1823824
:100EE000910539F1C597B1F780914B0585FFF2CF98
:100EF00029C0843E910509F447C048F4823E91051B
:100F000099F1833E9105A9F121EE30E0E3CF863ED1
:100F1000910509F444C0873E9105E1F680914B05A7
:100F200083FD61C090914C0591FF2BC024EE30E011
:100F3000D1CF80914B058370811152C080914C05B7
:100F400083FFC8CF29E230E0C5CF80914B0580FDFB
:100F500033C090914C0590FFBDCF23EE30E084FF6D
:100F6000B9CF20E030E0B6CF80914B0582FDF5CFC0
:100F7000B1CF80914B0582FD30C090914C0590FD22
:100F80002FC084FFA7CFEDCF80914C0581FFA2CF6A
:100F900080914B0527EE30E084FDE3CF9BCF80911D
:100FA0004B0583FDF7CF96CF80914B0585FD1EC085
:100FB00080914C0583FF8ECF29E330E08BCF809169
:100FC0004B0586FF87CF2AE230E084CF80914B0526
:100FD00086FF80CF21E330E07DCF22EE30E07ACF74
:100FE00020EE30E077CF26EE30E074CF25E330E01E
:100FF00071CF90914B0592FF10C041E0282F2471D2
:10100000243009F040E031E0282F2871283009F021
:1010100030E0431711F02CE0822793FF10C041E02D
:10102000282F2471243109F040E031E0282F287165
:10103000283109F030E0431711F02CE0822730917D
:101040004C0530FF10C051E0282F2171213009F0EC
:1010500050E041E0282F2871283009F040E0541773
:1010600011F029E0822731FF10C041E0282F2171C3
:10107000213109F040E031E0282F2871283109F0B2
:1010800030E0431711F029E0822794FD877E089510
:101090001F93CF93DF930E945807EC01811520E541
:1010A000920708F041C0811540E4940708F0B5C0EC
:1010B000803E9105F8F48D3C910508F0A1C0883A76
:1010C000910580F4853A910508F08CC08130910536
:1010D00021F00497813A910550F4CE01DF91CF9130
:1010E0001F910895885A91094B9708F47EC0C0E07B
:1010F000D0E0F3CF8115904250F4C11581E0D807BC
:1011000008F080C0CE01805E91090897E5CF8D2F51
:101110008F710E94F907182FCE0199270E94580756
:10112000EC01D12BD062D9CFC03692E5D90740F57A
:10113000C03422E5D20708F08DC0C03242E5D407A2
:10114000C0F48C2FC11552E5D50708F06FC08F7120
:101150000E94F90743E0CC0FDD1F4A95E1F7CC2749
:10116000DF70282F30E084FD94C0C22BD32BD069D0
:10117000B4CFCF71D0E0DC2FCC27C16FD06AADCF18
:10118000C03C82E5D80708F5C03A92E5D90708F0D7
:1011900077C0CE0180569245809708F0A8CF8C2F5B
:1011A00086958695877050E2859FC0011124C37093
:1011B00021E030E0A90102C0440F551FCA95E2F7B3
:1011C000EA01C82BD92BDA6888CFCE01805C924522
:1011D000809708F08CCFDC2FCC27CC27DF71C06F35
:1011E000D06A7BCFA497D06478CFC85AD0E0CC0F18
:1011F000DD1FCE53DE4F0990D881C02DD4646DCF52
:10120000D0656BCF8D2F0E94F907182FCE0199273B
:101210000E945807EC01D12B60CF99270E945807F4
:10122000CC27DF70C82BD92BD06A57CF86958695EF
:1012300020E2829FC0011124C37021E030E0A901A7
:1012400002C0440F551FCA95E2F7EA01C82BD92BFB
:10125000DD6843CF8C2F86958695877050E2859FF9
:10126000C0011124C37021E030E0A90102C0440F85
:10127000551FCA95E2F7EA01C82BD92BDC682DCFA0
:101280008C2F8F710E94F907C82FD0E0DC2FCC275C
:1012900024CF50E1859F9001112467CFA0E0B0E0FA
:1012A000E4E5F9E00C945B257C01009188058091D0
:1012B0008705082BC7E0D0E010E0C8010C2E02C063
:1012C000959587950A94E2F780FD09C02197A8F7C4
:1012D000D12C8D2DCDB7DEB7E7E00C947725DC2E31
:1012E000B7018C2F0E943A070E944808019771F3BA
:1012F000F0CF0F931F93CF93FC0185810081118163
:10130000811591F0611581F0C8010E944E09C82F26
:10131000682FC8010E94C606B8018C2F0E943A07A8
:10132000CF911F910F910895C8010E94FC06C82F0C
:10133000F3CFCF93DF93D82FC92F0E944E096D2F83
:101340007C2F0E943A070E944808DF91CF910895B0
:10135000FC0184818115A1F0808191810E9499090D
:10136000282F92959F70963099F060F4925F9F704D
:10137000923030F4203FB1F038F481E0283E38F06C
:1013800080E008959A5FF3CF81E0243FC9F7089584
:1013900091E0213F09F090E081E0283E08F080E0F4
:1013A000892B089581E0089580E00895F894E82F4E
:1013B000E295EF70F0E041A18F7021E030E0B901DB
:1013C00002C0660F771F8A95E2F7CB01962F9095A2
:1013D000942391A392A1892B82A3789408952091BC
:1013E000930236E0839FC0011124269F800D911D3A
:1013F0001124811522E0920714F080E090E08352DE
:101400009D4F90939202809391020895EF92FF92E4
:101410000F931F93CF93DF93A0919102B09192020B
:101420009D012D5D3240620F731F613042E07407F1
:1014300010F060E072E04091DF045091E004FC01A4
:10144000EE24E394F12C2617370748F05093E0047C
:101450004093DF04CDB7DEB7E6E00C9478258491A5
:101460009D919817A1F08D0101501109E801888321
:10147000C901C5E096958795CA95E1F7E70102C0D5
:10148000CC0FDD1F8A95E2F7CE014C2B592B2F5F35
:101490003F4F3196D8CF80910705811559F0E091E3
:1014A0002F05F0913005309729F00190F081E02D63
:1014B0000995089580E00895A3E0B0E0E2E6FAE03F
:1014C0000C9460259C0180917C0290917D02821792
:1014D0009307A1F030937D0220937C02E0912F05C9
:1014E000F0913005309751F083E089833B832A8364
:1014F0000084F185E02DCE01019609952396E2E066
:101500000C947C25A3E0B0E0E8E8FAE00C946025B8
:101510009C0180917A0290917B0282179307A1F03F
:1015200030937B0220937A02E0912F05F0913005F1
:10153000309751F084E089833B832A830084F185CE
:10154000E02DCE01019609952396E2E00C947C25CE
:1015500090913501913021F490914B0597FD0CC08D
:10156000E2E3F2E09191891302C0DF011E9252E0A2
:10157000E833F507B9F70895E82FE695E695E6957F
:10158000803FC8F7F0E0E85CFD4F877021E030E075
:10159000A90102C0440F551F8A95E2F7CA01809540
:1015A00092818923828308958091340108952FB711
:1015B000F894609176027091770280917802909110
:1015C00079022FBF0895CF92DF92EF92FF92809120
:1015D0000705811559F00E94D70A6B017C01C701EC
:1015E000B601FF90EF90DF90CF9008950E94D70A48
:1015F000C0900905D0900A05E0900B05F0900C050D
:10160000C60ED71EE81EF91EEACF87E797E790932C
:1016100001088093000888E19AE00FB6F894A89535
:10162000809360000FBE90936000FFCF0895FC018F
:101630009B0180916C0290916D028617970740F094
:10164000672B29F48091E8008E778093E800C90128
:1016500040E0009741F4411106C08091E80082FF0C
:101660002FC080E00895209195022115A9F1253021
:10167000A9F12091E80023FD2DC02091E80022FD72
:10168000ECCF2091E80020FFE4CF3091F3002091CF
:10169000F200009719F02830310558F041E0283069
:1016A000310509F040E02091E8002E772093E80012
:1016B000D0CF41914093F10001972F5F3F4FE9CF89
:1016C00080919502811541F0853041F08091E800CC
:1016D00083FFC3CF81E0089582E0089583E00895F9
:1016E0008091660287FF13C08091E80082FF06C0E8
:1016F0008091E8008B778093E800089580919502AF
:101700008111F2CF0895809195028115D9F38091CE
:10171000E80080FFF8CF8091E8008E77ECCF209131
:10172000E4003091E50095E6A9012091EC00822FBC
:10173000817020FF06C08091E80080FF06C080E035
:1017400008952091E80022FD1AC08091950281152C
:1017500089F0853089F08091EB0085FD0FC02091E4
:10176000E4003091E50042175307F9F29A95E1F64B
:1017700084E0089582E0089583E0089581E008956B
:10178000E8EDF0E080818E7F80831092E20010927D
:10179000DA001092E100A0EEB0E08C9181608C93B1
:1017A00080818F77808319BCA7EDB0E08C918E7F0C
:1017B0008C9380818F7E8083109265020895FC0156
:1017C000AC014C5F5F4F8FEF61E39191892728E077
:1017D00030E0982F990F87FF09C0892F8627215065
:1017E0003040B9F7E417F50781F70895892FF7CF4F
:1017F00080918805982F9670963021F488600E9419
:10180000A7060895877FFBCF982F9093E90089174B
:1018100071F07091EC002091ED005091F00021FDED
:1018200009C09F5F973089F78093E9000895762F6C
:10183000242F50E03091EB003E7F3093EB0030914D
:10184000ED003D7F3093ED003091EB00316030933F
:10185000EB007093EC002093ED005093F00020918A
:10186000EE0027FDDECF0895A0E0B0E0EAE3FCE063
:101870000C945A25C8EDD0E088818F7E8883E7EDEF
:10188000F0E080818160808384E082BF81E080938A
:10189000650288818E7F888302EE10E0F801108255
:1018A0001092DA0081EEC82ED12CF60110828881C8
:1018B0008F77888388818068888388818F7D8883FB
:1018C00019BC109295021092640210929402109228
:1018D000630290EEE92EF12CF70180818B7F8083EB
:1018E00088818160888342E060E080E00E94040C8F
:1018F000F60180818E7F8083F80180818160808302
:10190000808188608083F70180818E7F80838881D9
:1019100080618883CDB7DEB7E8E00C947625E0914E
:101920008B0590918A0527E0E91302C080E00895B5
:10193000AE2FB0E02E9FF0011124E457FA4F318111
:10194000361306C03081381303C03581341304C008
:10195000FD013196E770E8CF81E008950F931F9362
:10196000CF93DF938B01EA0190919502943059F562
:101970008093E9008FEF9091E80095FD06C095ED0A
:101980009A95F1F700008A95B1F78091E80085FFFC
:101990001AC00E948F0B811111C08091E80085FD53
:1019A00006C08091E8008E778093E800F2CFF801BE
:1019B00081918F018093F100219779F78091E80060
:1019C0008E778093E800DF91CF911F910F9108955A
:1019D000CF93DF93D82FC92F48E050E0682F792F9D
:1019E00081E00E94AE0C88E0ED2FFC2FAEE6B2E065
:1019F00001900D928A95E1F7DF91CF910895BC0196
:101A000040E250E082E00E94AE0C0895BC0143E049
:101A100050E082E00E94AE0C0895A0E0B0E0E3E167
:101A2000FDE00C945825182F092FB62EA72E7A0109
:101A3000809162029AE0C92ED12C8A3018F0CC2411
:101A4000C394D12CC1E0D0E06B2D7A2D812F902F43
:101A5000F7010995811116C02196CC16DD0694F088
:101A6000CC9FC001CD9F900D900D112420E030E05F
:101A700045E34A95F1F700002F5F3F4F28173907DC
:101A8000B9F7E2CFCDB7DEB7EAE00C9474258091C8
:101A9000860590918905892B90913501913049F502
:101AA00090914B0597FF25C08093390240E250E0AA
:101AB0006FE075E088E392E00E941926892BC1F05F
:101AC00080E2E8E3F2E0AFE0B5E001900D928A95A4
:101AD000E1F7E0912F05F0913005309749F086E06D
:101AE000809338020480F581E02D88E392E0099527
:101AF00008958093300248E050E061E375E080E3B0
:101B000092E00E941926892B99F388E0E0E3F2E045
:101B1000A1E3B5E001900D928A95E1F7E0912F05E0
:101B2000F0913005309721F30280F381E02D80E3BE
:101B300092E0DDCFCF93C82F811509F46BC08CEFF5
:101B40008C0F813A08F068C080913501813041F1F5
:101B5000E2E3F2E088E392E02191C217D9F18E1717
:101B60009F07D1F7809135018130D1F1A2E3B2E036
:101B7000EFEF80E09D91C91709F44AC0EF3F19F4D7
:101B8000911101C0E82F8F5F8630A1F7EF3F09F474
:101B90003FC00E2E000CFF0BE05DFD4FC28338C02E
:101BA00080914B0587FFD4CFEC2FE695E695E6951F
:101BB000F0E0E85CFD4F828190E04C2F477021E01F
:101BC00030E002C0220F331F4A95E2F782239323AD
:101BD000892B31F08C2F0E94A80A0E94470DC2CF9A
:101BE00080914B0587FFC2CFAC2FA695A695A695F1
:101BF000B0E0A85CBD4FC77081E090E001C0880FE5
:101C0000CA95EAF71296CC911297C82B1296CC93EC
:101C10000E94470DCF91089580E28C0F883068F4C0
:101C2000C77081E090E001C0880FCA95EAF7C091C3
:101C30008605C82BC0938605EBCF8BE58C0F8330D0
:101C400038F42C2F2452330BC9010E945C0AE2CFD6
:101C5000C85ACB31F8F6EC2FF0E0EE0FFF1FE8503A
:101C6000FE4F808191810E94820AD4CF811571F14B
:101C70009CEF980F913A28F40E94A80A0E94470D01
:101C8000089590E2980F983088F4877021E030E052
:101C9000A90102C0440F551F8A95E2F7CA01809539
:101CA00090918605892380938605E8CF9BE5980F60
:101CB000933028F480E090E00E945C0A0895885AEE
:101CC0008B3120F480E090E00E94820A0895811513
:101CD00039F090918605892B809386050E94470DE7
:101CE0000895811541F08095909186058923809310
:101CF00086050E94470D0895109286058091350152
:101D00008130C1F480914B0587FF14C0EAE3F2E013
:101D10008EE1DF011D928A95E9F780E090E00E9454
:101D20005C0A80E090E00E94820A109289050E947D
:101D3000470D0895E2E3F2E086E0EBCF0E947C0ECF
:101D40002FEF84E39CE0215080409040E1F700C0F9
:101D5000000088E19AE00FB6F894A895809360009F
:101D60000FBE90936000FFCFCF92DF92FF920F9350
:101D70001F93CF93DF938C01FC018481811509F4BB
:101D8000D1C061E0C8010E947909EC01F801F58039
:101D9000F11409F4ADC29C013A9599272115FFE48D
:101DA0003F0728F0C11541E0D407D0F4CE01AC01C3
:101DB000445051094432510518F08B970E9780F426
:101DC000E0917F05F0E0EE0FFF1FE35BFA4F8081AB
:101DD00091818F3F4FE7940719F00196918380839B
:101DE000F80181818093830580818093820580E260
:101DF00080933701D0938105C0938005CE01905226
:101E00008115904218F5F8018681803170F1FE014C
:101E1000FF27ED33F10518F5E855F34FE491E09312
:101E20003701CD37D10509F48BC008F059C0CA3746
:101E3000D10509F421C208F045C0CC32D10579F4AE
:101E400081E080938405109238010FC0CE01905438
:101E50008115904140F5F80186818031C0F6CE01B0
:101E6000805E9245809708F480C0F11409F452C254
:101E7000C130FCE7DF0709F493C0C3302CE7D20779
:101E800009F488C0C115DC4709F044C20E947C0EE9
:101E90004FEF84E39CE0415080409040E1F700C068
:101EA00000000E94050B21153F4108F4B0CFCE0180
:101EB000805A9245809708F3CD33D10508F0CEC102
:101EC000FE01AACFCB37D10509F0ECC181E00E9419
:101ED000F907F11409F441C00E94670E8BE1EBC1D0
:101EE000C1342EE7D20709F4F9C178F4C0344EE7C3
:101EF000D40709F46FC2CE018B7F803E910509F0B3
:101F0000AECF81E080938505B0CFC2348EE7D8078D
:101F100009F467C2C3349EE7D90709F0A0CF83E074
:101F20000E94AA06DF91CF911F910F91FF90DF9041
:101F3000CF9008950E94710E86E00E94360EF2CF77
:101F400081E00E94F907F11421F00E94670E89E1F7
:101F5000B2C10E94710E89E1F0CF0E94710E8BE137
:101F6000ECCF0E94710E8DE1E8CFF110D3C1CF719B
:101F700081E090E0FC0102C0EE0FFF1FCA95E2F77E
:101F8000EF016E2F83E090E00E944D268C2F0E947F
:101F9000A406C8CF6FEF7FEF80E090E00E946B2631
:101FA0000E949E0E0E94FC06C82FC2C1343009F464
:101FB0006CC060E0C8010E947909B4CF393009F4DF
:101FC000F2C03A5F3F703230A0F7823F09F0FCC0A8
:101FD000892F8F71211509F427C1F3C0D82F9031B3
:101FE00010F0D295D07F2115C9F0D11569F080E2AB
:101FF0008C0F883010F0C1110BC0809186058D2B9D
:10200000809386050E94470D8C2F0E949A0DD1CF98
:10201000809189058D2B80938905F4CF8C2F0E94A8
:10202000360ED11531F2D09580E28C0F883010F049
:10203000C11108C0809186058D23809386050E947A
:10204000470DB7CF809189058D2380938905F7CF00
:10205000453008F0AECF0E94710EABCF211521F0B4
:10206000411509F48FC1D0CF4115A9F3C93349F403
:10207000FFEF27EE33E0F15020403040E1F700C0A1
:1020800000008C2F0E94360E94CF892F869586955E
:102090008370811561F0813009F08BCF8C2F9370A4
:1020A000211102C080E090E00E94820A82CF8C2F32
:1020B0009370211102C080E090E00E945C0A79CF09
:1020C000892F8370811136C0211129C08C2F8295F0
:1020D00086958770880F880F2C2F2F70082E01C0CF
:1020E000220F0A94EAF74C2F4071C4FF07C04FE05B
:1020F00050E001C0440F8A95EAF740959695969571
:102100009370923091F0842F822B933031F0809134
:102110008705913039F0242B82230E94A4060E9467
:102120004B0A47CF822B842BF8CF242B8091870535
:102130008227F3CF211561F190FFF1CF8C2F82958B
:1021400086958770880F880F2C2F2F70082E01C05E
:10215000220F0A94EAF74C2F4071C4FF07C04FE0EA
:1021600050E001C0440F8A95EAF740959695969500
:102170009370923099F0842F822B933031F08091BC
:102180008805913041F0242B82230E94A706C7CFF7
:10219000823028F2D3CF822B842BF7CF242B80914F
:1021A00088058227F2CFD92FDF70211539F08D2FC6
:1021B0000E94AA068C2F0E94670EB1CF0E94710E5A
:1021C0008D2F0E94B606ABCF60F4803FB1F0813F07
:1021D00039F1211579F1411551F18C2F0E949A0D99
:1021E0009ECF833FB1F780E0211579F29F7181E0A6
:1021F00001C0880F9A95EAF7C8CF211579F04530CC
:1022000008F08DCF292F2F7181E090E001C0880F59
:102210002A95EAF7909188058927B7CF4630F0CF05
:10222000892F8F71211569F20E94AA0678CF892F14
:102230008F71FACF411579F0C93349F44FEF87EE2A
:1022400093E0415080409040E1F700C000008C2FA7
:102250000E94360E64CF892F8F71B3CFC43ED10553
:1022600009F44FCE58F5CB37D10509F42FCE70F4D1
:10227000CA37D10509F0F3CD81E00E94F907F114C6
:1022800009F46FCE0E94670E8DE115C0CD37D105E0
:1022900009F456CEC03ED10509F433CECC37D10572
:1022A00009F0DDCD81E00E94F907F11409F442CE76
:1022B0000E94670E86E00E949A0D34CEC234EEE78B
:1022C000DE0709F48EC080F4C0342EE7D20709F48B
:1022D00081C0C1343EE7D30709F0C1CD81E00E943F
:1022E000AA060E94F80B1ECEC3344EE7D40715CEC3
:1022F0008D37910509F424CE08F047C08B3791053E
:1023000009F4E4CD8C37910569F28C9709F0B0CFD0
:1023100010928405F801C080D180C601F11409F43F
:1023200041CE0E944E09C82F682FC6010E94C606E2
:10233000B6018C2F0E943A070E944808C82FF80166
:102340002581468142954F70392F32953F70383044
:1023500009F4B6CE08F032CE343008F027CE892FFB
:102360008F70323008F43ACE907F903211F082951F
:10237000807FC13009F072CE211509F469CE463054
:1023800008F017CE0E94670E14CEC1348EE7D8072E
:10239000E9F070F4C034EEE7DE0709F4C3CDCE01F6
:1023A0008B7F803E910509F05ACD10928505B2CF02
:1023B00082E0C234FEE7DF0751F0C3342EE7D207D4
:1023C00009F04DCD83E00E94B606ACCD81E00E94BD
:1023D000B60687CF61E083E090E00E944D2681E061
:1023E000D6CD82E07CCF8091CA05803178F480918F
:1023F000C905811559F0E0918B0520918A0530912E
:10240000C5054091C40557E02E1301C008956E2FF5
:1024100070E05E9FF0011124DF01A457BA4F1496BB
:102420008C911497811561F111968C9111978313FA
:1024300027C08C91841324C015968C911597811117
:102440001FC012968D919C91A091C605B091C705B1
:102450008A1B9B0B883C910598F48091CA058F706C
:1024600080618093CA05EE56FA4F80818F7080613B
:10247000808384EC95E00E94B40E0E94300708959A
:10248000FB013196E770C0CFADE0B0E0EAE4F2E1E5
:102490000C9455258C0186E0F801DE011896019018
:1024A0000D928A95E1F7F801F580C48084EC882EBE
:1024B00085E0982E7090C805711020C0C114D9F025
:1024C000F11409F41CC1C8010E94A809811509F47E
:1024D00016C187E0F801D40101900D928A95E1F7C9
:1024E000F1E0CF1206C08091C4059091C5050E940D
:1024F00099090E94F311FF24F39454C0E080A28054
:10250000B380D090C9058091C6059091C70595010B
:10251000281B390BD11409F4BAC0283C310508F046
:1025200090C0C11441F39091C505C1808091CA0546
:10253000803108F058C0C91214C09091C4059E1192
:1025400010C0F1104AC08F7080618093CA0584EC7E
:1025500095E00E94B40E8091CA05F8018683F12CA3
:1025600021C0F1103AC040E06C2D8E2D0E948F0CDE
:1025700040E06C2D8E2D0E948F0CF82E8111EFCF34
:10258000888599850E949909292F22952F7090346A
:1025900070F49F702230A0F09115B1F0F80196818F
:1025A000903190F48F2D2D96EDE00C9471252A5FDB
:1025B0002F70223068F0C8010E94B40EFD2CF2CFBB
:1025C000911511F0811571F3805E883058F3F3CFC7
:1025D000803F40F3815F8330F9CF8091CA058160ED
:1025E0008093CA05BCCFC91207C09091C4059E1143
:1025F00003C0F11409F46CC0C8010E94A809811538
:1026000009F47DC0F11409F47AC08091CA058032C2
:1026100078F02091C4053091C5053A832983BC82A6
:10262000AB827D821E828F83CE0101960E94B40E02
:1026300087E0F801A4ECB5E001900D928A95E1F7EE
:1026400058CF8091CA05803150F484EC95E00E9407
:10265000B40E87E0F40111928A95E9F780CFC11496
:1026600009F449CF2091C50591812913C5CF9091D7
:10267000C4059E11C1CFF110BFCF8683C8010E944F
:10268000B40E87E0F40111928A95E9F734CF283C23
:102690003105F8F6C11409F42ECFF11481F19091AF
:1026A000C5058181981321C08091C4058E111DC07C
:1026B0008091CA0580FD10C0803170F08683807FD4
:1026C000803F39F08681982F907F905F8F70892BA3
:1026D0008683C8010E94B40E87E0F801A4ECB5E03F
:1026E00001900D928A95E1F706CFC8010E94A809D2
:1026F00081119ECF8091CA0581608093CA05C8016F
:102700000E94B40EF8CEABE1B0E0E9E8F3E10C943E
:102710005E254E8B5F8B688F798F8A8F192F9B8FE9
:102720009111109289051D8A86E0FE017696DE01E0
:102730001F9601900D928A95E1F70A8D011561F0BF
:102740000B8B1C8B61E0CE010F960E94790961E032
:10275000CE010F960E9479090B8B1C8B87E0FE013E
:102760003F96DE01189601900D928A95E1F7CE0111
:1027700008960E944412811128C09C8520918A05E8
:1027800030918B0587E0FE013896DE0111960190AD
:102790000D928A95E1F79115C1F0822F90E0019694
:1027A0008770992738171906D9F097E0929FD001C2
:1027B0001124A457BA4FFE01319601900D929A95BB
:1027C000E1F780938A050E94300717E080918B051E
:1027D00090918A05891312C06B96E4E00C947A25D7
:1027E0000E947C0E10928A0510928B0587E0E4EC23
:1027F000F5E0DF011D928A95E9F7E7CF189FC00148
:10280000112484579A4F0E944412811529F3809114
:102810008B0590E001968770992780938B05D6CF22
:10282000AAE2B0E0E6E1F4E10C945F2586E692E0EE
:10283000FC0101962091F100208322E08E36920760
:10284000B9F780916702893009F45AC0C8F4823020
:1028500009F4B6C0833009F485C0813091F18091CC
:10286000E80083FFEAC080916602909167029A3087
:1028700008F0E3C0E92FF0E0ED57F94D0C94E8259E
:102880008A3009F48CC08B3051F780916602813216
:1028900031F780916A0290916B02892B01F7809148
:1028A000E800877F8093E8000E94700B81E09091A0
:1028B0006802911101C080E0809335010E947C0E76
:1028C000CECF80916602813A51F68091E800877FF1
:1028D0008093E80080916A0290916B02892B61F0ED
:1028E00060E080E090E070E00E94170B8091E800CB
:1028F0008B778093E800B3CF68E08EE692E0F3CF69
:1029000080916602813209F0AACF80916A0290918B
:102910006B02029708F0A3CF8091E800877F809335
:10292000E8008091E80082FF18C09091F300809148
:10293000F200029731F48091F100813011F086307D
:1029400021F48091F100809334018091E8008B772D
:102950008093E8000E94700B82CF809195028111D4
:10296000E0CF7DCF80916602813A09F078CF8091E7
:102970006A0290916B02892B09F071CF8091E80077
:10298000877F8093E8008091E80080FFFCCF8091F2
:1029900035018093F1008091E8008E77D9CF809146
:1029A0006602813209F05BCF8091E800877F8093D7
:1029B000E8000E94700B80916902809333014FCF31
:1029C00080916602813A09F04ACF8091E800877FC2
:1029D0008093E8008091E80080FFFCCF8091330174
:1029E000D8CF803889F0823841F580916A028F70A3
:1029F000873018F58093E9008091EB0085FB8827EC
:102A000080F91092E90006C080919402880F90919D
:102A10006302892B9091E800977F9093E800809360
:102A2000F1001092F1008091E8008E7723C08111AF
:102A300016C080916802813011F18091E80083FF17
:102A40000AC08091E800877F8093E8008091EB00C6
:102A500080628093EB00AA96E3E00C947B258230A1
:102A600061F780916802811589F01092E9008091E8
:102A7000E800877F8093E8000E94700BDECF81E042
:102A8000933009F080E080939402EFCF80916A0246
:102A90008F702FEF280F263080F68093E900209169
:102AA000EB0020FFE2CF933031F48091EB008062A5
:102AB0008093EB00DACF9091EB0090619093EB0064
:102AC00021E030E0A90102C0440F551F8A95E2F7CA
:102AD0004093EA001092EA008091EB008860E8CF12
:102AE0008111ABCF109168021F778091E30080784D
:102AF000812B8093E3008091E800877F8093E8003A
:102B00000E94700B8091E80080FFFCCF8091E30071
:102B100080688093E30083E0111101C082E080931C
:102B200095028BCF8058823008F087CF20916802C1
:102B3000309169022C3D53E0350799F583E08A8393
:102B40008AE289834FB7F894DE01139620E03EE0D5
:102B500051E2E32FF0E050935700849120FF03C02F
:102B600082958F703F5F8F708A30C8F0895C90E0EB
:102B70008D939D932F5F243161F74FBF8091E800C3
:102B8000877F8093E8006AE270E0CE0101960E94A0
:102B9000170B8091E8008B778093E8004ECF805D23
:102BA000E6CF832F99278330910529F160F4813096
:102BB000910509F476C0029709F03FCF8BE390E0CE
:102BC000E1E6F1E02DC020916A0230916B02813282
:102BD000910509F45AC0829709F02FCF21153105CC
:102BE00009F469C02130310509F027CF8DE690E066
:102BF000E0EBF0E015C0C90199272130B1F1823036
:102C0000910509F43AC0892B09F017CFEEECF1E0F9
:102C1000E4918E2F90E0EEECF1E0009709F40DCFF7
:102C20002091E800277F2093E80020916C023091EA
:102C30006D028217930708F49C0140E021153105CD
:102C400009F03EC041113CC08091E80082FDA1CF57
:102C500080919502811509F49CCF853009F499CFB4
:102C60008091E80083FFF0CF94CFECEBF1E0E491AA
:102C70008E2F90E0ECEBF1E0D0CFEEEAF1E0E491C2
:102C80008E2F90E0EEEAF1E0C8CF2115310571F00A
:102C90002130310509F0D1CE89E090E0ECE8F1E097
:102CA000BFCF82E190E0ECE9F1E0BACF89E090E0BB
:102CB000E3E7F1E0B5CF84E490E0EDE1F1E0B0CFFF
:102CC00080919502811509F464CF853009F461CFB4
:102CD0008091E80083FD5DCF8091E80082FDB4CF54
:102CE0008091E80080FFAACF9091F3008091F200DC
:102CF0002115310519F08830910550F041E0089711
:102D000009F040E08091E8008E778093E80096CF4C
:102D100044914093F1003196215031090196E8CF5A
:102D2000803809F08ACE8091E800877F8093E800A0
:102D3000809164028093F10076CE81117ECE109155
:102D40006802123008F079CE8091E800877F809386
:102D5000E800109364020E94700B1115A9F084E042
:102D60008093950242E061EC81E00E94040C42E213
:102D700061EC82E00E94040C80919502843051F451
:102D800082E08093360159CE8091E30087FDE7CF42
:102D900081E0E6CF81E0F5CFA8E0B0E0E2EDF6E13A
:102DA0000C94602565EE7EEF80E090E00E946B263B
:102DB00060E082E090E00E944D2681E080938705EC
:102DC00061E083E090E00E944D2660E074E184E0E1
:102DD00090E00E946B2660E086E090E00E944D2625
:102DE00060E087E090E00E944D2640E050E0BA01AC
:102DF00088E090E00E945F2660E083E290E00E941D
:102E00004D2660E08CE090E00E944D2660E08DE071
:102E100090E00E944D2619821A821B821C821D821C
:102E20001E821F82188648E050E067E170E0CE0104
:102E300001960E943D2640E050E0BA018FE190E00B
:102E40000E945F2640E050E0BA018FE090E00E94CF
:102E50005F2640E050E0BA0183E190E00E945F26E7
:102E60002896E2E00C947C25CF92DF92EF92FF92BD
:102E70001F93CF93DF9300D000D0CDB7DEB7C090C3
:102E8000EA04D090EB04E090EC04F090ED040E9492
:102E9000D70A6C197D098E099F0911E06436710506
:102EA0008105910578F10E94E30ADC01CB010296CD
:102EB000A11DB11D89839A83AB83BC8380912C01B2
:102EC00090912D018E509B4F20912B01422F50E06D
:102ED000253010F044E050E0BE016F5F7F4F0E944C
:102EE000262683E090E00E94C824182F811551F017
:102EF0000E94D70A6093EA047093EB048093EC0479
:102F00009093ED04812F0F900F900F900F90DF9111
:102F1000CF911F91FF90EF90DF90CF9008958F9207
:102F20009F92AF92BF92EF92FF921F93CF93DF9346
:102F300000D000D00F92CDB7DEB77B0180E090E0EB
:102F40000E94C824182F811509F464C080911601CD
:102F5000482F50E0811511F041E050E060911701D9
:102F6000709118016E507B4FCE0105960E94262667
:102F70008090030590900405A0900505B09006058B
:102F80000E94D70A681979098A099B096436710574
:102F90008105910538F483EF94E00E94DF0B9D8159
:102FA0008917C1F181E090E00E94C824811509F4DD
:102FB0003FC080911E01482F50E0853010F044E062
:102FC00050E060911F01709120016E507B4FCE0147
:102FD00001960E94262683EF94E00E94DF0B9D81DC
:102FE000891326C00E94D70A6093030570930405D5
:102FF000809305059093060589819A81AB81BC81F8
:103000008093FF0490930005A0930105B0930205FF
:1030100081E00FC08091F3049091F404A091F50435
:10302000B091F60489839A83AB83BC831111E4CFFA
:1030300080E04091FF04509100056091010570917E
:103040000205F70140835183628373830F900F90D1
:103050000F900F900F90DF91CF911F91FF90EF9005
:10306000BF90AF909F908F900895A0E0B0E0EBE309
:10307000F8E10C945A25D82FC92F44E050E067EFAF
:1030800074E00E9419268C01C090EE04D090EF04E9
:10309000E090F004F090F1040E94D70A6C197D09C9
:1030A0008E099F09643671058105910518F4011593
:1030B000110511F180912401909125018E509B4FB3
:1030C00020912301422F50E0253010F044E050E0E1
:1030D0006D2F7C2F0E94262682E090E00E94C8245B
:1030E000811559F00E94D70A6093EE047093EF04A3
:1030F0008093F0049093F10481E0CDB7DEB7E8E06F
:103100000C947625AB0124E630E0BC0188E70E94F0
:10311000E4229C0181E0232B09F080E00895809156
:10312000E804811569F08091E504811549F062E0B9
:1031300070E08EEA90E00E94821881111092E504FE
:1031400008958091E8048115F9F00E94D70ADC0106
:10315000CB01805A9541AF4FBF4F8093E1049093CC
:10316000E204A093E304B093E4048091E5048111A8
:103170000BC062E070E08CEA90E00E94821881153A
:1031800019F081E08093E50408951F93CF93DF93B6
:10319000982F162F81E09A3019F09D3039F480E095
:1031A0000E945619DF91CF911F910895C09191020D
:1031B000D091920286E0FE01AEE7B2E001900D925E
:1031C0008A95E1F7903E90F186E0FE0111928A9592
:1031D000E9F7C0919102D0919202111133C046E0FB
:1031E00050E0BE018EE792E00E9419269E012D5DFF
:1031F0003240892B91F52A5F3F4F40919302642F13
:1032000070E0C9010E943C25481B463010F4240F91
:10321000311D211572E0370710F020E030E0235215
:103220003D4F3093920220939102BCCFF6E09F9FD6
:10323000B00111246E527E4F46E050E0CE010E9454
:103240001026C7CF9E012A5F3F4FFE012E173F0772
:1032500031F2808180958193F9CFC90145E096953F
:1032600087954A95E1F741E050E0BA0102C0660F48
:10327000771F8A95E2F7CB016091DF047091E0043B
:10328000862B972BB9016B5F7F4FE5E076956795AD
:10329000EA95E1F702C0440F551F6A95E2F7842BC7
:1032A000952B9093E0048093DF04A5CFCF93382F24
:1032B000E0919102F0919202ED5DF2402091930233
:1032C000622F70E0CF010E943C25281B822F311510
:1032D00069F066E00E948725C82FC15010F4CF9195
:1032E000089560E080E20E94C518F7CF8E0F9F2FEF
:1032F000911D811522E0920710F080E090E083524A
:103300009D4F9093920280939102E9CF1F93CF93A8
:10331000DF93EC01162FFE018491811104C0DF912F
:10332000CF911F910895612F0E94C5182196F3CF68
:103330000E94861981E00E94561908950F931F93E9
:10334000CF93DF93EC01FC0101900020E9F78F019E
:1033500001501109C017D10728F0DF91CF911F91BB
:103360000F91089560E089910E94C518F3CF1F92D4
:103370001FB61F9211248F939F93EF93FF93809119
:103380008502909186020196909386028093850231
:10339000811105C090918402926090938402E09123
:1033A0008602E695E695F0E0EE5EF84FE491E813CC
:1033B00005C0809184028D7F80938402FF91EF91FC
:1033C0009F918F911F901FBE1F9018952FB7F89453
:1033D0008091760290917702A0917802B091790263
:1033E0002FBF0895A6E0B0E0E8EFF9E10C945E2568
:1033F0000E94E6198C0180910D0590910E058017B1
:10340000910779F019821A820E94E619BC0149815C
:103410005A8180E090E00E94831310930E05009380
:103420000D052696E4E00C947A25CF93DF93EC010A
:103430000E94E6198C1B9D0BDF91CF910895ACE0A3
:10344000B0E0E5E2FAE10C945325FE01319688E004
:10345000DF011D928A95E9F78EEAE82E81E0F82EC9
:103460008F013F01AA24A394B12C28EB822E21E0E6
:10347000922EF70181917F018F3F09F43EC0F894AD
:10348000E82FE295EF70F0E021A18F70A50102C056
:10349000440F551F8A95E2F7CA01922F982B91A3EA
:1034A00092A18095892382A3789400C0E2EBF1E099
:1034B00031E0512C21912F3F79F0A22FA295AF70CE
:1034C000A05EB0E08C9190E02F7002C0959587953A
:1034D0002A95E2F780FF81C080E0582A330F8E16CC
:1034E0009F0641F7F70182918F3F11F00E94D609A4
:1034F00050EA5A95F1F7D8015C920F5F1F4FB2EB7B
:10350000EB16B1E0FB0609F0B4CF48E050E0B301A0
:1035100087E892E00E9419266C01892B41F088E02F
:10352000F301A7E8B2E001900D928A95E1F70091CE
:10353000900210E00A561D4FC114D10409F44FC087
:1035400081E0809361020E94E6199093600280936B
:103550005F0280910705811509F49CC07E01E9E0B6
:10356000EE0EF11C84E0D7011D928A95E9F7809157
:1035700062028A3008F057C04FE857E1B701C8012E
:103580000E940D0D811509F473C045E358E1B701A0
:10359000C8010E940D0D811509F46AC044E357E18A
:1035A000B701C8010E940D0D811509F461C0109288
:1035B000620280918F0290E044E050E0B7018A56A9
:1035C0009D4F0E94192621E020935E02892B09F06D
:1035D00041C02C96EFE00C946F25832F7ECF809115
:1035E0006102811509F4B5CFE0905F02F0906002AE
:1035F0000E94E6198E199F09059708F4AACF44E0A6
:1036000050E067E872E0C8010E941926892B41F05A
:1036100084E0E7E8F2E0D80101900D928A95E1F7A5
:103620001092610296CFC0905C02D0905D020E9421
:10363000E6198C199D09843F914008F09DCF809137
:103640005E02811531F284E0F70111928A95E9F763
:1036500010925E02E0918F02F0E0EA56FD4F8985FC
:103660009A85AB85BC8580839183A283B383B1CFD8
:10367000809162028F3F39F40E94E61990935D02B7
:1036800080935C02DCCF8F5F809362028A3008F403
:1036900090CFF2CFE0908F02F12CA7014A565D4FF8
:1036A0007A01F80180819181A281B3818093F30432
:1036B0009093F404A093F504B093F60483EF94E0A0
:1036C0000E94DF0B8093F2048091F7049091F8043C
:1036D000A091F904B091FA04F70180839183A28349
:1036E000B383C090FB04D090FC04E090FD04F09004
:1036F000FE048091580290915902A0915A02B09113
:103700005B02C816D906EA06FB0609F462CFC0922E
:103710005802D0925902E0925A02F0925B020E9443
:10372000D70AC61AD70AE80AF90AC0920905D09240
:103730000A05E0920B05F0920C054BCFCDB7DEB732
:103740002A970FB6F894DEBF0FBECDBF85B780684D
:1037500085BF85B7806885BF84B7877F84BF0FB674
:10376000F894A89580916000886180936000109221
:1037700060000FBE80E890E00FB6F894809361007F
:10378000909361000FBE81E08093360184ED99E053
:1037900090932F0280932E020E94C00B0E94340C43
:1037A0008091E20084608093E20078948091950299
:1037B000811599F08091E9001091EC008F701795B8
:1037C00011271795182B1092E9008091E80083FDCE
:1037D0000E9410141F701093E90082E084BD93E0F2
:1037E00095BD9AEF97BD80936E00109209051092D7
:1037F0000A0510920B0510920C0588EC90E02091C0
:10380000E30027FD0EC0AFE3BCE91197F1F700C05C
:1038100000000197A1F70E94C00B1092950280E072
:1038200001C081E08093070580E090E00E94372688
:10383000853E9E4F11F00E94CC168EE090E00E94D3
:103840002F2691E0811101C090E09093080590939C
:1038500000018091070581110E94DA238091000107
:103860008091000191E08927880F880F8093900252
:1038700094E0981B90938F0284E90E94D60986E613
:103880000E94D60987E90E94D60986EC0E94D609D3
:1038900002EB11E0F80181918F018F3F11F00E943E
:1038A000D609F1E0083B1F07A9F788E0E6E9F2E056
:1038B000DF01282F1D922A95E9F7E7E8F2E0DF0102
:1038C0001D928A95E9F780E090E00E943726853EB8
:1038D0009E4F11F00E94CC1682E090E00E942F26AD
:1038E00080939E0284E090E00E94372690934C05DE
:1038F00080934B050E941F1AEFEFF6E721E0E1509D
:10390000F0402040E1F700C000000E941F1AE09143
:10391000080581E0E827EE0FEE0FF0E0EA56FD4FD4
:10392000808181FF08C06FEF7FEF80E090E00E9410
:103930006B260E94050B83E090E00E942F260E94D8
:10394000A4068091070592E0980F811509F4C5C07F
:1039500080E29093DD04809393020E945F226BE0EB
:1039600070E089E697E00E948218811509F43FC053
:103970008091DD0465E070E081FDB1C084E697E0F0
:103980000E948218811599F16DE070E082E597E060
:103990000E948218811559F10E94D70ADC01CB01DF
:1039A000805A9541AF4FBF4F8093E1049093E2045A
:1039B000A093E304B093E404EDEDF2E080E092E044
:1039C000DF019C011D9221503040E1F7F0939202FB
:1039D000E09391028FEF9FEF9093E0048093DF04D8
:1039E00081E08093E8048093E5041092DE048091E6
:1039F0008100886080938100809181008160809344
:103A000081008FB7F89420ED33E030938900209344
:103A100088008FBF80910705811102C00E94DD23BD
:103A200081E091E09093300580932F052224239428
:103A30008091950210E102E1853009F461C00E9495
:103A40001F1A0FE912E076E9E72E72E0F72ED70190
:103A5000F80191918D9127EA32E02E173F0709F482
:103A600058C09817B1F380900705D12CD701CD909D
:103A70007D01F80191908F019C1431F19C24B12CAF
:103A8000AA24A3948A2D89218115B9F08114A9F063
:103A9000B982DA820E94E6199C838B832D8291E0A1
:103AA0008A2D8C21811101C090E09E8349815A8129
:103AB0006B817C818D810E948313B394AA0CF6E004
:103AC000BF12E0CFF801C292D39428E0D212CECF39
:103AD0000E94E30A3324339421C080E83ACF8FE573
:103AE00097E04ECF809195020E941F1AE6E9F2E01E
:103AF0008191811111C34EE952E04E175F07C1F762
:103B000080919502853071F30E947C0E0E944B0AD1
:103B100096CF9813A8CF0E94F219312C80910705F7
:103B2000811509F4C0C0C0904D05D0904E050D2CF4
:103B3000000CEE08FF0810910B01212F30E0EDE49E
:103B4000F5E081E090E03296281739070CF0B3C118
:103B50004090AD025090AE026090AF027090B00203
:103B60000E94D70A4B015C0184189508A608B70883
:103B70009601A701F7FE04C020E030E040E050E0ED
:103B8000A0E6BAEE0E94EE256F83788789879A8730
:103B900048EC149F90011124032E000C440B550B8C
:103BA000280D391D4A1D5B1DA5E0B0E00E94EE25E1
:103BB0009B01AC016F81788589859A850E94A72534
:103BC00029013A0151EF451651046104710410F0C6
:103BD00060EF462E89EC88169104A104B1040CF123
:103BE00080917F0590E0019669E170E00E94932545
:103BF00080937F05880F991FFC01E35BFA4F1182C8
:103C00001082183108F017E11F5F10930B010E941A
:103C1000D70A6093AD027093AE028093AF02909387
:103C2000B00292E0C916D104E104F1040CF4412C75
:103C3000C090A902D090AA02E090AB02F090AC0232
:103C40000E94D70A9B01AC012C193D094E095F095E
:103C500069017A0135E6C316D104E104F10484F068
:103C60000E94D70A6093A9027093AA028093AB02C4
:103C70009093AC028091B1028093A8024092A70277
:103C80001091A802A091A702A11BBB0BA70196014E
:103C90000E94F92524E630E040E050E00E94C9256A
:103CA000120F1093B1028091E804811509F4F4C059
:103CB0000091E6041091E7040E94E619801B910B25
:103CC000C29708F4C9C00E94E6199093E704809354
:103CD000E60460E080E00E94EF098091B10290E08C
:103CE0009093BC028093BB020E944B0A809107050F
:103CF00060E0811509F434C180E00E94EF098091F1
:103D00004C0580FD06C060E470E088EA9AE00E94FD
:103D1000060A63E080E00E94EF09809187050E9417
:103D2000910660E08111D3C082EA9AE00E9498195E
:103D300089E391E00E949E1966E080E00E94EF090D
:103D4000809188050E949106823009F4CDC008F068
:103D5000C3C08111CDC060E086E99AE00E94861957
:103D600068E080E00E94EF090E944B0A81FB662711
:103D700060F984E79AE00E949819C090B702D09049
:103D8000B802E090B902F090BA020E94D70A6C190A
:103D90007D098E099F09693C710581059105B8F17E
:103DA0000E94D70A6093B7027093B8028093B90259
:103DB0009093BA0280918405811104C080913801EA
:103DC00081119EC06FE080E00E94EF0988EA91E0D7
:103DD0000E949E196CE080E00E94EF0941E0409350
:103DE00038018091B20290E001968170992780930A
:103DF000B20201978076992720918505211509F453
:103E00008CC060E670E08C54964F0E94060A809148
:103E1000BB029091BC02181619060CF491C0C09018
:103E2000B302D090B402E090B502F090B6020E94C6
:103E3000D70A6C197D098E099F0961367A4E810572
:103E4000910550F060E080E00E94EF098FE391E07F
:103E50000E949E190E948F188091DF049091E004C7
:103E6000892B09F082C08091E5048115A9F00E9498
:103E7000D70A0091E1041091E2042091E30430910B
:103E8000E404601B710B820B930B6F3F7F4F8F4FCE
:103E90009F4710F40E948F1831100E94A1180E94B1
:103EA0004B0A9091E904891709F4C2CD8093E90483
:103EB0000E94D70ABDCD40815181052E000C660BB2
:103EC000770BC40ED51EE61EF71E01963CCE8CE97C
:103ED0009AE00E9486192CCF833071F060E08AE767
:103EE0009AE00E9498193CCF60E08FE89AE036CFC4
:103EF00060E088E89AE032CF60E081E89AE02ECF77
:103F00006CE080E00E94EF0988EA91E00E949E192F
:103F10006DE080E00E94EF0964CF2091BB023091F8
:103F2000BC0260E670E02B3031051CF48C50974FDA
:103F30006CCF293231058CF48C5C974F0E94060AB5
:103F40000E94A1180E94D70A6093B3027093B40232
:103F50008093B5029093B6027FCF8C58984FEECFE6
:103F600088EE9AE00E94861977CF8091E804811547
:103F700009F479CF8091DE04811175CF0E94A118D8
:103F80002091DF043091E0042115310509F46BCF55
:103F900010E041E050E0812F90E04A01012E02C084
:103FA000880C991C0A94E2F7B40162237323672BEF
:103FB00011F41F5FF0CF2091DD0420FF9AC0912FF4
:103FC000990F990F990F37E0390F80E023E0909314
:103FD0000E018093110130930F012093120124E60A
:103FE00030E047E050E06CE071E088E70E94952205
:103FF000892B09F038CF80E2189FA001112480910D
:10400000DD0480FF82C0EDEBF2E080E2DF011D9273
:104010008A95E9F7ECEBF1E0F887EF8368EB71E064
:1040200030ECA32E31E0B32EDD24D394EF81F8855C
:10403000A191F887EF83FB018191BF01840F952F38
:10404000911D9C0123523D4F2901EA2FF0E0E354DA
:10405000FD4F80E090E027E0E22EE81AFD2C082ECC
:1040600001C0FF0C0A94EAF7320100E0D3011D9170
:104070003D011F212E2D201B277030E0B12F022E75
:1040800001C0BB0F0A94EAF73195219531092770D9
:10409000332701C016952A95EAF71B2B2081122B96
:1040A00010830F5F083011F7019631968830910523
:1040B00091F6EF81F885AE16BF0609F0B7CF04E69A
:1040C00010E020E230E04DEB52E060E488E70E942F
:1040D0002F23892B09F0C7CE809490948091DF0420
:1040E0009091E004882199219093E0048093DF046B
:1040F000BACE9695879596958795282F912F92956C
:10410000990F90763FE1390F62CF43525D4F04E63D
:1041100010E020E230E0D9CF80919402811509F4BB
:10412000EFCC19BD09BD09B400FEFDCF8091D800C8
:104130008F7D8093D8008091E00082608093E000C2
:104140008091E00081FDFCCF0E947C0ED9CC789458
:104150001F921FB61F9211248F939F93AF93BF930B
:104160008091760290917702A0917802B0917902C5
:104170000196A11DB11D8093760290937702A093C2
:104180007802B0937902BF91AF919F918F911F9068
:104190001FBE1F9018951F920F920FB60F921124F9
:1041A0002F933F934F935F936F937F938F939F933F
:1041B000AF93BF93EF93FF938091E10082FF09C01B
:1041C0008091E20082FF05C08091E1008B7F8093A7
:1041D000E1008091DA0080FF24C08091D80080FF48
:1041E00020C08091DA008E7F8093DA008091D90020
:1041F00080FFB5C080E189BD82E189BD09B400FEC0
:10420000FDCF81E08093950280916502811109C004
:104210000E94C00B0E94340C8091E2008460809365
:10422000E2008091E10080FF1FC08091E20080FFEA
:104230001BC08091E2008E7F8093E2008091E200BB
:1042400080618093E2008091D80080628093D800E2
:1042500019BC85E08093950283E0809336018091BC
:104260006F00826080936F008091E10084FF36C010
:104270008091E20084FF32C080E189BD82E189BD86
:1042800009B400FEFDCF8091D8008F7D8093D800C7
:104290008091E1008F7E8093E1008091E2008F7E2B
:1042A0008093E2008091E20081608093E20080913F
:1042B0006402811509F459C084E0809395028091CD
:1042C0009502843009F059C082E0809336018091D4
:1042D0006F008D7F80936F000E944B0A8091E100F8
:1042E00083FF2CC08091E20083FF28C08091E10011
:1042F000877F8093E10082E08093950210926402B0
:104300008091E1008E7F8093E1008091E2008E7FBA
:104310008093E2008091E20080618093E20042E0BD
:1043200060E080E00E94040C8091F000886080933F
:10433000F00081E08093360180933501FF91EF9189
:10434000BF91AF919F918F917F916F915F914F91AD
:104350003F912F910F900FBE0F901F90189519BC91
:1043600010929502109265025CCF8091E30087FF66
:1043700002C083E0A2CF81E0A0CF81E0A6CF1F9250
:104380000F920FB60F921124EF92FF920F931F938B
:104390002F933F934F935F936F937F938F939F934D
:1043A000AF93BF93CF93EF93FF9309EE10E0F80123
:1043B0008081C091EC008F70C795CC27C795C82B22
:1043C000108280EFE82EF12CF7018081877F8083B7
:1043D00078940E941014F8011082F701808188609F
:1043E0008083CF70F801C083FF91EF91CF91BF918F
:1043F000AF919F918F917F916F915F914F913F917D
:104400002F911F910F91FF90EF900F900FBE0F9083
:104410001F901895FF920F931F93CF93DF93182F40
:10442000EB011092BC0084EA8093BC000E94E61964
:10443000082FF92E8091BC0087FF28C08091B90019
:10444000887F883029F08091B900887F8031A1F57C
:104450001093BB0084E88093BC000E94E619182FDB
:10446000092F8091BC0087FF1FC02091B900287FD1
:1044700080E090E0283199F081E090E0203411F460
:1044800080E090E091958195910909C0802F9F2D42
:104490000E94151AC817D90768F68EEF9FEFCDB79F
:1044A000DEB7E5E00C947925812F902F0E94151A34
:1044B000C817D907B0F6F1CF8FEF9FEFF0CF10926A
:1044C000B9008CE08093B80008950F931F93CF93A9
:1044D000DF93EB018093BB0084E88093BC000E94D3
:1044E000E619182F092F8091BC0087FF11C0209179
:1044F000B900287F81E090E0283211F480E090E05C
:10450000919581959109DF91CF911F910F91089518
:10451000CF3FDC0741F3812F902F0E94151AC81757
:10452000D90708F78EEF9FEFEECFA0E0B0E0EBE900
:10453000F2E20C945525782EB62EA72E6A01E901D9
:104540000E94E6194C01C431D10528F1CF3FDC07A8
:1045500031F1CE0164E170E00E943C25F62EE72E99
:104560006F2D7E2D872D0E940A228C01892BD1F47C
:10457000EB2CFA2CCE0CDF1CEC14FD0419F0011509
:104580001105D1F084E98093BC00C801CDB7DEB736
:10459000EDE00C947125FF24F394E12CE1CF85E04C
:1045A000F82EFBCFCF3FDC07D9F2C4010E94151AC9
:1045B000C817D907A8F6DCCFBE01F70181917F01AA
:1045C0000E9465228C01D8CFA0E0B0E0EAEEF2E2D2
:1045D0000C945525782EB62EA72E6A0189010E94CB
:1045E000E6194C010431110518F10F3F100719F1BC
:1045F000C80164E170E00E943C25EB01BE01872DFB
:104600000E940A227C01892BC1F4CB2DDA2DCC0E1D
:10461000DD1ECC15DD0519F0E114F104C1F084E9CB
:104620008093BC00C701CDB7DEB7EDE00C947125D7
:10463000C1E0D0E0E3CFC5E0FCCF0F3F1007F1F2BF
:10464000C4010E94151A08171907C0F6DECFFE0133
:104650008491B8010E9465227C012196DACFA0E006
:10466000B0E0E5E3F3E20C945425682E962E5A014F
:10467000690178010E94E619782E892E043111050E
:1046800030F10F3F100731F1C80164E170E00E9482
:104690003C25162F072F612F702F862D0E940A228E
:1046A000EC01892BC9F0FFEFEF16FF06A1F3872D70
:1046B000982D0E94151AE816F90668F784E9809388
:1046C000BC00CE01CDB7DEB7EEE00C94702511E052
:1046D00000E0E1CF15E0FCCFB701892D0E946522F3
:1046E000EC018501CA0CDB1C0C151D0539F3209764
:1046F00029F7B701F80181918F010E946522EC0131
:10470000F3CF8EE14A9B02C08A95E1F74A9BFECF28
:1047100008955A9880E28A95F1F75A9A0895FC0113
:104720003BE03A95F1F798E020E080E031E040E1AD
:104730004A95F1F7880F4A9B02C08160232742E027
:104740004A95F1F7000040E14A95F1F79A9579F71B
:1047500090E19A95F1F799B132E03A95F1F70000BE
:1047600040E14A95F1F792FB992790F99227208131
:10477000920F90830895A1E0B0E0E1ECF3E20C9495
:104780005C2519828C017C01E60EF11C0E948123BC
:10479000CE0101960E948F23F80181938F01EE15BF
:1047A000FF05A1F781E09981911180E02196E6E073
:1047B0000C947825529A5A9A089552985A9AEA9ADD
:1047C000E9E6F0E080818F7C808308956150770B6B
:1047D00091E001C0990F6A95EAF7692F90E021E016
:1047E000611108C0911599F05A9A80E28A95F1F703
:1047F0005A980895362F3823311539F05A9A92274E
:1048000030E23A95F1F76695EBCF5A98F9CF5A987E
:10481000ECCFFF920F931F93CF93DF93EC018C01AA
:10482000060F111DF9900E94892368E08F2D0E94C8
:10483000E623C017D107B1F7CDB7DEB7E5E00C949A
:1048400079251F920F920FB60F9211240F931F9389
:104850002F933F934F935F936F937F938F939F9388
:10486000AF93BF93EF93FF93CF93DF930F92CDB7A7
:10487000DEB719820E948123CE0101960E948F2308
:10488000082F069506950695982F92959570202FDE
:104890002570920F292F237096959695920F982741
:1048A00097708981892B811509F05CC0053008F06B
:1048B00059C080E18A95F1F75A9A529A82E08A9516
:1048C000F1F700C05A9888E0089F80011124D801B0
:1048D000AD5EBE4F1696ED91FC9117973097A9F0FB
:1048E0006091C0017091C10114962D913C91159772
:1048F000260F371F11968D919C911297680F791F83
:1049000013964C9113978C910995F801ED5EFE4F2B
:104910006381611551F02091C0013091C101848102
:104920009581820F931F0E9409240E94892380E1B0
:104930008A95F1F75A9852985A9A80E18A95F1F738
:10494000F801ED5EFE4F6081611551F02091C001CC
:104950003091C10181819281820F931F0E94BB23FC
:104960000E9481230F90DF91CF91FF91EF91BF9132
:10497000AF919F918F917F916F915F914F913F91F7
:104980002F911F910F910F900FBE0F901F901895B0
:104990000F931F93CF93DF938C0105970CF064C0A6
:1049A000F894529A5A9885E08A95F1F70000C02F42
:1049B000C695C570802F8570C80F8C2F8370C695E3
:1049C000C69593E0000F111F9A95E1F7C80FC80133
:1049D0008C2BEC010E94892300C068E08C2F0E9480
:1049E000E62390E19A95F1F752985A9A4A9B35C07E
:1049F00087E090E04A9933C0F801ED5EFE4F638195
:104A0000611561F02091C0013091C10184819581CF
:104A1000820F931F0E94BB23811519F10E948123ED
:104A200080E28A95F1F75A98529A90E19A95F1F7B7
:104A3000F801ED5EFE4F6081611551F02091C001DB
:104A40003091C10181819281820F931F0E940924BC
:104A50000E948923789481E008C000C0C7CF0197E5
:104A600049F4529A5A9A789480E0DF91CF911F913D
:104A70000F91089500C0BECFAA1BBB1B51E107C018
:104A8000AA1FBB1FA617B70710F0A61BB70B881FDE
:104A9000991F5A95A9F780959095BC01CD0108956D
:104AA0002F923F924F925F926F927F928F929F923E
:104AB000AF92BF92CF92DF92EF92FF920F931F932C
:104AC000CF93DF93CDB7DEB7CA1BDB0B0FB6F894DD
:104AD000DEBF0FBECDBF09942A88398848885F841D
:104AE0006E847D848C849B84AA84B984C884DF808E
:104AF000EE80FD800C811B81AA81B981CE0FD11D72
:104B00000FB6F894DEBF0FBECDBFED010895992713
:104B100078E0880F991F961708F0961B881F7A95E2
:104B2000C9F78095089597FB072E16F4009407D0D7
:104B300077FD09D00E943C2507FC05D03EF49095F6
:104B400081959F4F0895709561957F4F0895A1E2DB
:104B50001A2EAA1BBB1BFD010DC0AA1FBB1FEE1FF7
:104B6000FF1FA217B307E407F50720F0A21BB30B42
:104B7000E40BF50B661F771F881F991F1A9469F7BE
:104B800060957095809590959B01AC01BD01CF011A
:104B90000895052E97FB1EF400940E94E02557FD12
:104BA00007D00E94A72507FC03D04EF40C94E02503
:104BB00050954095309521953F4F4F4F5F4F089549
:104BC00090958095709561957F4F8F4F9F4F089579
:104BD000EE0FFF1F0590F491E02D09940E9401262D
:104BE000A59F900DB49F900DA49F800D911D112441
:104BF0000895B7FF0C94EE250E94EE25821B930BBF
:104C00000895A29FB001B39FC001A39F700D811DA5
:104C10001124911DB29F700D811D1124911D0895C5
:104C2000FB01DC0102C005900D9241505040D8F7C5
:104C30000895FB01DC0104C08D910190801921F4DD
:104C400041505040C8F7881B990B0895FB01DC01C7
:104C500002C001900D9241505040D8F70895F99943
:104C6000FECF92BD81BDF89A992780B50895A8E13D
:104C7000B0E042E050E00C947326DC01A40FB51FB5
:104C80004150504048F0CB01840F951F2E910E9457
:104C90004E2641505040D0F70895262FF999FECF67
:104CA00092BD81BDF89A019700B4021639F01FBA7F
:104CB00020BD0FB6F894FA9AF99A0FBE089503969C
:104CC000272F0E944E260E944D26252F0E944E26F9
:104CD000242F0C944E260196272F0E944E260C94CA
:104CE0004D26DC01CB01FC01F999FECF06C0F2BDD7
:104CF000E1BDF89A319600B40D9241505040B8F79A
:104D00000895F894FFCFF11417151D1517151D15EB
:0A4D1000701592151D1590169D16E2
:104D1A0001D40AE80CFF0C160B060D010021007FD6
:104D2A00220003000000010000000000000004014E
:104D3A000000000405000000000000040900000053
:104D4A000000000000010020014C4159455200209A
:104D5A002020202020202020202020202020202049
:104D6A002020202020202020202020202020202039
:104D7A002020202020202020202020202020202029
:104D8A002020202020202020202020202020202019
:104D9A002020202020202020202020202020202009
:104DAA0020202020202020202020202020202020F9
:104DBA00202020202020202020202020200094664F
:104DCA0097C6F4F5F6F731330008101818100800E2
:104DDA00F204E200E900EA00B500B600B700CD002F
:104DEA008301CC008A019201940121022302240248
:104DFA002502260227022A02B300B4006F007000BF
:104E0A009F01CB019F02A002E200E900EA00B5007F
:104E1A00B600B700CD008301CC008A01920194014B
:104E2A002102230224022502260227022A02B300B3
:0E4E3A00B4006F0070009F01CB019F02A00228
:00000001FF
