:100000000C9472060C948F060C948F060C944F245B
:100010000C948F060C948F060C948F060C948F060C
:100020000C948F060C948F060C94381A0C94F419C7
:100030000C948F060C948F060C948F060C948F06EC
:100040000C948F060C940B1D0C948F060C948F0649
:100050000C948F060C942B1B0C948F060C948F061B
:100060000C948F060C948F060C948F060C948F06BC
:100070000C948F060C948F060C948F060C948F06AC
:100080000C948F060C948F060C948F060C948F069C
:100090000C948F060C948F060C948F060C948F068C
:1000A0000C948F060C948F060C948F062020202031
:1000B0006162636465666768696A6B6C6D6E6F70B8
:1000C0007172737475767778797A31323334353664
:1000D00037383930524542545F2D3D5B5D5C233BE0
:1000E00027602C2E2F202020290014001A00090040
:1000F000130005002B0004001600150017000A006D
:10010000E1001D000600070019001B0000000000B0
:100110000000E000417E2C002F0033001C0018007E
:100120000F000D002A0012000C0008001100100042
:10013000E5003800370036000B000E00000000001C
:100140000000E600427E28001E021F02200221025B
:1001500022022302141435002D142D002D02270233
:10016000E1007A007C004C007D007B000000000074
:100170000000E00001002C002602250255002600A8
:100180002500240031023402240223002200210031
:1001900031003400570020001F001E000000000046
:1001A00000006400010027003A003B003C003D00D5
:1001B0003E003F0040004100420043004400450033
:1001C000E1000000000074006500E3000000000092
:1001D0000000E00001004700000000004B0052005A
:1001E0004A004900000000004F00510050004C0040
:1001F000000000004E0000004D007E0000000000E6
:100200000000E60001003900000000000000460088
:10021000470048000000000000000000000000004F
:1002200000000000000000000000000000000000CE
:100230000000000000000000A900AA00A8000000C3
:1002400000000000217822782078000000000000E3
:10025000000000000000000000000000000000009E
:10026000000000000000000000DA0281FFD9F1DB8D
:1002700020A4A62EAF00A0C0D30000A1C8D30000C8
:10028000AED580A81F408D14200000000000E010B3
:100290000808C8B08080808080808040403C140482
:1002A0000890180408B0408000000000000001021F
:1002B000C4A4FC000000008000000000000000005A
:1002C0000080C858282A100F000000000000000E0F
:1002D00009040404040203020101020204081026B6
:1002E0002B320405060000000000000000E01010A2
:1002F000F0000000000000000080808078280810D6
:100300002030081020408000000000000003040896
:100310001011F901010101010100000000000000BD
:10032000000110B05055201F000000000000000028
:1003300000000001020C10202837021E2020180C9B
:10034000141E0100000000000000000000000080FA
:10035000402010909090A0C0808080700814089079
:10036000101008A4788000000000000000000007C2
:1003700008FC0100000000800000010000000000F7
:10038000000818EA100F0000000000000000000044
:1003900000031C20203C0F111F03061820203C0CDA
:1003A000121E01000000000000000000000000001C
:1003B0008040202020408000000000E01028102015
:1003C00020201048F0000000000000000000001F86
:1003D00020F80201010101010101030000000001F8
:1003E000001030D5201F00000000000000000000B9
:1003F000003F20300C020509121E021C14081020B8
:100400002C3201000000000000000000000000008D
:100410000000000000000000E01C020502240404AB
:1004200002A91EE000000000000000000000000023
:10043000E01008681008040300000000000000023B
:1004400006827C03000000000000000000000000A5
:100450000102040C1010202020283E1C20203E0FFA
:10046000111F00000000000000000000000000005C
:100470000000000000000000E01C0205022404044B
:1004800002A91EE00000000000000000000000E0E3
:10049000900818601008040300000000000000022B
:1004A0000E827C030000000000000000000000003D
:1004B0000102040C1010202020283E1C20203E0F9A
:1004C000111F0000000000000000000000000000FC
:1004D000804040404080000000000000C04040805C
:1004E00000804080000000000000000000001E218D
:1004F000F0040202020203020204040403010000E9
:1005000009018080AB04F80000000000000000003A
:10051000031C20203C0F111F020618202038081051
:1005200018040402020100000000000000000000A6
:10053000804040408000000000000000E0A020401B
:1005400080C02040800000000000000000003E410C
:10055000F00402020203020202040402010000008D
:100560000400404055827C000000000000000000B4
:100570003F20300C020509121E0418100810202814
:10058000340602010100000000004350534C4B00B0
:10059000556E6465660A0041646A73740A004C6FA4
:1005A0007765720A0052616973650A00426173657A
:1005B0000A00556E64656600434C4D414B000000D7
:1005C000000000000000000000BCBCBEBE00BEBEBB
:1005D000BFBFBFBF0000000000000000000000001F
:1005E00000000000000000000007070F0F000F0FC1
:1005F0001F1F1F1F0000000000000000000080817E
:1006000082838485868788898A8B8C8D8E8F909152
:10061000929394A0A1A2A3A4A5A6A7A8A9AAABACB3
:10062000ADAEAFB0B1B2B3B4C0C1C2C3C4C5C6C72A
:10063000C8C9CACBCCCDCECFD0D1D2D3D400000044
:10064000000000000000000000010204060A0F176D
:10065000202C3A4A5D71879DB3C7DAE9F5FCFFFCAF
:10066000F5E9DAC7B39D87715D4A3A2C20170F0A66
:10067000060402010000000000000000000000006D
:10068000000000003E5B4F5B3E003E6B4F6B3E0048
:100690001C3E7C3E1C00183C7E3C18001C577D57BD
:1006A0001C001C5E7F5E1C0000183C180000FFE769
:1006B000C3E7FF00001824180000FFE7DBE7FF0096
:1006C00030483A060E00262979292600407F050584
:1006D0000700407F05253F005A3CE73C5A007F3E1B
:1006E0001C1C0800081C1C3E7F0014227F221400E2
:1006F0005F5F005F5F0006097F017F0000668995EC
:100700006A0060606060600094A2FFA29400080428
:100710007E04080010207E20100008082A1C080013
:10072000081C2A0808001E10101010000C1E0C1EB9
:100730000C0030383E383000060E3E0E0600000039
:100740000000000000005F0000000007000700003C
:10075000147F147F1400242A7F2A120023130864B4
:100760006200364956205000000807030000001CB4
:10077000224100000041221C00002A1C7F1C2A008C
:1007800008083E08080000807030000008080808CB
:1007900008000000606000002010080402003E51C4
:1007A00049453E0000427F400000724949494600E9
:1007B0002141494D33001814127F1000274545454B
:1007C00039003C4A494931004121110907003649A5
:1007D00049493600464949291E000000140000001E
:1007E00000403400000000081422410014141414C6
:1007F00014000041221408000201590906003E417C
:100800005D594E007C1211127C007F494949360027
:100810003E41414122007F4141413E007F494949DB
:1008200041007F09090901003E41415173007F08E1
:1008300008087F0000417F4100002040413F010047
:100840007F08142241007F40404040007F021C028C
:100850007F007F0408107F003E4141413E007F0938
:10086000090906003E4151215E007F091929460011
:1008700026494949320003017F0103003F404040BF
:100880003F001F2040201F003F4038403F006314BE
:10089000081463000304780403006159494D4300C0
:1008A000007F414141000204081020000041414105
:1008B0007F00040201020400404040404000000369
:1008C000070800002054547840007F284444380032
:1008D000384444442800384444287F003854545451
:1008E000180000087E0902001824241C78007F08E4
:1008F0000404780000447D4000002040403D00009A
:100900007F102844000000417F4000007C047804F0
:1009100078007C08040478003844444438007C188B
:1009200024241800182424187C007C0804040800DF
:1009300048545454240004043F4424003C404020C4
:100940007C001C2040201C003C4030403C004428DF
:10095000102844004C9090907C004464544C440017
:100960000008364100000000770000000041360812
:1009700000000201020402003C2623263C00000085
:100980000000000000000000000000000000C0E0C7
:10099000F0F8F81800C0F0FCFEFFFFFFFFFFFFFFBC
:1009A0007E00000000000000000080C0E0E0E0E009
:1009B000E0E0E0E0C0800000000080C0E0E0E0E0B7
:1009C000E0E0E0E0C080000000E0E0C0C0E0E0E087
:1009D000E00000E0E0C0C0E0E0E0E0E0C080000057
:1009E000000080C0E0E0E0E0E0E0E0E0C080000087
:1009F000000000000000000000000000E0F0F0F047
:100A0000E0ECEEF7F37020007C7C7C7E007E7E7E46
:100A10007F7F7F000080C0E07E5B4F5BFEC00000F8
:100A2000C000DCD7DEDEDED7DC00C0000000000046
:100A300000000000000000000000000000000000B6
:100A400000000000000000F8FCFEFFE000FFFFFFD8
:100A5000FFFFFF80FFFFFFFFFFFFFFFFFF1F0701FB
:100A6000000000000000000000FFFFFF8100000008
:100A700000000081C3C3C30000FFFFFF810000002E
:100A800000000081FFFFFF0000FFFFFF01000000EA
:100A9000000000FFFFFF010000000001FFFFFF005A
:100AA00000FFFFFF9D1C1C1C1C1C1C9DDFDFDF00CA
:100AB0000000000000000000000000000F1F3F7F4A
:100AC0007F7F7F7F3F1E0C001F1F1F3F003F3F3F68
:100AD0007F7F7F00307B7F7830202030787F3B0025
:100AE00003000F7F0F0F0F7F0F00030000000000B7
:100AF00000000000000000000000000000000000F6
:100B000000000000000000030F1F3F3F3F3F1F1F7A
:100B10003F3F7F7F7F3F3F1F3F7F7F7F7F7C787896
:100B2000381C0F0000000000000001030707070742
:100B30000707070703010000000001030707070775
:100B40000707070703010000000707070000000070
:100B5000000000070707000000000000070707006B
:100B60000000010307070707070707070301000045
:100B70000000000000000000000000000000000075
:100B80000000000000000000000000000000000065
:100B90000000000000000000000000000000000055
:100BA0000000000000000000000000000000000045
:100BB000000000000000000000000000000000AF86
:100BC00000AE05010980A101850319012AB70015AE
:100BD0000126B700950175108100C0050C0901A11F
:100BE00001850419012AA002150126A002950175AC
:100BF000108100C005010906A1018506050719E05D
:100C000029E71500250195087501810205071900DE
:100C100029EF1500250195F07501810205081901DC
:100C20002905950575019102950175039101C0058E
:100C3000010906A101050719E029E715002501951D
:100C400008750181029501750881010507190029C0
:100C5000FF150026FF00950675088100050819019B
:100C6000290515002501950575019102950175036A
:100C70009101C009023B00020100A0FA0904000032
:100C800001030101000921110100012244000705AF
:100C9000810308000109040100010300000009218B
:100CA00011010001226D00070582032000011201DD
:100CB000000200000008534601000100010200018B
:100CC0000C0343006F0072006E006500000010030B
:100CD00066006F006F007300740061006E0000001A
:100CE0000403090411241FBECFEFDAE0DEBFCDBF3D
:100CF00011E0A0E0B1E0E0E9FDE402C005900D9252
:100D0000AC3FB107D9F725E0ACEFB1E001C01D92CF
:100D1000A939B207E1F70E943A1D0C94B0260C9451
:100D20000000482F2091970590915E0557E0291308
:100D300002C080E0089530E0529FF001539FF00D13
:100D40001124E15AFA4F8181681306C0808148134B
:100D500003C085818111EECF2F5F3F4F2770E7CF12
:100D6000FC01AC014C5F5F4F8FEF91E32191822733
:100D700028E030E087FF09C0880F8927215031091A
:100D8000C9F7E417F50791F70895880FF7CFE8ED55
:100D9000F0E080818E7F80831092E2001092DA0072
:100DA0001092E100A0EEB0E08C9181608C93808184
:100DB0008F77808319BCA7EDB0E08C918E7F8C93E8
:100DC00080818F7E80831092480508952091E400F1
:100DD0003091E50095E6A9012091EC00822F817009
:100DE00020FF06C08091E80080FF06C080E00895E3
:100DF0002091E80022FD1AC080915405882389F0D3
:100E0000853089F08091EB0085FD0FC02091E400D2
:100E10003091E50042175307F9F29150E1F684E072
:100E2000089582E0089583E0089581E00895809117
:100E3000560587FF13C08091E80082FF06C08091AD
:100E4000E8008B778093E80004C0809154058111FD
:100E5000F2CF0895809154058823D9F38091E8005A
:100E600080FFF8CF8091E8008E77ECCF982F909399
:100E7000E900242F762F50E0891731F07091EC00B3
:100E80002091ED005091F00021FD07C09F5F973049
:100E900071F78093E90081E008953091EB003E7F87
:100EA0003093EB003091ED003D7F3093ED003091B9
:100EB000EB0031603093EB007093EC002093ED0079
:100EC0005093F0002091EE0027FDE0CF80E00895E0
:100ED000B0E0A0E0EEE6F7E00C948925C8EDD0E0A4
:100EE00088818F7E8883E7EDF0E080818160808358
:100EF00084E082BF81E08093480588818E7F88836B
:100F000002EE10E0F80110821092DA0081EEC82E95
:100F1000D12CF601108288818F7788838881806840
:100F2000888388818F7D888319BC10925405109224
:100F30005505109253051092520590EEE92EF12CB2
:100F4000F70180818B7F808388818160888342E084
:100F500060E080E00E943607F60180818E7F80830A
:100F6000F801808181608083808188608083F701BF
:100F700080818E7F8083888180618883CDB7DEB752
:100F8000E8E00C94A525FC0180915C0590915D053D
:100F900086179707A0F06115710529F49091E80074
:100FA0009E779093E80090E06115710551F49111DE
:100FB00008C08091E80082FF34C080E00895BC0141
:100FC000F2CF809154058823C1F18530C1F1809121
:100FD000E80083FD30C08091E80082FDEACF809177
:100FE000E80080FFE1CF8091F3002091F200382FDC
:100FF0006115710519F02830310558F091E028305D
:10100000310509F090E02091E8002E772093E80068
:10101000CBCF81918093F100615071092F5F3F4FD9
:10102000E7CF80915405882341F0853041F08091CD
:10103000E80083FFBECF81E0089582E0089583E059
:101040000895089587E797E7909301088093000833
:1010500088E19AE00FB6F894A895809360000FBEDF
:1010600090936000FFCF2FB7F89460914405709182
:10107000450580914605909147052FBF08958091C1
:1010800036010895909137019130D1F49091420545
:1010900097FF16C0E82FE695E695E695EE31E0F469
:1010A000F0E0EA5FFD4F282F277081E090E001C05B
:1010B000880F2A95EAF78095928189238283089583
:1010C000E0E0F2E09191891303C0DF0111971C92D7
:1010D00092E0E630F907B1F70895A3E0B0E0E3E766
:1010E000F8E00C948F252091400530914105281798
:1010F0003907A1F09093410580934005E0913E05AA
:10110000F0913F05309751F024E029839B838A8337
:101110000084F185E02DCE01019609952396E2E049
:101120000C94AB25A3E0B0E0E8E9F8E00C948F253F
:1011300020913C0530913D0528173907A1F0909387
:101140003D0580933C05E0913E05F0913F053097C9
:1011500051F023E029839B838A830084F185E02D6D
:10116000CE01019609952396E2E00C94AB2580917F
:101170003A05882359F0E0913E05F0913F053097FC
:1011800029F00190F081E02D0995089580E00895FF
:10119000CF93DF93209132053091330522533340B2
:1011A000A901460F571F4130524020F060E072E025
:1011B000621B730B4091300350913103FC01C90154
:1011C000620F731FC1E0D0E08617970738F0509385
:1011D000310340933003DF91CF9108952491DC01D6
:1011E000AE5CBC4F3C91321781F02C939C01A5E082
:1011F00036952795AA95E1F7DE0102C0AA0FBB1F1D
:101200002A95E2F79D014A2B532B01963196DCCFAC
:101210002091290336E0839FC0011124629F800D35
:10122000911D1124811522E0920714F090E080E0D6
:101230008E5C9C4F9093330580933205089580E037
:101240000895F894E82FE295EF70F0E031A1282F8F
:101250002F7081E090E001C0880F2A95EAF7982F5F
:101260009095932391A392A1892B82A378940895BA
:101270000F931F9380913A05882329F00E94330829
:101280001F910F9108950E943308009192021091CE
:1012900093022091940230919502600F711F821F7A
:1012A000931FEECF9091420592FF10C041E0282F8E
:1012B0002471243009F040E031E0282F28712830D3
:1012C00009F030E0431711F02CE0822793FF10C0A3
:1012D00041E0282F2471243109F040E031E0282F2B
:1012E0002871283109F030E0431711F02CE08227F3
:1012F0003091430530FF10C051E0282F217121307B
:1013000009F050E041E0282F2871283009F040E032
:10131000541711F029E0822731FF10C041E0282F37
:101320002171213109F040E031E0282F2871283166
:1013300009F030E0431711F029E0822794FD877E01
:10134000089582389105B9F1B0F48133910509F41B
:101350007DC048F48932910509F46DC08A32910547
:1013600009F47BC008958533910509F45FC0893382
:10137000910509F10895833E9105D9F138F4803E35
:10138000910529F1823E910579F10895863E9105F6
:10139000D9F1873E910509F43EC0843E910541F59F
:1013A0002091430521FF24C08091420584FD19C08E
:1013B00087EE90E0089520914205237009F05AC00D
:1013C0002091430523FF14C089E290E00895209105
:1013D000420520FD38C03091430530FF09C024FF8D
:1013E00043C090E080E008952091420522FDF7CFB0
:1013F00008952091420522FD3AC03091430530FD09
:1014000039C024FFF5CFEDCF2091420523FFF0CF67
:1014100024FDE7CFCDCF2091420523FD2EC0309192
:10142000430531FFEECF84EE90E008952091420510
:1014300025FFDECFC9CF2091420525FD21C0209197
:10144000430523FFD5CF89E390E0D2CF2091420519
:1014500026FFCECF8AE290E008952091420526FF34
:10146000C7CF81E390E0089583EE90E0089582EE87
:1014700090E0089580EE90E0089586EE90E0089563
:1014800085E390E00895972F7830B8F46630A8F49B
:101490008430B0F470E026E0929F600D711D11243D
:1014A000FB0190E3899FE00DF11D1124EE0FFF1F5A
:1014B000E851FF4F85919491089580E090E0089560
:1014C00081E0FCCF1F93CF93DF930E94A109EC0131
:1014D000C11580E5D807F0F5C11580E4D80708F0FC
:1014E000AAC0C03ED10520F5CD3CD10508F090C082
:1014F000C83AD10578F4C53AD10508F081C0C130A9
:10150000D10519F1209709F1C430D105F0F4D0E0EC
:10151000C0E01BC0C33CD105D0F7C85AD0E0CC0F07
:10152000DD1FCF54DE4F0990D881C02DD4640DC08B
:10153000C11580E2D80708F0C9C0C11581E0D807FD
:1015400008F068C0C83ED10510F7CE01DF91CF91F9
:101550001F910895C03682E5D80718F5C03482E59A
:10156000D80708F079C0C03282E5D80708F06DC00E
:10157000C11582E5D80708F48FC02C2F2695269533
:1015800080E2289F900111248C2F8370C1E0D0E06D
:1015900002C0CC0FDD1F8A95E2F7C22BD32BDD688A
:1015A000D4CFC03C82E5D807F8F4C03A82E5D8072A
:1015B00008F067C0C03882E5D80708F0A8CF2C2F04
:1015C00026952695277080E2289F900111248C2F64
:1015D0008370C1E0D0E002C0CC0FDD1F8A95E2F736
:1015E000C22BD32BDA68B1CFC03E82E5D80708F012
:1015F0008ECFDC2FCC27CC27DF71C06FD06AA5CF70
:10160000C55AD0E0C255DE4FC881D0E0D0649DCF2E
:10161000D0659BCF8D2F0E945209182FCE0199279C
:101620000E94A109C12FD0E0DC2FCC27CC27DF718D
:10163000C82BD92B8ACFCE0199270E94A109CC278C
:10164000DF70C82BD92BD06A80CFCF71D0E0DC2FD0
:10165000CC27C16FD06A79CF2C2F2695269527707D
:1016600080E2289F900111248C2F8370C1E0D0E08C
:1016700002C0CC0FDD1F8A95E2F7C22BD32BDC68AA
:1016800064CF8C2F8F710E945209C82FD0E0DC2FBD
:10169000CC27CC27DF7159CF8C2F8F710E94520934
:1016A00055E0D695C7955A95E1F7CF70D0E0DC2F7D
:1016B000CC27282F30E084FF05C044E0220F331FE1
:1016C0004A95E1F7C22BD32BD0693FCF8D2F8F7175
:1016D0000E945209182FCE0199270E94A109C12FFB
:1016E000D0E0DC2FCC27CC27DF71C82BD92BD062E0
:1016F0002CCF8091970590915E05981301C00895B5
:101700008F5F8770FACFCF92DF92FF920F931F9374
:10171000CF93DF936C01009198058091FA02082B1A
:10172000C7E0D0E010E0FC2EC8010C2E02C0959559
:1017300087950A94E2F780FD0CC02197A0F7F12C61
:101740008F2DDF91CF911F910F91FF90DF90CF9060
:101750000895B6018C2F0E94430A0E94620A0197E5
:1017600061F3EECFCF93DF93EC010E94830BBE01B8
:101770000E94430A0E94620ADF91CF910895292FA7
:10178000983078F5863068F590E036E0239F800D3C
:10179000911D1124682F677023E0969587952A95EF
:1017A000E1F7FC01EE0FFF1FE80FF91FEA5DFD4FA7
:1017B00050E040E080E0219130E0062E02C03695F6
:1017C00027950A94E2F721703327042E01C0220FD7
:1017D0000A94EAF7822B4F5F5F4F4330510559F768
:1017E000089580E00895292F983098F5863088F57F
:1017F00090E036E0239F800D911D1124282F277043
:1018000041E001C0440F2A95EAF723E096958795B9
:101810002A95E1F7FC01EE0FFF1FE80FF91FEA5DC3
:10182000FD4F30E020E070E05191DF011197CB01D6
:10183000022E02C0969587950A94E2F781708195F1
:101840008527842385278C932F5F3F4F23303105D5
:1018500059F7089580939805089580919805982FD9
:101860009670963021F488600E942A0C0895877F34
:10187000FBCF21E030E001C0220F8A95EAF72095E6
:101880008091980582230E942A0C089521E030E07F
:1018900001C0220F8A95EAF780919805822B0E9459
:1018A0002A0C08958093FA020895FC0124812223D2
:1018B000C1F0808191810E94B20B92959F70963009
:1018C00091F058F4925F9F70923058F4803F19F075
:1018D00030F4883E30F481E008959A5FF4CF843F7D
:1018E000D1F380E00895883EB0F3813FD1F7F3CF84
:1018F000982F92959F7011F0892F94E0282F2695AC
:10190000269511F09E5F822F869509F09F5F892FA3
:101910000895A6E0B0E0EFE8FCE00C948E2526E008
:10192000FC01DE01119601900D922A95E1F7FC0170
:10193000258189819A81222399F0662389F00E946A
:10194000830B182F682F89819A810E94F30B69817C
:101950007A81812F0E94430A2696E3E00C94AA25FF
:101960000E94BF0B182FF3CF0F931F93CF93DF93DA
:101970008B01EA0190915405943061F58093E90060
:101980008FEF9091E800815095FD06C095ED9A95F6
:10199000F1F700008111F5CF8091E80085FF1AC0B2
:1019A0000E94E606811111C08091E80085FD06C005
:1019B0008091E8008E778093E800F2CFF801819162
:1019C0008F018093F100219779F78091E8008E775D
:1019D0008093E800DF91CF911F910F91089543E02C
:1019E00050E0BC0182E00E94B40C089540E250E057
:1019F000BC0182E00E94B40C0895CF93DF93EC0108
:101A000048E050E0BC0181E00E94B40C88E0FE0197
:101A1000AAE4B5E001900D928A95E1F7DF91CF91AC
:101A20000895B0E0A0E0E7E1FDE00C9487257C019B
:101A30005B016A018091910201E010E08A3010F4AC
:101A40000AE010E0C1E0D0E0B501C701F601099558
:101A5000811104C021960C171D072CF4CDB7DEB7F9
:101A6000EAE00C94A325CC9F9001CD9F300D300D62
:101A7000112490E080E045E34A95F1F700000196DB
:101A800082179307C1F7E0CF8091490590915F02DB
:101A9000892B90913701913049F59091420597FF3C
:101AA00025C08093070240E250E06FE372E086E0D9
:101AB00092E00E944826892BC1F080E2E6E0F2E045
:101AC000AFE3B2E001900D928A95E1F7E0913E0517
:101AD000F0913F05309749F086E08093060204803C
:101AE000F581E02D86E092E0099508958093FE014E
:101AF00048E050E060E672E08EEF91E00E944826F8
:101B0000892B99F388E0EEEFF1E0A0E6B2E00190D6
:101B10000D928A95E1F7E0913E05F0913F053097EF
:101B200021F30280F381E02D8EEF91E0DDCF882359
:101B300041F08095909149058923809349050E9441
:101B4000440D0895882339F090914905982B90937E
:101B500049050E94440D0895882371F19CEF980F68
:101B6000913A28F40E9442080E94440D089590E2A0
:101B7000980F983088F4877021E030E0A90102C006
:101B8000440F551F8A95E2F7CA0180959091490547
:101B9000892380934905E8CF9BE5980F933028F47B
:101BA00090E080E00E9492080895885A8B3120F4DA
:101BB00090E080E00E946D080895CF93C82F88239D
:101BC00009F450C08CEF8C0F813A08F065C0809109
:101BD0003701813001F58091420587FF1CC0EC2F51
:101BE000E695E695E695F0E0EA5FFD4F828190E0AC
:101BF0004C2F477021E030E002C0220F331F4A957E
:101C0000E2F782239323892BB9F08C2F0E9442089C
:101C10000E94440D09C0E0E0F2E08191C817A9F3E9
:101C200082E0E630F807C9F7809137018130E1F4AE
:101C30008091420587FF18C0AC2FA695A695A69562
:101C4000B0E0AA5FBD4FC77021E030E001C0220FB5
:101C5000CA95EAF712968C911297822B12968C9362
:101C60000E94440DCF910895A0E0B2E0EFEF80E034
:101C70009D91C917A9F3EF3F19F4911101C0E82F05
:101C80008F5F8630A9F7EF3F59F30E2E000CFF0B44
:101C9000E250FE4FC283E4CF80E28C0F883068F4BC
:101CA000C77021E030E001C0220FCA95EAF78091A9
:101CB0004905822B80934905D3CFEBE5EC0FE33048
:101CC00040F4F0E0E255FE4F808190E00E949208DF
:101CD000C9CFC85ACB3130F6EC2FF0E0EE0FFF1F22
:101CE000EF54FE4F808191810E946D08BBCF1F93FE
:101CF000CF93DF93162F8A3039F481E00E94330F9F
:101D0000DF91CF911F9108958D3011F480E0F6CFCF
:101D1000C0913205D091330596E0FE01AAE2B3E00E
:101D200001900D929A95E1F7803E90F186E0FE01D8
:101D300011928A95E9F7C0913205D09133051111BE
:101D400033C046E050E0BE018AE293E00E9448269C
:101D50009E0122533340892B91F52A5F3F4F4091DA
:101D60002903642F70E0C9010E946B25481B46308F
:101D700010F4240F311D211572E0370710F030E008
:101D800020E02E5C3C4F3093330520933205B8CFD2
:101D9000F6E08F9FB00111246258794F46E050E081
:101DA000CE010E943F26C7CF9E012A5F3F4FFE0112
:101DB0002E173F0731F2808180958193F9CFC901B9
:101DC00045E0969587954A95E1F741E050E0BA01E4
:101DD00002C0660F771F8A95E2F7CB01609130034E
:101DE00070913103862B972BB9016B5F7F4FE5E034
:101DF00076956795EA95E1F702C0440F551F6A95FD
:101E0000E2F7842B952B9093310380933003A5CF79
:101E10000F931F93CF93DF93EC01FC0101900020FF
:101E2000E9F78F0101501109C017D10728F0DF91A0
:101E3000CF911F910F91089560E089910E94770ED4
:101E4000F3CF1F93CF93DF93EC01162FFE01849104
:101E5000811104C0DF91CF911F910895612F0E94DD
:101E6000770E2196F3CFCF93382FE0913205F09182
:101E70003305E253F34020912903622F70E0CF0134
:101E80000E946B25281B822F332369F066E00E9495
:101E9000B625C82FC15010F4CF91089560E080E2BC
:101EA0000E94770EF7CF9F01280F311D2115324078
:101EB00018F080E0F0E0E0E08E0F9F2F911D8E5C27
:101EC0009C4F9093330580933205E6CF0E94210FFB
:101ED00081E00E94330F0895809137018130C1F471
:101EE0008091420587FF14C0E8E0F2E08EE1DF0157
:101EF0001D928A95E9F790E080E00E94920890E0B8
:101F000080E00E946D0810925F020E94440D0895C7
:101F1000E0E0F2E086E0EBCFAAE2B0E0E2E9FFE049
:101F20000C948E2586E595E02091F100FC0121932B
:101F3000CF01F5E08E359F07B9F7809157058330C3
:101F400009F470C0B8F4813009F447C0823009F454
:101F5000B7C08091E80083FF8BC2809156059091B5
:101F600057059A3008F084C2E92FF0E0EE54F94D9D
:101F70000C9417268A3009F492C08B3009F46FC094
:101F8000893039F780915605813219F780915A05C9
:101F900090915B050297E8F68091E800877F809337
:101FA000E8008091E80082FF38C09091F3008091B2
:101FB000F200029731F48091F100813011F0863007
:101FC00021F48091F100809336018091E8008B77B5
:101FD0008093E8000E941707BCCF80915605813A94
:101FE00009F0B7CF8091E800877F8093E800809167
:101FF0005A0590915B05892B61F468E08AE495E0CD
:1020000070E00E94C3078091E8008B778093E8001E
:10201000A0CF60E090E080E0F3CF80915405811183
:10202000C0CF97CF80915605813A09F092CF809129
:102030005A0590915B05892B09F08BCF8091E800C0
:10204000877F8093E8008091E80080FFFCCF80913B
:1020500037018093F1008091E8008E77B9CF8091AD
:102060005605813209F075CF80915A0590915B0534
:10207000892B09F06ECF8091E800877F8093E8007C
:102080000E94170781E090915805911101C080E0EE
:1020900080933701109249050E946C0F5ACF8091AE
:1020A0005605813209F055CF8091E800877F8093F3
:1020B000E8000E941707809159058093350149CFA8
:1020C00080915605813A09F044CF8091E800877FDE
:1020D0008093E8008091E80080FFFCCF809135017B
:1020E000B8CF803899F0823809F0C2C180915A0582
:1020F0008F70873008F0BCC18093E9008091EB00BD
:1021000085FB882780F91092E90006C0809152056E
:1021100090915305911182609091E800977F909380
:10212000E8008093F1001092F1008091E8008E7732
:102130009BC1882309F489C1823009F099C180913B
:10214000580581118CC180915A058F702FEF280F8F
:10215000263008F08DC18093E9002091EB0020FF2C
:102160007EC1933031F48091EB0080628093EB006C
:1021700076C19091EB0090619093EB0021E030E00C
:1021800001C0220F8A95EAF72093EA001092EA0034
:102190008091EB008860EACF81116AC110915805E7
:1021A0001F778091E3008078812B8093E3008091FA
:1021B000E800877F8093E8000E9417078091E8007D
:1021C00080FFFCCF8091E30080688093E30082E091
:1021D000111183E0809354054BC18058823008F080
:1021E00047C180915805909159058C3D23E0920795
:1021F000A1F583E08A838AE289834FB7F894DE01F0
:10220000139620E03EE051E2E32FF0E050935700B8
:10221000E49120FF03C0E295EF703F5FEF708E2FD7
:1022200090E0EA30C0F0C7968D939D932F5F2431E4
:1022300059F74FBF8091E800877F8093E8006AE2FA
:1022400070E0CE0101960E94C3078091E8008B7771
:102250008093E8000DC1C096E7CF40915A05509198
:102260005B05292F33272330310509F444C078F565
:102270002130310509F46FC08BE390E0E3E7FCE027
:102280002230310509F0F4C02091E800277F209327
:10229000E80020915C0530915D058217930708F4F2
:1022A0009C0140E02115310509F064C0411162C074
:1022B0008091E80082FDC9CF80915405882329F2DE
:1022C000853019F28091E80083FFF2CFBECF213232
:1022D0003105A9F12232310509F0CAC04115510575
:1022E00009F443C04130510509F0C2C08DE690E0C9
:1022F000E2ECFBE0C9CF992781309105C1F000974E
:1023000059F0029709F0B4C0E0ECFCE0E4918E2FA4
:1023100090E0E0ECFCE007C0E0EEFCE0E4918E2F02
:1023200090E0E0EEFCE0009709F4A2C0ADCFEEEC47
:10233000FCE0E4918E2F90E0EEECFCE0F4CF411550
:10234000510571F04130510509F092C089E090E0EB
:10235000EEE9FCE099CF82E190E0EEEAFCE094CF78
:1023600089E090E0E5E8FCE08FCF84E490E0EFE2E4
:10237000FCE08ACF80915405882309F466CF85302C
:1023800009F463CF8091E80083FD5FCF8091E8007E
:1023900082FD8ECF8091E80080FF84CF9091F30082
:1023A0008091F2002115310519F08830910550F027
:1023B00041E0089709F040E08091E8008E77809333
:1023C000E80070CF44914093F100319621503109DB
:1023D0000196E8CF803809F04BC08091E800877FF4
:1023E0008093E800809155058093F1009ECE811185
:1023F0003FC0109158051230D8F58091E800877FD2
:102400008093E800109355050E941707112311F0DF
:1024100084E005C08091E30087FDFACF81E08093DE
:10242000540542E061EC81E00E94360742E261EC33
:1024300082E00E94360780915405843021F081E0CB
:102440008093380115C082E0FBCF80915805813020
:1024500079F481E0933009F080E080935305109285
:10246000E9008091E800877F8093E8000E941707C9
:102470008091E80083FF0AC08091E800877F809305
:10248000E8008091EB0080628093EB00AA96E3E085
:102490000C94AA25109249050E946C0F2FEF84E33B
:1024A0009CE0215080409040E1F700C0000088E1AE
:1024B0009AE00FB6F894A895809360000FBE9093B1
:1024C0006000FFCFAB0124E630E0BC0188E70E944A
:1024D0001F2321E0892B09F020E0822F08958091AD
:1024E000380590913905911103C091E0892708952D
:1024F000882369F062E070E080EC9BE00E94621249
:10250000811103C08091380508951092380580919B
:102510003805EBCFCF93C0913805809139058823DA
:10252000D1F00E943308605A75418F4F9F4F6093DE
:102530003405709335058093360590933705C111A6
:1025400008C062E070E08EEB9BE00E946212811195
:1025500005C0C09138058C2FCF91089581E08093FC
:102560003805F7CFCF92DF92EF92FF921F93CF9370
:10257000DF9300D000D0CDB7DEB7C0908D02D090F1
:102580008E02E0908F02F09090020E9433086C1946
:102590007D098E099F0911E0643671058105910559
:1025A00070F10E9438096E5F7F4F8F4F9F4F698394
:1025B0007A838B839C838091190190911A018058B2
:1025C0009D4F4091180150E04530510510F044E016
:1025D00050E0BE016F5F7F4F0E94552683E090E080
:1025E0000E94F524182F882351F00E94330860932D
:1025F0008D0270938E0280938F0290939002812FB0
:102600000F900F900F900F90DF91CF911F91FF903F
:10261000EF90DF90CF900895B0E0A0E0E2E1F3E129
:102620000C948925EC0144E050E065E872E00E94DA
:1026300048268C01C0907C02D0907D02E0907E0202
:10264000F0907F020E9433086C197D098E099F0962
:10265000643671058105910518F40115110541F1E4
:10266000809111019091120180589D4F409110016D
:1026700050E04530510510F044E050E0BE010E94AA
:10268000552682E090E00E94F524C82F882351F05F
:102690000E94330860937C0270937D0280937E02D7
:1026A00090937F028C2FCDB7DEB7E8E00C94A52580
:1026B000C1E0F8CF8F929F92AF92BF92EF92FF92BC
:1026C0001F93CF93DF9300D000D00F92CDB7DEB72A
:1026D0007B0190E080E00E94F524182F882309F404
:1026E00082C04091030150E04115510511F041E0D5
:1026F00050E0609104017091050160587D4FCE015A
:1027000005960E9455268090780290907902A090BC
:102710007A02B0907B020E943308681979098A090D
:102720009B09643671058105910540F481E892E0CA
:102730000E94B0069D81891709F455C081E090E0A0
:102740000E94F52481111EC010E0809174029091C6
:102750007502A0917602B0917702F7018083918390
:10276000A283B383812F0F900F900F900F900F9043
:10277000DF91CF911F91FF90EF90BF90AF909F900E
:102780008F90089540910B0150E04530510510F0B5
:1027900044E050E060910C0170910D0160587D4F54
:1027A000CE0101960E94552681E892E00E94B00673
:1027B0009D818913C9CF0E9433086093780270937A
:1027C000790280937A0290937B0289819A81AB810E
:1027D000BC818093740290937502A0937602B093AB
:1027E000770211E0B2CF8091810290918202A09194
:1027F0008302B091840289839A83AB83BC831111D5
:10280000E4CFA3CFA8E0B0E0E8E0F4E10C948F259A
:1028100065EE7EEF90E080E00E949A2660E082E024
:1028200090E00E947C2681E08093FA0261E083E0E0
:1028300090E00E947C2660E074E184E090E00E94D9
:102840009A2660E086E090E00E947C2660E087E0C7
:1028500090E00E947C2640E050E0BA0188E090E0E1
:102860000E948E2660E083E290E00E947C2660E079
:102870008CE090E00E947C2660E08DE090E00E9479
:102880007C2619821A821B821C821D821E821F8254
:10289000188648E050E067E170E0CE0101960E94A2
:1028A0006C2640E050E0BA018FE190E00E948E2655
:1028B00040E050E0BA018FE090E00E948E2640E0B8
:1028C00050E0BA0183E190E00E948E262896E2E073
:1028D0000C94AB25B0E0A0E0E0E7F4E10C948A258D
:1028E0008C01FC018481882309F48CC061E0C8015B
:1028F0000E94890CF801C581CC2309F486C2AC0181
:102900005A959C0133274115FFE45F0738F030E00A
:1029100020E08F3F910509F008F49C01B901645053
:1029200071096432710528F02B5231092E303105BE
:1029300088F4E091B702F0E0EE0FFF1FE454FD4F82
:10294000208131812F3F6FE7360721F02F5F3F4F06
:1029500031832083F801218120930003208120937B
:10296000FF0220E220932D019093FE028093FD024E
:102970009C0130522115304268F09C0130542115E1
:10298000304168F5F8012681207F49F441155F4107
:1029900030F02EC0F8012681207F09F467C0FC01C9
:1029A000FF27ED33F10508F090C2E455FF4FE491A5
:1029B000E0932D01803E910509F453C008F05DC2FB
:1029C0008B37910509F440C008F09BC28C32910509
:1029D00009F465C08A37910509F48CC247C04115D6
:1029E0005F41E8F29C01205A32452032310510F354
:1029F000FC01D7CF81E0C1110DC081E00E94390CEC
:102A00000E942D0CCDB7DEB7E7E00C94A625CC23B1
:102A100021F082E00E94460CF3CF82E0EFCF81E00C
:102A20000E945209CC2331F00E94A20D86E00E9440
:102A3000DD0DE8CF0E94970D86E00E94AC0DE2CF3D
:102A40000E94970D89E1F9CF81E00E945209CC23C1
:102A500021F00E94A20D8BE1EACF0E94970D8BE13D
:102A6000ECCFCC23C9F021E02093EF029C01205E43
:102A7000324520323105E0F4C1113EC08F71C1E012
:102A8000D0E001C0CC0F8A95EAF76C2F83E090E08C
:102A90000E947C268C2F06C21092EF02E7CF21E025
:102AA0002093F10210922C01E1CF1092F102DECFBF
:102AB000CC2311F181302CE79207E1F083304CE711
:102AC000940791F081159C47B9F4109249050E9432
:102AD0006C0F8FEF94E3ECE081509040E040E1F721
:102AE00000C000000E9422086FEF7FEF90E080E0BE
:102AF0000E949A260E944A12F801E080F180C701E4
:102B0000CC2301F10E94830BC82F682FC7010E94BC
:102B1000F30BB7018C2F0E94430A0E94620AC82F50
:102B2000D82EF8012581368132953F70892F829504
:102B30008F70E82EF12C8C30E0F5F701E454F94D5C
:102B40000C9417260E94BF0BC82FE3CFD92FDF703C
:102B5000907F11F0D295D07F8C2F2223C9F0DD23F6
:102B600069F090E29C0F983010F0C1110BC0809179
:102B70004905D82BD09349050E94440D8C2F0E9403
:102B8000DD0D17C080915F02D82BD0935F02F4CF88
:102B90000E94AC0DDD2369F0D095C05EC83010F006
:102BA000D11015C080914905D823D09349050E94C2
:102BB000440DF8E0EF1AF10824E0E216F10410F4F5
:102BC0000E94B70860E0C8010E94890C1BCF809169
:102BD0005F02D823D0935F02EACF892F8F70907F56
:102BE000903211F08295807FF1E0DF120CC0222339
:102BF00029F03630F0F60E94A20DDBCF3530C8F652
:102C00000E94970DD6CF222319F03323A1F3B6CF1C
:102C10003323B1F3C93349F42FEF47EE63E021507A
:102C200040406040E1F700C000008C2F0E94AC0DD6
:102C3000C0CF892F86958695837061F0813009F029
:102C4000B8CF8C2F9370211102C080E090E00E94D9
:102C50006D08AFCF8C2F9370211102C080E090E0FF
:102C60000E949208A6CF892F8370A1F52111A1CFD0
:102C70008C2F829586958770880F880F4C2F4F7008
:102C8000082E01C0440F0A94EAF72C2F2071C4FFCC
:102C900007C02FE030E001C0220F8A95EAF72095A7
:102CA000969596959370923081F0822F842B933075
:102CB00030F48091FA02913029F0242B82230E9473
:102CC000520C77CF842B822BFACF242B8091FA02DF
:102CD0008227F5CF8695222311F0892F81708823D2
:102CE00009F467CF8C2F829586958770880F880F9F
:102CF0004C2F4F70082E01C0440F0A94EAF72C2F76
:102D00002071C4FF07C02FE030E001C0220F8A9578
:102D1000EAF72095969596959370923081F0822FE0
:102D2000842B933030F480919805913029F0242B36
:102D300082230E942A0C3DCF842B822BFACF242B96
:102D4000809198058227F5CFD92FDF70222329F0B3
:102D50008D2F0E94460C8C2F4ECF8C2F0E94970DEA
:102D60008D2F0E94390C25CF8C2FE1EFCE1789F1E2
:102D7000EC1750F0F0EFCF17B9F02223B1F1311179
:102D8000FDCE892F8F7129C042EFC41749F163EF3F
:102D9000C613F3CF80E0222361F29F7181E001C06E
:102DA000880F9A95EAF7C5CF222379F0353008F0DD
:102DB00000CF292F2F7181E090E001C0880F2A9564
:102DC000EAF7909198058927B4CF363008F0F1CE14
:102DD000F0CF892F8F71222321F20E94460CE9CE79
:102DE000892F8F712223C9F3BCCF332359F0893344
:102DF00009F01BCF8FEF97EEE3E081509040E04069
:102E0000E1F711CF892F8F71ACCF803E910509F486
:102E100043CEA8F48B37910509F416CE08F071C0A3
:102E20008C32910509F441CE8A37910509F01ECE06
:102E300081E00E9452090E94970D8DE1FECD813400
:102E40002EE7920709F4D9CD50F4843E910509F498
:102E500023CE80346EE7960709F4D4CD07CE8234B2
:102E6000EEE79E0709F4D9CD8334FEE79F0709F00A
:102E7000FDCD83E00E94390CC5CD81342EE7920749
:102E800009F4B8CD90F4843E910509F4EACD80347C
:102E90006EE7960709F0EACD61E083E090E00E94DA
:102EA0007C2681E00E94520CADCD8234EEE79E0775
:102EB00009F4ADCD8334FEE79F0709F0D7CDCC23CD
:102EC000C1F283E00E94460C9DCD803E910509F43D
:102ED000C8CD48F58B37910509F4B6CD90F48C3206
:102EE000910509F4DCCD8A37910509F0BFCDCC23DB
:102EF00009F49ECF81E00E9452090E94A20D8DE14B
:102F000096CD8C37910509F48ACD8D37910509F05E
:102F1000ADCD81E00E945209CC2309F491CD0E94ED
:102F2000A20D89E184CD81342EE7920709F462CDA8
:102F300008F4A9CF8234EEE79E0709F468CD833404
:102F4000FEE79F0709F4BDCF91CDCF93DF9380912A
:102F50003E02807F09F04DC080913D02882309F434
:102F600048C0E091970550915E05C0913902D0911B
:102F7000380260913A0270913B0247E05E17C9F156
:102F80008E2F90E0E49FF0011124E15AFA4F248142
:102F9000222391F1489FF001499FF00D1124DF0198
:102FA000A15ABA4F11962C9111972C1325C02C9130
:102FB0002D1322C015962C91159721111DC0129624
:102FC0002D913C91261B370B283C3105A8F48091AC
:102FD0003E028F70806180933E02EB59FA4F8081F0
:102FE0008F708061808388E392E00E946A140E945F
:102FF000790BDF91CF910895FC013196E770BECF38
:10300000A4E1B0E0E6E0F8E10C9485258C0186E0CF
:10301000F801DE011F9601900D928A95E1F7F80103
:103020008481E58098E3A92E92E0B92E90913C022C
:10303000911128C0882319F1EE20F1F0C8010E94F7
:10304000550CF82E8823C1F087E0F801D5010190D6
:103050000D928A95E1F780913C02813031F48091A4
:103060003802909139020E94B20B0E94A5178F2D51
:103070006496ECE00C94A125C8010E946A14FF2418
:10308000F394F5CFD080C18082809380F0903D0290
:1030900020913A0230913B02A401421B530BFF20C6
:1030A00009F4D9C0483C510508F092C08823F9F2D0
:1030B0009091390280913E02282F207F09F056C05E
:1030C000C91214C090913802D91210C0E11048C042
:1030D0008F70806180933E0288E392E00E946A14C0
:1030E00080913E02F8018683F12CC1CFE11038C0F7
:1030F0006C2D8D2D0E9491066C2D8D2D0E949106B8
:10310000E82E8111F1CFDF86C88A8F8598890E94C9
:10311000B20B292F22952F70243058F49F70223043
:1031200088F0992399F0F8019681907F79F4FE2C2C
:103130009ECF2A5F2F70223068F0C8010E946A1467
:10314000EF2CF5CF992311F0882389F3805E883026
:1031500070F3F3CF803F58F3815F833070F7E7CF90
:1031600080913E02816080933E02BECFC91207C0AB
:1031700090913802D91203C0EE2009F48DC0C80125
:103180000E94550C882309F477CFEE2009F474CF00
:1031900080913E02803288F02091380230913902CD
:1031A000398728879B868A8690913C029C871D865A
:1031B0008E87CE0108960E946A1487E0F801A8E382
:1031C000B2E001900D928A95E1F70E94A51757CFC2
:1031D00090913E02292F207F51F488E392E00E94D3
:1031E0006A1487E0F50111928A95E9F77DCF88236B
:1031F00009F43DCF809139028C1110C080913802C2
:10320000D8120CC0E1100AC09683C8010E946A144B
:1032100087E0F50111928A95E9F729CFC8010E944C
:10322000550C882309F428CFEE2009F425CF80918E
:103230003E02803210F220913802309139023A83F6
:1032400029839C828B8290913C029D831E828F8376
:10325000CE010196B0CF483C5105D0F6882309F441
:103260000ECFFE2CEE2009F407CF809139028C118D
:1032700020C080913802D8121CC080913E0280FD8F
:103280000FC0982F907F61F08683903F31F0982F88
:10329000907F905F8F70892B8683C8010E946A148B
:1032A00087E0F801A8E3B2E001900D928A95E1F77A
:1032B000DECEC8010E94550C81117FCF80913E0265
:1032C000816080933E02C8010E946A14D0CEABE1B7
:1032D000B0E0EDE6F9E10C948E254E8B5F8B688FA4
:1032E000798F8A8F9B8F911110925F021D8A86E0E1
:1032F000FE017696DE011F9601900D928A95E1F708
:103300008B89882351F061E0CE010F960E94890CD1
:1033100061E0CE010F960E94890C87E0FE013F9686
:10332000DE01189601900D928A95E1F7CE0108967C
:103330000E94001881110CC087E0FE013896DE0162
:10334000119601900D928A95E1F78C8581110BC041
:1033500017E08091970590915E05891333C06B96B5
:10336000E3E00C94AA2520915E0530E0C9010196A6
:1033700087709927409197054817190699F097E0AB
:10338000929FD001939FB00D1124A15ABA4FFE0114
:10339000319601900D929A95E1F780935E050E9417
:1033A000790BD6CF109249050E946C0F10925E05E2
:1033B0001092970587E0E8E3F2E0DF011D928A951D
:1033C000E9F7C6CF819FC0011124815A9A4F0E940C
:1033D0000018882321F28091970590E0019687706C
:1033E000992780939705B5CF1F920F920FB60F9232
:1033F00011242F933F934F935F936F937F938F93FA
:103400009F93AF93BF93CF93DF93EF93FF93D091AD
:10341000E900DF708091EC00C82FC17080FDC0E82A
:103420001092E9008091F000877F8093F0007894FB
:103430000E948C0F1092E9008091F00088608093C8
:10344000F000CD2BCF70C093E900FF91EF91DF9199
:10345000CF91BF91AF919F918F917F916F915F912C
:103460004F913F912F910F900FBE0F901F90189585
:103470001F920F920FB60F9211242F933F934F93E9
:103480005F936F937F938F939F93AF93BF93EF93CC
:10349000FF938091E10082FF09C08091E20082FFEA
:1034A00005C08091E1008B7F8093E1008091DA007C
:1034B00080FF24C08091D80080FF20C08091DA0076
:1034C0008E7F8093DA008091D90080FFB6C080E1C2
:1034D00089BD82E189BD09B400FEFDCF81E0809302
:1034E000540580914805811109C00E94C7060E94B9
:1034F00068078091E20084608093E2008091E1009F
:1035000080FF1FC08091E20080FF1BC08091E2001D
:103510008E7F8093E2008091E20080618093E200E0
:103520008091D80080628093D80019BC85E0809398
:10353000540583E08093380180916F00826080930E
:103540006F008091E10084FF37C08091E20084FF2A
:1035500033C080E189BD82E189BD99B5892F817031
:1035600090FFFBCF9091D8009F7D9093D8009091D1
:10357000E1009F7E9093E1009091E2009F7E909306
:10358000E2009091E20091609093E20090915505E5
:10359000992309F458C094E09093540590915405F0
:1035A000943009F482E08093380180916F008D7F20
:1035B00080936F000E94B7088091E10083FF2CC0C8
:1035C0008091E20083FF28C08091E100877F809393
:1035D000E10082E080935405109255058091E1004E
:1035E0008E7F8093E1008091E2008E7F8093E200E5
:1035F0008091E20080618093E20042E060E080E040
:103600000E9436078091F00088608093F00081E08E
:103610008093380180933701FF91EF91BF91AF9173
:103620009F918F917F916F915F914F913F912F91DA
:103630000F900FBE0F901F90189519BC1092540553
:10364000109248055BCF9091E30097FD02C0982F40
:10365000A3CF93E0A1CF78941F921FB61F9211249D
:103660008F939F93AF93BF938091440590914505AD
:10367000A0914605B09147050196A11DB11D80930B
:10368000440590934505A0934605B0934705BF9127
:10369000AF919F918F911F901FBE1F9018952FB7CC
:1036A000F8948091440590914505A0914605B0910C
:1036B00047052FBF0895ACE0B0E0E1E6FBE10C94D4
:1036C00084258E010F5F1F4F88E0D8011D928A95D7
:1036D000E9F789EEC82E81E0D82EF12CE12CAA243E
:1036E000A394B12C23EF822E21E0922EF60181913A
:1036F0006F018F3F09F442C0F894E82FE295EF7014
:10370000F0E021A18F70A50102C0440F551F8A95DA
:10371000E2F7CA01922F982B91A392A18095892359
:1037200082A3789400C0EDEEF1E0712C31E021919C
:103730002F3F09F498C0A22FA295AF70B0E09096E9
:103740008C9190E02F7002C0959587952A95E2F7AD
:1037500080FD89C0832F782A330F8E169F0639F794
:10376000F601319780818F3F11F00E94210950EAC4
:103770005A95F1F7F801EE0DFF1D70828FEFE81AF0
:10378000F80A94E0E916F10409F0B0CF48E050E0FF
:10379000B80186E992E00E944826009741F028E0AF
:1037A000F801A6E9B2E001900D922A95E1F70091A7
:1037B0009F0210E000561D4F892B09F456C081E08E
:1037C00080936C020E944F1B90936B0280936A025D
:1037D000F12CE0903A05EE2009F4A5C019861A866E
:1037E0001B861C86809191028A3008F064C04AE5ED
:1037F00053E1BE01675F7F4FC8010E94110D88230E
:1038000009F480C04CE053E1BE01675F7F4FC801FF
:103810000E94110D882309F475C042EB52E1BE01EC
:10382000675F7F4FC8010E94110D882309F46AC0A9
:103830001092910280919E0290E044E050E0BE011F
:10384000675F7F4F80569D4F0E94482621E020935E
:103850007302892B09F048C0E12C8E2D8F292C96FC
:10386000EDE00C94A02580E076CFF0906C02FF2074
:1038700009F4AECFC0906A02D0906B020E944F1B39
:103880008C199D09059708F4A3CF44E050E066E940
:1038900072E0C8010E944826892B59F084E0E6E9CD
:1038A000F2E0D80101900D928A95E1F710926C0236
:1038B00090CFF12CFBCFC0906D02D0906E020E9491
:1038C0004F1B8C199D09843F914008F090CF809147
:1038D0007302882309F2FE01399684E0DF011D920C
:1038E0008A95E9F710927302E0919E02F0E0E056AB
:1038F000FD4F89859A85AB85BC8580839183A283A2
:10390000B383ABCF809191028F3F31F08F5F809373
:1039100091028A3008F48ECF0E944F1B90936E0262
:1039200080936D02D4CFC0909E02D12CF601E05658
:10393000FD4F6F0184E0F801A1E8B2E001900D9223
:103940008A95E1F781E892E00E94B00680938002B8
:1039500084E0E5E8F2E0D60101900D928A95E1F766
:103960008090890290908A02A0908B02B0908C0285
:1039700080916F0290917002A0917102B0917202D9
:1039800088169906AA06BB0609F467CF80926F02D3
:1039900090927002A0927102B09272020E9433085B
:1039A000861A970AA80AB90A809292029092930204
:1039B000A0929402B092950250CFA6E0B0E0E3EE60
:1039C000FCE10C948D250E944F1B8C0180916802B4
:1039D000909169028017910781F019821A820E94E2
:1039E0004F1B682F49815A81792F80E090E00E9417
:1039F000671910936902009368022696E4E00C941C
:103A0000A925CF93DF93EC010E944F1B8C1B9D0BCC
:103A1000DF91CF9108951F921FB61F9211248F93AB
:103A20009F93EF93FF938091270390912803019632
:103A30009093280380932703811105C0909126035A
:103A4000926090932603E0912803E695E695F0E0D6
:103A5000E25CF94FE491E81305C0809126038D7F65
:103A600080932603FF91EF919F918F911F901FBE2E
:103A70001F901895CDB7DEB72B970FB6F894DEBF21
:103A80000FBECDBF85B7806885BF85B7806885BF0D
:103A900084B7877F84BF0FB6F894A89580916000A3
:103AA000886180936000109260000FBE80E890E013
:103AB0000FB6F89480936100909361000FBE81E08F
:103AC000809338018FE199E09093FD018093FC0190
:103AD0000E94C7060E9468078091E200846080937C
:103AE000E2007894809154058823A1F01091E900B8
:103AF0001F709091EC00892F817090FD80E8182B49
:103B00001092E9008091E80083FD0E948C0F1F70E5
:103B10001093E90082E084BD93E095BD9AEF97BDD4
:103B200080936E001092920210929302109294026F
:103B30001092950288EC90E01091E300111F11277C
:103B4000111F61F4AFE3BCE91197F1F700C0000069
:103B5000019791F70E94C7061092540510933A05F9
:103B600090E080E00E946626853E9E4F11F00E9404
:103B700002148EE090E00E945E2691E0811101C067
:103B800090E090933B059093200180913A0581113C
:103B90000E940924809120018091200194E08111EC
:103BA00090E090939F0284E0891B80939E0284E9B9
:103BB0000E94210986E60E94210987E90E942109C5
:103BC00086EC0E9421090DEE11E0A3EFEA2EA1E0A0
:103BD000FA2EF80181918F018F3F11F00E94210987
:103BE000E016F106B1F788E0E0EAF2E0DF01282F05
:103BF0001D922A95E9F7E6E9F2E0DF011D928A9528
:103C0000E9F790E080E00E946626853E9E4F11F025
:103C10000E94021482E090E00E945E268093A80237
:103C200084E090E00E9466269093430580934205CD
:103C30000E945B1BEFEFF6E721E0E150F0402040EF
:103C4000E1F700C000000E945B1B80913B05E4E0AF
:103C50008111E0E0F0E0E056FD4F808181FF08C077
:103C60006FEF7FEF90E080E00E949A260E9422088A
:103C700083E090E00E945E260E94520C80913A05FB
:103C80008111D1C082E08093210380E880932903D1
:103C90000E94A7226BE070E08FE792E00E94621220
:103CA0008823E9F18091210365E070E081FDC0C0C7
:103CB0008AE792E00E946212882389F16DE070E049
:103CC00088E692E00E946212882349F10E9433083C
:103CD000605A75418F4F9F4F60933405709335053F
:103CE0008093360590933705E2E3F3E080E092E0BD
:103CF000DF019C011D9221503040E1F7F093330524
:103D0000E09332058FEF9FEF909331038093300360
:103D100081E08093390580933805109222038091C9
:103D20008100886080938100809181008160809310
:103D300081008FB7F89420ED33E030938900209311
:103D400088008FBF80913A05811102C00E940C2427
:103D500081E291E090933F0580933E05E4E68E2E4C
:103D6000912CA12CB12C22242394312C8091540528
:103D7000853059F480915405853009F45CC0109267
:103D800049050E946C0F0E94B7080E945B1B09EA5C
:103D900012E070EAE72E72E0F72ED701F801919158
:103DA0008D9121EB32E02E173F0709F452C098178E
:103DB000B1F340903A05D12CD701CD907D01F801A7
:103DC00051908F015C1431F15C24712C6624639452
:103DD000852D8621B9F04420A9F07982DA820E94EB
:103DE0004F1B9C838B83F1E0FD8391E08C2D86211A
:103DF00009F490E09E8349815A816B817C818D8199
:103E00000E9467197394660C26E07212E1CFF801E4
:103E10003197C082D39438E0D312CECF0E943809B4
:103E200041E04F831BC083E08093210380E22ECFCB
:103E300085E792E03FCF809154050E945B1BE0EA4A
:103E4000F2E08191811112C332E0E83AF307C9F739
:103E500091CF9813AECF0E94DD1C1F8280913A054E
:103E6000882309F4BAC0C090BC02D090BD020D2CCA
:103E7000000CEE08FF0810912B01212F30E0ECEB35
:103E8000F2E081E090E03296281739070CF007C184
:103E90004090B8025090B9026090BA027090BB0294
:103EA0000E9433089B01AC012419350946095709C2
:103EB00029013A0139EC431651046104710414F1EB
:103EC0008091B70290E0019669E170E00E94C225FE
:103ED0008093B702880F991FFC01E454FD4F1182B3
:103EE0001082812F183108F087E18F5F80932B01BA
:103EF0000E9433086093B8027093B9028093BA02AB
:103F00009093BB0242E0C416D104E104F1040CF426
:103F1000D2C0A0E6BAEEA70196010E941D266B0151
:103F20007C0158EC159F90011124032E000C440BCA
:103F3000550B240D351D461D571DA5E0B0E00E9410
:103F40001D269B01AC01C701B6010E94D62529019F
:103F50003A0181EF48165104610471042CF050EFCE
:103F6000452E512C612C712CC090B302D090B4021C
:103F7000E090B502F090B6020E9433089B01AC01BC
:103F80002C193D094E095F0969017A0135E6C3160E
:103F9000D104E104F10484F00E9433086093B30279
:103FA0007093B4028093B5029093B6028091EE02B2
:103FB0008093B2024092B1021091B202A091B1027C
:103FC000A11BBB0BA70196010E942826A501940105
:103FD0000E94F825120F1093EE0280913905882374
:103FE00009F419C100912303109124030E944F1B6F
:103FF000801B910BC29708F4EEC00E944F1B909358
:1040000024038093230360E080E00E9408098091EC
:10401000EE0290E09093FC028093FB020E94B708AE
:1040200080913A0560E0882309F441C180E00E9454
:1040300008098091430580FD06C060E470E08EEBC6
:1040400095E00E94C80863E080E00E940809809122
:10405000FA020E94780C60E0811131C088EB95E093
:104060000E94660F89E391E00E94080F66E080E0FD
:104070000E940809809198050E94780C813009F40B
:10408000DEC0882309F1823009F4D5C0833009F4F9
:10409000DAC060E080E995E00E94660F1AC04081B6
:1040A0005181052E000C660B770BC40ED51EE61E43
:1040B000F71E0196E8CE412C512C320155CF82EBF0
:1040C00095E00E94210FCECF60E08CEA95E00E943F
:1040D000210F68E080E00E9408090E94B70881FB78
:1040E000662760F98AE895E00E94660F4090F60224
:1040F0005090F7026090F8027090F9020E94330825
:104100006419750986099709693C7105810591054E
:10411000E8F10E9433086093F6027093F7028093EF
:10412000F8029093F9028091F102811104C080910C
:104130002C0181118CC06FE080E00E94080988EAA0
:1041400091E00E94080F6CE080E00E94080941E0C5
:1041500040932C018091F00290E0019681709927A4
:104160008093F0029101281B390B40E6429FC00169
:10417000439F900D11242091EF02222309F474C073
:1041800060E670E086539B4F0E94C8088091FB0256
:104190009091FC02181619060CF479C04090F202B6
:1041A0005090F3026090F4027090F5020E94330880
:1041B000641975098609970961367A4E810591055A
:1041C00050F060E080E00E9408098FE391E00E94D7
:1041D000080F0E946F128091300390913103892B58
:1041E00009F06AC0809138058823A9F00E9433083D
:1041F0000091340510913505209136053091370531
:10420000601B710B820B930B6F3F7F4F8F4F9F474C
:1042100010F40E946F124F8141110E948A120E9475
:10422000B70890912503891709F4A0CD8093250341
:104230000E9433089BCD60E085EA95E048CF60E0BE
:104240008EE995E044CF60E087E995E040CF6CE0EF
:1042500080E00E94080988EA91E00E94080F6DE062
:1042600080E00E94080976CF2091FB023091FC0289
:1042700060E670E02B3031051CF4865F9B4F84CFE5
:10428000293231058CF4865B9C4F0E94C8080E943D
:104290008A120E9433086093F2027093F3028093B3
:1042A000F4029093F50297CF86579D4FEECF8EEF95
:1042B00095E00E94210F8FCF80913905882309F462
:1042C00091CF8091220381118DCF0E948A1220917B
:1042D0003003309131032115310509F483CF80E09B
:1042E000082F10E02101082E02C0440C551C0A942E
:1042F000E2F7A20142235323452B11F48F5FF0CF45
:104300009091210390FF99C0880F880F880F8093A8
:10431000300110923301895F8093310183E08093F3
:10432000340124E630E047E050E06EE271E088E7D7
:104330000E94DB22892B09F055CFA80195E0440F9C
:10434000551F9A95E1F78091210380FF88C0E1E035
:10435000F3E080E2DF011D928A95E9F7E7EFF1E0F3
:10436000FB87EA8763EF71E087E0F82EEA85FB853B
:10437000A191FB87EA87FB018191BF01840F952FF3
:10438000911D9C012E5C3C4F39872887EA2FF0E075
:10439000EF5FFC4F90E080E0DF2CD81AE22C082E73
:1043A00001C0EE0C0A94EAF76884798400E0D30136
:1043B0001D913D011E212D2D201B2770C22E022E86
:1043C000000C330BB12F01C0BB0FCA94EAF7CB2E00
:1043D0003195219531092770332701C016952A950B
:1043E000EAF7C12A1081C12AC0820F5F0830F9F6AE
:1043F000019631968830910579F6EA85FB85EB5F69
:10440000F14009F0B3CF04E610E020E230E041E0F3
:1044100053E060E488E70E946523892B09F0E2CE2F
:104420004094509480913003909131034822592256
:104430005092310340923003D5CE8295880F80761A
:1044400080933001980136952795369527952093CE
:104450003301815E809331012093340162CF4E5C41
:104460005C4F04E610E020E230E0D3CF80915305AA
:10447000882309F47FCC40E149BD52E159BD09B41C
:1044800000FEFDCF8091D8008F7D8093D800809171
:10449000E00082608093E0008091E00081FDFCCF2D
:1044A000109249050E946C0F65CCEF92FF920F931A
:1044B0001F93CF93DF93182FEB011092BC0084EA77
:1044C0008093BC000E944F1B7C018091BC0087FF41
:1044D00027C08091B900887F883029F08091B90089
:1044E000887F803189F51093BB0084E88093BC00FD
:1044F0000E944F1B8C018091BC0087FF1EC0209141
:10450000B900287F90E080E0283191F081E090E0D0
:10451000203411F490E080E091958195910908C0D4
:10452000C7010E94011DC817D90778F68EEF9FEFCB
:10453000CDB7DEB7E6E00C94A725C8010E94011DA7
:10454000C817D907C0F6F2CF8FEF9FEFF1CF1092C7
:10455000B9008CE08093B80008950F931F93CF9318
:10456000DF93EB018093BB0084E88093BC000E9442
:104570004F1B8C018091BC0087FF11C02091B900B6
:10458000287F81E090E0283211F490E080E091955E
:1045900081959109DF91CF911F910F910895CF3FA0
:1045A000DC0741F3C8010E94011DC817D90710F7A5
:1045B0008EEF9FEFEFCFB0E0A0E0E1EEF2E20C94DF
:1045C0008425782E5B016A0189010E944F1B4C01F2
:1045D000C1E0D0E00431110558F0C5E0D0E00F3F54
:1045E000100731F0C80164E170E00E946B25EB0117
:1045F000BE01872D0E9455227C0197FF09C00F3F05
:104600001007B1F3C4010E94011D0817190780F7B4
:10461000E501CA0CDB1CCC15DD0511F0F7FE09C065
:1046200084E98093BC00C701CDB7DEB7EDE00C9400
:10463000A025B80189910E94AD227C01ECCFB0E0A9
:10464000A0E0E5E2F3E20C948425782E5B016A0198
:1046500089010E944F1B4C01C1E0D0E004311105DB
:1046600058F0C5E0D0E00F3F100731F0C80164E119
:1046700070E00E946B25EB01BE01872D0E94552240
:104680007C0197FF09C00F3F1007B1F3C4010E94DE
:10469000011D0817190780F7E501CA0CDB1CCC15B2
:1046A000DD0511F0F7FE09C084E98093BC00C70165
:1046B000CDB7DEB7EDE00C94A025FE018491B801E2
:1046C0000E94AD227C012196EACFB0E0A0E0EBE6AB
:1046D000F3E20C948325682E762E5A0169010E941C
:1046E0004F1B4C01C1E0D0E00431110558F0C5E08A
:1046F000D0E00F3F100731F0C80164E170E00E9484
:104700006B25EB01BE01862D0E9455227C0197FF8F
:104710001DC00F3F1007B1F3C4010E94011D08170F
:10472000190780F784E98093BC00C701CDB7DEB7D5
:10473000EEE00C949F25B80189910E94AD227C0186
:10474000CC16DD0679F3F7FEF6CFECCFB801872D56
:104750000E94AD227C01E501CA0CDB1CF1CF8EE189
:104760004A9B02C08150E1F74A9BFECF08955A98B8
:1047700080E28A95F1F75A9A0895FC013BE03A9558
:10478000F1F798E020E080E031E040E14A95F1F770
:10479000880F4A9B02C08160232742E04A95F1F7C7
:1047A000000040E14A95F1F7915079F790E19A9530
:1047B000F1F799B132E03A95F1F7000040E14A95FE
:1047C000F1F792FB992790F992272081920F90831D
:1047D0000895A1E0B0E0EFEEF3E20C948B2519828E
:1047E0008C017C01E60EF11C0E151F0541F481E0E1
:1047F0009981911180E02196E6E00C94A7250E9412
:10480000AF23CE0101960E94BD23F80181938F0151
:10481000EBCF529A5A9A089552985A9AEA9AE9E630
:10482000F0E080818F7C808308956150770B91E068
:1048300001C0990F6A95EAF720E031E0911108C0B4
:10484000222391F05A9A80E28A95F1F75A980895B6
:10485000492F482339F05A9A232740E24A95F1F725
:104860009695ECCF5A98F9CF5A98EDCFFF920F93C7
:104870001F93CF93DF93EC018C01060F111DC0171E
:10488000D10729F4CDB7DEB7E5E00C94A825F9905F
:104890000E94B72368E08F2D0E941524F0CF1F924D
:1048A0000F920FB60F9211240F931F932F933F93E4
:1048B0004F935F936F937F938F939F93AF93BF9328
:1048C000EF93FF93CF93DF930F92CDB7DEB71982AB
:1048D0000E94AF23CE0101960E94BD23082F0695AA
:1048E00006950695282F22952570902F9570290FF3
:1048F000922F937026952695920F9827977089810D
:10490000982B09F05CC0053008F059C080E18A9509
:10491000F1F75A9A529A82E08A95F1F700C05A98B4
:1049200088E0089F80011124D801A050BF4F16963F
:10493000ED91FC9117973097A9F06091E701709184
:10494000E80114962D913C911597260F371F11966B
:104950008D919C911297680F791F13964C91139724
:104960008C910995F801E050FF4F6381662351F067
:104970002091E7013091E80184819581820F931F96
:104980000E9436240E94B72380E18A95F1F75A9855
:1049900052985A9A80E18A95F1F7F801E050FF4F5A
:1049A0006081662351F02091E7013091E801818117
:1049B0009281820F931F0E94E9230E94AF230F90E0
:1049C000DF91CF91FF91EF91BF91AF919F918F9127
:1049D0007F916F915F914F913F912F911F910F9117
:1049E0000F900FBE0F901F9018950F931F93CF93AA
:1049F000DF93EC0105970CF04CC0F894529A5A984A
:104A000085E08A95F1F700009C2F969595708C2F84
:104A10008570980F892F83709695969523E0CC0F1B
:104A2000DD1F2A95E1F7980F8E01092B0E94B7230D
:104A300000C068E0802F0E94152480E18A95F1F77C
:104A400052985A9A4A9B1EC087E090E04A991CC02F
:104A5000FE01E050FF4F63816623F9F02091E701EA
:104A60003091E80184819581820F931F0E94E92390
:104A7000811113C0529A5A9A7894DF91CF911F9165
:104A80000F91089500C0DECF019729F4529A5A9AE7
:104A9000789480E0F2CF00C0D9CF0E94AF2380E2AB
:104AA0008A95F1F75A98529A80E18A95F1F7C050A9
:104AB000DF4F6881662351F02091E7013091E801D2
:104AC00089819A81820F931F0E9436240E94B72306
:104AD000789481E0D2CFAA1BBB1B51E107C0AA1F6B
:104AE000BB1FA617B70710F0A61BB70B881F991F8F
:104AF0005A95A9F780959095BC01CD0108952F9204
:104B00003F924F925F926F927F928F929F92AF925D
:104B1000BF92CF92DF92EF92FF920F931F93CF93AA
:104B2000DF93CDB7DEB7CA1BDB0B0FB6F894DEBF41
:104B30000FBECDBF09942A88398848885F846E8467
:104B40007D848C849B84AA84B984C884DF80EE80B1
:104B5000FD800C811B81AA81B981CE0FD11D0FB6BA
:104B6000F894DEBF0FBECDBFED010895991B79E02B
:104B700004C0991F961708F0961B881F7A95C9F7ED
:104B80008095089597FB072E16F4009407D077FDC3
:104B900009D00E946B2507FC05D03EF490958195C5
:104BA0009F4F0895709561957F4F0895A1E21A2E49
:104BB000AA1BBB1BFD010DC0AA1FBB1FEE1FFF1FC1
:104BC000A217B307E407F50720F0A21BB30BE40B11
:104BD000F50B661F771F881F991F1A9469F7609558
:104BE0007095809590959B01AC01BD01CF01089512
:104BF000052E97FB1EF400940E940F2657FD07D048
:104C00000E94D62507FC03D04EF40C940F26509535
:104C10004095309521953F4F4F4F5F4F08959095A8
:104C20008095709561957F4F8F4F9F4F0895EE0F40
:104C3000FF1F0590F491E02D09940E943026A59F56
:104C4000900DB49F900DA49F800D911D1124089587
:104C5000B7FF0C941D260E941D26821B930B0895FE
:104C6000A29FB001B39FC001A39F700D811D1124AD
:104C7000911DB29F700D811D1124911D0895FB019E
:104C8000DC0102C005900D9241505040D8F70895C4
:104C9000FB01DC0104C08D910190801921F4415089
:104CA0005040C8F7881B990B0895FB01DC0102C036
:104CB00001900D9241505040D8F70895F999FECFD8
:104CC00092BD81BDF89A992780B50895A8E1B0E01A
:104CD00042E050E00C94A226DC01A40FB51F415025
:104CE000504048F0CB01840F951F2E910E947D26E5
:104CF00041505040D0F70895262FF999FECF92BD2C
:104D000081BDF89A019700B4021639F01FBA20BD90
:104D10000FB6F894FA9AF99A0FBE08950396272FC2
:104D20000E947D260E947C26252F0E947D26242F0E
:104D30000C947D260196272F0E947D260C947C26BC
:104D4000DC01CB01FC01F999FECF06C0F2BDE1BD4B
:104D5000F89A319600B40D9241505040B8F708953A
:104D6000F894FFCF71109910381299103812CC10A6
:104D7000ED103812EA11F711A615A615ED15ED156F
:104D80001916D915D915D9153316A416B416B41693
:104D9000000000010000000000000004010000000D
:104DA00004050000000000000409000000000000ED
:104DB000013F08FD0CF60C2108EF0C010120002139
:104DC000007F220003000001004C415945520020A1
:104DD00020202020202020202020202020202020D3
:104DE00020202020202020202020202020202020C3
:104DF00020202020202020202020202020202020B3
:104E000020202020202020202020202020202020A2
:104E10002020202020202020202020202020202092
:104E20002020202020202020202020202020202082
:104E300020202020202020202020202020008182CF
:104E400083E200E900EA00B500B600B700CD0083B8
:104E500001CC008A0192019401210223022402253F
:104E600002260227022A02B300B4006F0070009FDE
:104E700001CB019F02A0028002946697C6F4F5F66A
:0C4E8000F731330008101818100800006B
:00000001FF
