:100000000C9449080C9466080C9466080C94772F9D
:100010000C9466080C9466080C9466080C946608A8
:100020000C9466080C9466080C94051C0C94C11B77
:100030000C9436280C9466080C9466080C94660898
:100040000C9466080C9466080C9466080C94660878
:100050000C9466080C94EC1C0C9466080C946608CE
:100060000C9466080C9466080C9466080C94660858
:100070000C9466080C9466080C9466080C94660848
:100080000C9466080C9466080C9466080C94660838
:100090000C9466080C9466080C9466080C94660828
:1000A0000C9466080C9466080C946608000CD5FF46
:1000B000FFFF00000000000C24FFFFFF0000000015
:1000C000000C00FFFFFF00000000000CAAFFFFFF74
:1000D000000000000101E001043432377C010251CC
:1000E00001043135377C01035101043132377C0181
:1000F000025201043135377C010352010431323799
:100100007C01025001043135377C01035001043178
:1001100032377C01025201043135377C0103520130
:10012000043132377C01024F01043135377C010341
:100130004F01043132377C01024F01043135377CE5
:1001400001034F01043132377C000101E001043426
:1001500032377C01025101043135377C01035101F2
:10016000043132377C01025201043135377C0103FE
:100170005201043132377C01024F01043135377CA2
:1001800001034F01043132377C0102500104313543
:10019000377C01035001043132377C000101E0015A
:1001A000043432377C01025101043135377C0103BC
:1001B0005101043132377C01025101043135377C61
:1001C00001035101043132377C01025201043135FF
:1001D000377C01035201043132377C01024F0104A4
:1001E0003135377C01034F01043132377C00000088
:1001F00000000000000000000000290014001A00A8
:100200000800150017002B00040016000700090065
:100210000A00E1001D001B00060019000500000097
:10022000E300E000417E2C00A80000000000000078
:100230000000000000002F00130012000C00180046
:100240001C002A0033000F000E000D000B00E5001B
:10025000380037003600100011000000E700E6000B
:10026000427E28002078467E487E477E00000000BF
:1002700000001E021F022002210222022302141487
:1002800035002D142D002D022702E1007A007C009C
:100290004C007D007B0000000100E00001002C000C
:1002A0000100000000000000000000000000260225
:1002B00025025500260025002400310234022402C4
:1002C00023002200210031003400570020001F00CD
:1002D0001E00000001006400010027000100000072
:1002E000000000000000000000003A003B003C005D
:1002F0003D003E003F0040004100420043004400FA
:100300004500E1000000000074006500E30000000B
:100310000100E000010047000100000000000000B3
:10032000000000000000000000004B0052004A00E6
:100330004900000000004F00510050004C00000038
:1003400000004E0000004D007E0000000100E600AD
:100350000100390001000000000000000000000062
:1003600000000000000000004600470048000000B8
:10037000000000000000000000000000000000007D
:10038000000000000000000000000000000000006D
:100390000100000000000000000000000000A900B3
:1003A000AA00A80000000000000021782278207830
:1003B000000000000000000000000000000000003D
:1003C000000000000000000000000000010000DA52
:1003D0000281FFD9F1DB20A4A62EAF00A0C0D3007C
:1003E00000A1C8D30000AED580A81F408D14200006
:1003F000CA00C000B600AC0000001E140A050001CF
:1004000001010101010101010202020202020202D4
:1004100002030303030303030304040404040404A6
:10042000050505050506060606060707070707086A
:10043000080808090909090A0A0A0B0B0B0C0C0C1D
:100440000D0D0D0E0E0E0F0F0F10101111111212B7
:1004500013131414151516161717181819191A1A34
:100460001B1B1C1D1D1E1E1F202021222223242495
:10047000252626272829292A2B2C2D2D2E2F3031D1
:100480003232333435363738393A3B3C3D3E3F40E3
:100490004142434445464748494A4C4D4E4F5051CE
:1004A0005354555658595A5B5D5E5F616264656688
:1004B00068696B6C6D6F7072737577787A7B7D7E0F
:1004C0008082838587888A8C8E8F91939596989A5F
:1004D0009C9EA0A2A3A5A7A9ABADAFB1B3B5B7BA77
:1004E000BCBEC0C2C4C6C9CBCDCFD1D4D6D8DBDD4B
:1004F000DFE2E4E7E9EBEEF0F3F5F8FAFDFF2223A3
:10050000252628292A2C2D2F3032333536383A3BF0
:100510003D3E4042434547494A4C4E505153555742
:10052000595A5C5E6062646668696B6D6F71737561
:1005300077797B7D7F81838587898A8C8E90929461
:1005400096989A9C9E9FA1A3A5A7A8AAACAEAFB16E
:10055000B3B4B6B8B9BBBCBEBFC1C2C3C5C6C7C9B8
:10056000CACBCCCDCED0D1D2D2D3D4D5D6D7D7D872
:10057000D9D9DADADBDBDBDCDCDCDCDCDDDDDDDDC4
:10058000DCDCDCDCDCDBDBDBDADAD9D9D8D7D7D6CC
:10059000D5D4D3D2D2D1D0CECDCCCBCAC9C7C6C583
:1005A000C3C2C1BFBEBCBBB9B8B6B4B3B1AFAEACC9
:1005B000AAA8A7A5A3A19F9E9C9A98969492908E74
:1005C0008C8A89878583817F7D7B79777573716F4D
:1005D0006D6B6968666462605E5C5A595755535129
:1005E000504E4C4A4947454342403E3D3B3A3836DF
:1005F000353332302F2D2C2A29282625232207088F
:100600007F0807003E5B4F5B3E003E6B4F6B3E003A
:100610001C3E7C3E1C00183C7E3C18001C577D573D
:100620001C001C5E7F5E1C0000183C180000FFE7E9
:10063000C3E7FF00001824180000FFE7DBE7FF0016
:1006400030483A060E00262979292600407F050504
:100650000700407F05253F005A3CE73C5A007F3E9B
:100660001C1C0800081C1C3E7F0014227F22140062
:100670005F5F005F5F0006097F017F00006689956C
:100680006A0060606060600094A2FFA294000804A9
:100690007E04080010207E20100008082A1C080094
:1006A000081C2A0808001E10101010000C1E0C1E3A
:1006B0000C0030383E383000060E3E0E06000000BA
:1006C0000000000000005F000000000700070000BD
:1006D000147F147F1400242A7F2A12002313086435
:1006E0006200364956205000000807030000001C35
:1006F000224100000041221C00002A1C7F1C2A000D
:1007000008083E080800008070300000080808084B
:1007100008000000606000002010080402003E5144
:1007200049453E0000427F40000072494949460069
:100730002141494D33001814127F100027454545CB
:1007400039003C4A49493100412111090700364925
:1007500049493600464949291E000000140000009E
:100760000040340000000008142241001414141446
:1007700014000041221408000201590906003E41FC
:100780005D594E007C1211127C007F4949493600A8
:100790003E41414122007F4141413E007F4949495C
:1007A00041007F09090901003E41415173007F0862
:1007B00008087F0000417F4100002040413F0100C8
:1007C0007F08142241007F40404040007F021C020D
:1007D0007F007F0408107F003E4141413E007F09B9
:1007E000090906003E4151215E007F091929460092
:1007F00026494949320003017F0103003F40404040
:100800003F001F2040201F003F4038403F0063143E
:10081000081463000304780403006159494D430040
:10082000007F414141000204081020000041414185
:100830007F000402010204004040404040000003E9
:10084000070800002054547840007F2844443800B2
:10085000384444442800384444287F0038545454D1
:10086000180000087E09020018A4A49C78007F08E4
:100870000404780000447D4000002040403D00001A
:100880007F102844000000417F4000007C04780471
:1008900078007C0804047800384444443800FC188C
:1008A0002424180018242418FC007C0804040800E0
:1008B00048545454240004043F4424003C40402045
:1008C0007C001C2040201C003C4030403C00442860
:1008D000102844004C9090907C004464544C440098
:1008E0000008364100000000770000000041360893
:1008F00000000201020402003C2623263C00000006
:1009000000000000404040F0F8F8FF38FFF8F83FE2
:10091000F8F8FF38FFF8F8F0404040000000000011
:100920000080C0C0C0800000C0C08000000080C047
:10093000C000C0C0000080C0C00000000000C0C0F7
:10094000C0C0C000C0C000000000000000000000E7
:100950000000000000000000000000000000000097
:100960000000000000000000000000000000000087
:1009700000000000000000000000000000C0F0F8CF
:10098000FC3E1E06010000007F4141417F007F4187
:1009900041417F000080C0E07E5B4F5BFEC00000F5
:1009A000C000DCD7DEDEDED7DC00C00000000000C7
:1009B0000000000000000000000000000000000037
:1009C00000000000494949FFFFFFFFE0DFBFBF0013
:1009D000BFBFDFE0FFFFFFFF494949000000000003
:1009E0001F3F6060E0BF1F007F7F071E381E077F2C
:1009F0007F007F7F0E1F3B716000000000007F7F43
:100A00000C0C0C007E7E007F7E0303007F7E0303C0
:100A10007E7E03037F7E000F3E703C063C703E0FDF
:100A200000327B49493F7E007F7E0303001E3F6901
:100A3000696F2600000000000000000000030F1F87
:100A40003F3C7870600000007F4141417F007F4162
:100A500041417F00307B7F7830202030787F3B0021
:100A600003000F7F0F0F0F7F0F0003000000000037
:100A70000000000000000000000000000000000076
:100A800000000000010101070F0F7F0F7F0F0F7E95
:100A90000F0F7F0F7F0F0F07010101000000000003
:100AA0000000000000010100000000000000000044
:100AB0000000000000000000000000000000000036
:100AC0000000000000000000000000000000000026
:100AD0000000000000000000000000000000000016
:100AE0000000000000000000000000000000000006
:100AF00000000000000000000000000000000000F6
:100B000000000000000000000000000000000000E5
:100B100000000000000000000000000000000000D5
:100B200000000000000000000000000000000000C5
:100B3000000000000000000000000000000000AF06
:100B400000AE00000000E0100808C8B0808080807F
:100B500080808040403C14040890180408B0408015
:100B60000000000000000102C4A4FC00000000809E
:100B700000000000000000000080C858282A100F64
:100B8000000000000000000E090404040402030237
:100B900001010202040810262B32040506000000A1
:100BA0000000000000E01010F00000000000000055
:100BB00000808080782808102030081020408000B5
:100BC00000000000000304081011F90101010101F7
:100BD0000100000000000000000110B05055201F6F
:100BE000000000000000000000000001020C1020C6
:100BF0002837021E2020180C141E010000000000DF
:100C00000000000000000080402010909090A0C0E4
:100C10008080807008140890101008A4788000006C
:100C2000000000000000000708FC01000000008038
:100C30000000010000000000000818EA100F00008A
:100C4000000000000000000000031C20203C0F11E9
:100C50001F03061820203C0C121E0100000000009B
:100C600000000000000000008040202020408000A4
:100C7000000000E01028102020201048F0000000A4
:100C8000000000000000001F20F802010101010126
:100C90000101030000000001001030D5201F0000FA
:100CA0000000000000000000003F20300C02050999
:100CB000121E021C140810202C320100000000003B
:100CC0000000000000000000000000000000000024
:100CD000E01C02050224040402A91EE0000000003A
:100CE0000000000000000000E01008681008040385
:100CF000000000000000000206827C0300000000EB
:100D000000000000000000000102040C1010202070
:100D100020283E1C20203E0F111F00000000000074
:100D200000000000000000000000000000000000C3
:100D3000E01C02050224040402A91EE000000000D9
:100D400000000000000000E0900818601008040394
:100D500000000000000000020E827C030000000082
:100D600000000000000000000102040C1010202010
:100D700020283E1C20203E0F111F00000000000014
:100D80000000000000000000804040404080000063
:100D900000000000C0404080008040800000000053
:100DA0000000000000001E21F00402020202030203
:100DB000020404040301000009018080AB04F80070
:100DC0000000000000000000031C20203C0F111F49
:100DD000020618202038081018040402020100003E
:100DE0000000000000000000804040408000000043
:100DF00000000000E0A0204080C0204080000000F3
:100E00000000000000003E41F00402020203020262
:100E100002040402010000000400404055827C00EE
:100E200000000000000000003F20300C0205091205
:100E30001E041810081020283406020101000000CA
:100E400000004350534C4B00556E6465660A0041E8
:100E5000646A73740A004C6F7765720A00526169A4
:100E600073650A00426173650A00556E6465660029
:100E7000434C4D414B00000000000000000000000A
:100E800000BCBCBEBE00BEBEBFBFBFBF00000000F6
:100E90000000000000000000000000000000000052
:100EA0000007070F0F000F0F1F1F1F1F000000007C
:100EB00000000000000005010980A101850319015F
:100EC0002AB700150126B700950175108100C005ED
:100ED0000C0901A101850419012AA002150126A00F
:100EE00002950175108100C005010906A101850662
:100EF000050719E029E7150025019508750181020C
:100F00000507190029EF1500250195F075018102EB
:100F100005081901290595057501910295017503CB
:100F20009101C005010906A101050719E029E7158E
:100F3000002501950875018102950175088101055B
:100F400007190029FF150026FF0095067508810086
:100F5000050819012905150025019505750191025E
:100F6000950175039101C009023B00020100A0FA3E
:100F700009040000010301010009211101000122FF
:100F80004400070581030800010904010001030072
:100F90000000092111010001226D000705820320D4
:100FA0000001120100020000000832FC870201006B
:100FB000010200010C0353006F0066006C00650025
:100FC00000001A034A006F007300650066004100CC
:100FD000640061006D00630069006B0000000403A1
:100FE00009040000000000000000000000000000F4
:100FF00000000000000000000000000000000000F1
:101000000000000000007E0F00D4FFFFFFC70000BB
:10101000007800000000000000002A2B28000000DB
:101020000000000000000000000000000029000097
:1010300000002C1E3420212224342627252E362D74
:101040003738271E1F202122232425263333362E0E
:1010500037381F0405060708090A0B0C0D0E0F1080
:101060001112131415161718191A1B1C1D2F3130C5
:10107000232D350405060708090A0B0C0D0E0F1069
:101080001112131415161718191A1B1C1D2F3130A5
:10109000354C11241FBECFEFDAE0DEBFCDBF12E02A
:1010A000A0E0B1E0E8E8F4E602C005900D92A435B6
:1010B000B107D9F726E0A4E5B2E001C01D92A6373A
:1010C000B207E1F70E9467280C9421320C940000CB
:1010D000482F2091740690913B0657E0291302C0D7
:1010E00080E0089530E0529FF001539FF00D1124ED
:1010F000E45CF94F8181681306C08081481303C006
:1011000085818111EECF2F5F3F4F2770E7CFE8ED4C
:10111000F0E080818E7F80831092E2001092DA00EE
:101120001092E100A0EEB0E08C9181608C93808100
:101130008F77808319BCA7EDB0E08C918E7F8C9364
:1011400080818F7E80831092250608952091E4008F
:101150003091E50095E6A9012091EC00822F817085
:1011600020FF06C08091E80080FF06C080E008955F
:101170002091E80022FD1AC080913106882389F071
:10118000853089F08091EB0085FD0FC02091E4004F
:101190003091E50042175307F9F29150E1F684E0EF
:1011A000089582E0089583E0089581E00895809194
:1011B000330687FF13C08091E80082FF06C080914C
:1011C000E8008B778093E80004C08091310681119C
:1011D000F2CF0895809131068823D9F38091E800F9
:1011E00080FFF8CF8091E8008E77ECCF982F909316
:1011F000E900242F762F50E0891731F07091EC0030
:101200002091ED005091F00021FD07C09F5F9730C5
:1012100071F78093E90081E008953091EB003E7F03
:101220003093EB003091ED003D7F3093ED00309135
:10123000EB0031603093EB007093EC002093ED00F5
:101240005093F0002091EE0027FDE0CF80E008955C
:10125000B0E0A0E0EEE2F9E00C94B130C8EDD0E0EF
:1012600088818F7E8883E7EDF0E0808181608083D4
:1012700084E082BF81E08093250688818E7F888309
:1012800002EE10E0F80110821092DA0081EEC82E12
:10129000D12CF601108288818F77888388818068BD
:1012A000888388818F7D888319BC109231061092C3
:1012B00032061092300610922F0690EEE92EF12C95
:1012C000F70180818B7F808388818160888342E001
:1012D00060E080E00E94F608F60180818E7F8083C6
:1012E000F801808181608083808188608083F7013C
:1012F00080818E7F8083888180618883CDB7DEB7CF
:10130000E8E00C94CD30FC018091390690913A06CA
:1013100086179707A0F06115710529F49091E800F0
:101320009E779093E80090E06115710551F491115A
:1013300008C08091E80082FF34C080E00895BC01BD
:10134000F2CF809131068823C1F18530C1F18091BF
:10135000E80083FD30C08091E80082FDEACF8091F3
:10136000E80080FFE1CF8091F3002091F200382F58
:101370006115710519F02830310558F091E02830D9
:10138000310509F090E02091E8002E772093E800E5
:10139000CBCF81918093F100615071092F5F3F4F56
:1013A000E7CF80913106882341F0853041F080916C
:1013B000E80083FFBECF81E0089582E0089583E0D6
:1013C00008950895089587E797E79093010880931B
:1013D000000888E19AE00FB6F894A8958093600021
:1013E0000FBE90936000FFCF2FB7F8946091210655
:1013F0007091220680912306909124062FBF0895B4
:10140000809177010895909178019130D1F4909175
:101410001E0697FF16C0E82FE695E695E695EE3195
:10142000E0F4F0E0E25AFD4F282F277081E090E0D1
:1014300001C0880F2A95EAF78095928189238283DB
:101440000895E8E5F2E09191891303C0DF01119757
:101450001C9292E0EE35F907B1F70895A3E0B0E0F1
:10146000E4E3FAE00C94B73020911C0630911D069D
:1014700028173907A1F090931D0680931C06E09170
:101480001A06F0911B06309751F024E029839B83C4
:101490008A830084F185E02DCE010196099523967B
:1014A000E2E00C94D330A3E0B0E0E9E5FAE00C947C
:1014B000B730209118063091190628173907A1F086
:1014C0009093190680931806E0911A06F0911B0676
:1014D000309751F023E029839B838A830084F18530
:1014E000E02DCE01019609952396E2E00C94D330CD
:1014F00080911506811103C0809117060895E0912F
:101500001A06F0911B06309729F00190F081E02D2A
:101510000995089580E00895DC01ED91FC91119703
:1015200084913196ED93FC930895FC01680F791F27
:101530008FEF91E32191822728E030E087FF09C0F7
:10154000880F892721503109C9F7E617F70791F766
:101550000895880FF7CFFC01EE0FFF1FE80FF91F6A
:10156000EF50FA4F6183408322830895539A089580
:1015700090E06623A1F08B589E4FFC0120812F3F05
:1015800089F0E22FE295EF70F0E080A190E02F70FB
:1015900002C0959587952A95E2F7817008958C5839
:1015A0009E4FEBCF80E0089590E06623E9F08B58E2
:1015B0009E4FFC0180818F3FB1F0E82FE295EF70E4
:1015C000F0E041A18F7021E030E0B90102C0660F68
:1015D000771F8A95E2F7CB01962F9095942391A3DC
:1015E00092A1892B82A308958C589E4FE2CF9091AF
:1015F000EB05E92FF0E04091EC059F012F5F3F4F95
:101600002370332742171306A9F0E351FA4F282F0E
:101610002F7780818078822B60FB87F980839F5FA2
:1016200093709093EB058091E9058F5F8093E905B6
:1016300081E0089580E00895CF93DF932091AC037B
:101640003091AD032D5D3340A901460F571F413046
:10165000524020F060E072E0621B730B4091DF05A6
:101660005091E005FC01C901620F731FC1E0D0E099
:101670008617970738F05093E0054093DF05DF9118
:10168000CF9108952491DC01A352BC4F3C913217B5
:1016900081F02C939C01A5E036952795AA95E1F75A
:1016A000DE0102C0AA0FBB1F2A95E2F79D014A2B5B
:1016B000532B01963196DCCF2091A50336E0839F12
:1016C000C0011124629F800D911D1124811522E01B
:1016D000920714F090E080E083529C4F9093AD030A
:1016E0008093AC030895E9E9F3E01182828184607C
:1016F0008283089521E030E0A90102C0440F551F04
:101700008A95E2F7CA0120919C03662361F0822B3F
:1017100080939C0380919B03806180939B0381E075
:1017200080938F03089580958223F2CF80919D034B
:10173000982F9C7F61F48370846080939D038091D7
:10174000A003813A18F080EA8093A00308958831BD
:10175000B0F383708461F1CFB0E0A0E0E2EBFBE096
:101760000C94B1309B01E82FF0E0E250FC4F3111B6
:1017700009C0E4918E2F7E2F6E2FCDB7DEB7E8E043
:101780000C94CD30E32EF12CE491FE2F0E2F10E0BF
:1017900046E0649FC0011124CFEFD0E0BE010E945B
:1017A0009330AB01822F90E0880F991F25E5249F8D
:1017B000B001259F700D1124861B970B982F990F50
:1017C000980FBE016E197F09609FD001619FB00D17
:1017D000709FB00D11248B2F399F90011124232F5E
:1017E0003327BE01621B730B609F9001619F300D18
:1017F000709F300D11246E01C91AD108CE9CB00122
:10180000CF9C700DDE9C700D1124672F7727C61BAF
:10181000D70BC09F7001C19FF00CD09FF00C11241A
:101820007F2D42305105A1F050F44115510509F4C6
:10183000A3CF4130510581F07B2F832F9DCF4430C2
:10184000510569F080F04630510509F495CFF4CF89
:10185000EB2F8F2D7F2F90CF7E2FE32F8DCFEF2D6E
:101860007B2F8F2F89CF732FEB2FFBCF80E0089535
:1018700081E080938D030895F894E82FE295EF704E
:10188000F0E031A1282F2F7081E090E001C0880F97
:101890002A95EAF7982F9095932391A392A1892BEB
:1018A00082A3789408950F931F938091150688233F
:1018B00029F00E94F4091F910F9108950E94F409E4
:1018C00000912003109121032091220330912303E2
:1018D000600F711F821F931FEECF90911E0692FF23
:1018E00010C041E0282F2471243009F040E031E09D
:1018F000282F2871283009F030E0431711F02CE030
:10190000822793FF10C041E0282F2471243109F071
:1019100040E031E0282F2871283109F030E04317EA
:1019200011F02CE0822730911F0630FF10C051E0EB
:10193000282F2171213009F050E041E0282F287133
:10194000283009F040E0541711F029E0822731FFD8
:1019500010C041E0282F2171213109F040E031E031
:10196000282F2871283109F030E0431711F029E0C1
:10197000822794FD877E089582389105B9F1B0F4ED
:101980008133910509F47DC048F48932910509F449
:101990006DC08A32910509F47BC0089585339105A5
:1019A00009F45FC08933910509F10895833E9105DB
:1019B000D9F138F4803E910529F1823E910579F103
:1019C0000895863E9105D9F1873E910509F43EC000
:1019D000843E910541F520911F0621FF24C080918E
:1019E0001E0684FD19C087EE90E0089520911E0622
:1019F000237009F05AC020911F0623FF14C089E20A
:101A000090E0089520911E0620FD38C030911F06F9
:101A100030FF09C024FF43C090E080E0089520918A
:101A20001E0622FDF7CF089520911E0622FD3AC022
:101A300030911F0630FD39C024FFF5CFEDCF209146
:101A40001E0623FFF0CF24FDE7CFCDCF20911E0649
:101A500023FD2EC030911F0631FFEECF84EE90E0C3
:101A6000089520911E0625FFDECFC9CF20911E06C6
:101A700025FD21C020911F0623FFD5CF89E390E0EB
:101A8000D2CF20911E0626FFCECF8AE290E00895A5
:101A900020911E0626FFC7CF81E390E0089583EED4
:101AA00090E0089582EE90E0089580EE90E0089531
:101AB00086EE90E0089585E390E00895972F7A30C0
:101AC000B8F46630A8F48430B0F470E026E0929F59
:101AD000600D711D1124FB019CE3899FE00DF11D38
:101AE0001124EE0FFF1FE251FE4F8591949108954E
:101AF00080E090E0089581E0FCCF1F93CF93DF93C7
:101B00000E94BC0CEC01C11580E5D807F0F5C115A9
:101B100080E4D80708F0AAC0C03ED10520F5CD3C2E
:101B2000D10508F090C0C83AD10578F4C53AD1057E
:101B300008F081C0C130D10519F1209709F1C430F6
:101B4000D105F0F4D0E0C0E01BC0C33CD105D0F714
:101B5000C85AD0E0CC0FDD1FCE50DE4F0990D8819F
:101B6000C02DD4640DC0C11580E2D80708F0C9C0EB
:101B7000C11581E0D80708F068C0C83ED10510F74C
:101B8000CE01DF91CF911F910895C03682E5D8072D
:101B900018F5C03482E5D80708F079C0C03282E574
:101BA000D80708F06DC0C11582E5D80708F48FC0CA
:101BB0002C2F2695269580E2289F900111248C2FAA
:101BC0008370C1E0D0E002C0CC0FDD1F8A95E2F740
:101BD000C22BD32BDD68D4CFC03C82E5D807F8F404
:101BE000C03A82E5D80708F067C0C03882E5D80758
:101BF00008F0A8CF2C2F26952695277080E2289FE5
:101C0000900111248C2F8370C1E0D0E002C0CC0F72
:101C1000DD1F8A95E2F7C22BD32BDA68B1CFC03E25
:101C200082E5D80708F08ECFDC2FCC27CC27DF71D8
:101C3000C06FD06AA5CFC55AD0E0C151DE4FC88170
:101C4000D0E0D0649DCFD0659BCF8D2F0E946D0CCE
:101C5000182FCE0199270E94BC0CC12FD0E0DC2F99
:101C6000CC27CC27DF71C82BD92B8ACFCE0199275F
:101C70000E94BC0CCC27DF70C82BD92BD06A80CF38
:101C8000CF71D0E0DC2FCC27C16FD06A79CF2C2F59
:101C900026952695277080E2289F900111248C2F8D
:101CA0008370C1E0D0E002C0CC0FDD1F8A95E2F75F
:101CB000C22BD32BDC6864CF8C2F8F710E946D0CEC
:101CC000C82FD0E0DC2FCC27CC27DF7159CF8C2F49
:101CD0008F710E946D0C55E0D695C7955A95E1F726
:101CE000CF70D0E0DC2FCC27282F30E084FF05C058
:101CF00044E0220F331F4A95E1F7C22BD32BD06962
:101D00003FCF8D2F8F710E946D0C182FCE01992718
:101D10000E94BC0CC12FD0E0DC2FCC27CC27DF7178
:101D2000C82BD92BD0622CCF8091740690913B06A2
:101D3000981301C008958F5F8770FACFCF92DF921A
:101D4000FF920F931F93CF93DF936C010091750661
:101D50008091BA03082BC7E0D0E010E0FC2EC80148
:101D60000C2E02C0959587950A94E2F780FD0CC071
:101D70002197A0F7F12C8F2DDF91CF911F910F911B
:101D8000FF90DF90CF900895B6018C2F0E945E0DDA
:101D90000E947D0D019761F3EECFCF93DF93EC01AD
:101DA0000E949E0EBE010E945E0D0E947D0DDF917D
:101DB000CF910895292F9A3078F5863068F590E014
:101DC00036E0239F800D911D1124682F677023E05A
:101DD000969587952A95E1F7FC01EE0FFF1FE80F16
:101DE000F91FE258FD4F50E040E080E0219130E0E3
:101DF000062E02C0369527950A94E2F72170332704
:101E0000042E01C0220F0A94EAF7822B4F5F5F4F26
:101E10004330510559F7089580E00895292F9A30ED
:101E200098F5863088F590E036E0239F800D911D6F
:101E30001124282F277041E001C0440F2A95EAF7AA
:101E400023E0969587952A95E1F7FC01EE0FFF1F99
:101E5000E80FF91FE258FD4F30E020E070E05191AB
:101E6000DF011197CB01022E02C0969587950A9447
:101E7000E2F7817081958527842385278C932F5FD6
:101E80003F4F2330310559F70895CF93C82F61E0B4
:101E90008111682F617080E00E947A0BC1FB662778
:101EA00060F9C11101C060E081E00E947A0BC2FBC1
:101EB000662760F9C11101C060E082E00E947A0BE0
:101EC000C093BA03CF910895FC0124812223C1F06D
:101ED000808191810E94CD0E92959F70963091F0F5
:101EE00058F4925F9F70923058F4803F19F030F4AC
:101EF000883E30F481E008959A5FF4CF843FD1F3B7
:101F000080E00895883EB0F3813FD1F7F3CF982F5A
:101F100092959F7011F0892F94E0282F2695269591
:101F200011F09E5F822F869509F09F5F892F08959B
:101F3000A6E0B0E0EEE9FFE00C94B63026E0FC014C
:101F4000DE01119601900D922A95E1F7FC012581A1
:101F500089819A81222399F0662389F00E949E0E3E
:101F6000182F682F89819A810E940E0F69817A81CA
:101F7000812F0E945E0D2696E3E00C94D2300E94E1
:101F8000DA0E182FF3CFCF93C82F81FB662760F9A5
:101F9000811101C060E081E00E947A0BC2FB6627DC
:101FA00060F9C11101C060E082E00E947A0BC3FBBE
:101FB000662760F9C11101C060E083E00E947A0BDE
:101FC0008C2FCF9108950E94C30F809375060895BA
:101FD00080917506982F9670963021F488600E9443
:101FE000E30F0895877FFBCF21E030E001C0220F8F
:101FF0008A95EAF720958091750682230E94E30F67
:10200000089521E030E001C0220F8A95EAF780911F
:102010007506822B0E94E30F08950F931F93CF93B1
:10202000DF938B01EA0190913106943061F5809342
:10203000E9008FEF9091E800815095FD06C095ED85
:102040009A95F1F700008111F5CF8091E80085FFA6
:102050001AC00E94A608811111C08091E80085FD78
:1020600006C08091E8008E778093E800F2CFF801F7
:1020700081918F018093F100219779F78091E80099
:102080008E778093E800DF91CF911F910F91089593
:1020900043E050E0BC0182E00E940D10089540E250
:1020A00050E0BC0182E00E940D100895CF93DF93B1
:1020B000EC0148E050E0BC0181E00E940D1088E096
:1020C000FE01A7E2B6E001900D928A95E1F7DF915B
:1020D000CF9108953BB1377F2BB128604FB7F8946B
:1020E00081EF95E0FC015191CF0168E02BB9000030
:1020F00000C057FF3BB9550F000000C000C000C032
:102100003BB900C06A9591F7F6E085319F0751F71A
:102110004FBF8FE594E00197F1F700C000000895EC
:10212000B0E0A0E0E6E9F0E10C94AF307C015B01A7
:102130006A0180911F0301E010E08A3010F40AE088
:1021400010E0C1E0D0E0B501C701F60109958111A9
:1021500004C021960C171D072CF4CDB7DEB7EAE0BA
:102160000C94CB30CC9F9001CD9F300D300D1124BD
:1021700090E080E045E34A95F1F700000196821770
:102180009307C1F7E0CF809126069091BD02892B7D
:1021900090917801913049F590911E0697FF25C0E6
:1021A00080935F0240E250E06DE972E08EE592E0DC
:1021B0000E94B331892BC1F080E2EEE5F2E0ADE997
:1021C000B2E001900D928A95E1F7E0911A06F09144
:1021D0001B06309749F086E080935E020480F5810B
:1021E000E02D8EE592E0099508958093560248E02F
:1021F00050E06EEB72E086E592E00E94B331892BED
:1022000099F388E0E6E5F2E0AEEBB2E001900D92E2
:102210008A95E1F7E0911A06F0911B06309721F3B9
:102220000280F381E02D86E592E0DDCF8091780198
:102230008130C1F480911E0687FF14C0E0E6F2E011
:102240008EE1DF011D928A95E9F790E080E00E941F
:10225000530A90E080E00E942E0A1092BD020E9474
:10226000C3100895E8E5F2E086E0EBCFAAE2B0E023
:10227000ECE3F1E10C94B63083E396E02091F100B9
:10228000FC012193CF01F6E08B339F07B9F78091D2
:102290003406833009F470C0B8F4813009F447C0C3
:1022A000823009F4B7C08091E80083FF8BC280912F
:1022B0003306909134069A3008F084C2E92FF0E09A
:1022C000ED5DFD4C0C943F318A3009F492C08B30A7
:1022D00009F46FC0893039F780913306813219F7DC
:1022E00080913706909138060297E8F68091E800D1
:1022F000877F8093E8008091E80082FF38C090914A
:10230000F3008091F200029731F48091F100813066
:1023100011F0863021F48091F10080937701809153
:10232000E8008B778093E8000E94D708BCCF8091AB
:102330003306813A09F0B7CF8091E800877F809318
:10234000E8008091370690913806892B61F468E0A7
:1023500087E296E070E00E9483098091E8008B7725
:102360008093E800A0CF60E090E080E0F3CF809120
:1023700031068111C0CF97CF80913306813A09F0A1
:1023800092CF8091370690913806892B09F08BCF38
:102390008091E800877F8093E8008091E80080FFCB
:1023A000FCCF809178018093F1008091E8008E77D6
:1023B000B9CF80913306813209F075CF809137060D
:1023C00090913806892B09F06ECF8091E800877FC5
:1023D0008093E8000E94D70881E090913506911122
:1023E00001C080E080937801109226060E941611A9
:1023F0005ACF80913306813209F055CF8091E800A1
:10240000877F8093E8000E94D708809136068093EA
:10241000760149CF80913306813A09F044CF80910B
:10242000E800877F8093E8008091E80080FFFCCF80
:1024300080917601B8CF803899F0823809F0C2C116
:10244000809137068F70873008F0BCC18093E90017
:102450008091EB0085FB882780F91092E90006C087
:1024600080912F0690913006911182609091E80042
:10247000977F9093E8008093F1001092F100809193
:10248000E8008E779BC1882309F489C1823009F066
:1024900099C18091350681118CC1809137068F706A
:1024A0002FEF280F263008F08DC18093E90020918E
:1024B000EB0020FF7EC1933031F48091EB0080620D
:1024C0008093EB0076C19091EB0090619093EB00CC
:1024D00021E030E001C0220F8A95EAF72093EA005C
:1024E0001092EA008091EB008860EACF81116AC106
:1024F000109135061F778091E3008078812B8093BF
:10250000E3008091E800877F8093E8000E94D7086D
:102510008091E80080FFFCCF8091E3008068809389
:10252000E30082E0111183E0809331064BC18058B3
:10253000823008F047C180913506909136068C3D77
:1025400023E09207A1F583E08A838AE289834FB76B
:10255000F894DE01139620E03EE051E2E32FF0E034
:1025600050935700E49120FF03C0E295EF703F5F66
:10257000EF708E2F90E0EA30C0F0C7968D939D9358
:102580002F5F243159F74FBF8091E800877F8093F8
:10259000E8006AE270E0CE0101960E948309809112
:1025A000E8008B778093E8000DC1C096E7CF40919B
:1025B000370650913806292F33272330310509F487
:1025C00044C078F52130310509F46FC08BE390E009
:1025D000E7E6FFE02230310509F0F4C02091E80081
:1025E000277F2093E8002091390630913A06821720
:1025F000930708F49C0140E02115310509F064C0FF
:10260000411162C08091E80082FDC9CF80913106FE
:10261000882329F2853019F28091E80083FFF2CFF8
:10262000BECF21323105A9F12232310509F0CAC0ED
:102630004115510509F443C04130510509F0C2C0AC
:102640008DE690E0E6EBFEE0C9CF99278130910559
:10265000C1F0009759F0029709F0B4C0E4EBFFE035
:10266000E4918E2F90E0E4EBFFE007C0EEEDFFE099
:10267000E4918E2F90E0EEEDFFE0009709F4A2C008
:10268000ADCFE2ECFFE0E4918E2F90E0E2ECFFE0D2
:10269000F4CF4115510571F04130510509F092C058
:1026A00089E090E0E2E9FFE099CF82E190E0E2EAA0
:1026B000FFE094CF89E090E0E9E7FFE08FCF84E48A
:1026C00090E0E3E2FFE08ACF80913106882309F4AD
:1026D00066CF853009F463CF8091E80083FD5FCF3A
:1026E0008091E80082FD8ECF8091E80080FF84CF4A
:1026F0009091F3008091F2002115310519F0883096
:10270000910550F041E0089709F040E08091E80021
:102710008E778093E80070CF44914093F10031961A
:10272000215031090196E8CF803809F04BC08091E3
:10273000E800877F8093E800809132068093F10063
:102740009ECE81113FC0109135061230D8F5809190
:10275000E800877F8093E800109332060E94D70834
:10276000112311F084E005C08091E30087FDFACFCA
:1027700081E08093310642E061EC81E00E94F6083E
:1027800042E261EC82E00E94F608809131068430DA
:1027900021F081E08093790115C082E0FBCF809128
:1027A0003506813079F481E0933009F080E0809340
:1027B00030061092E9008091E800877F8093E8005E
:1027C0000E94D7088091E80083FF0AC08091E8004A
:1027D000877F8093E8008091EB0080628093EB001C
:1027E000AA96E3E00C94D230109226060E941611AD
:1027F0002FEF84E39CE0215080409040E1F700C03F
:10280000000088E19AE00FB6F894A89580936000E4
:102810000FBE90936000FFCF882341F08095909188
:1028200026068923809326060E94C31008958823D4
:1028300039F090912606982B909326060E94C3109B
:102840000895882371F19CEF980F913A28F40E9423
:10285000030A0E94C310089590E2980F983088F4FC
:10286000877021E030E0A90102C0440F551F8A950E
:10287000E2F7CA0180959091260689238093260667
:10288000E8CF9BE5980F933028F490E080E00E9419
:10289000530A0895885A8B3120F490E080E00E941A
:1028A0002E0A0895CF93C82F882309F450C08CEFC7
:1028B0008C0F813A08F065C080917801813001F574
:1028C00080911E0687FF1CC0EC2FE695E695E695E5
:1028D000F0E0E25AFD4F828190E04C2F477021E0FA
:1028E00030E002C0220F331F4A95E2F78223932380
:1028F000892BB9F08C2F0E94030A0E94C31009C0D3
:10290000E8E5F2E08191C817A9F382E0EE35F80717
:10291000C9F7809178018130E1F480911E0687FF2C
:1029200018C0AC2FA695A695A695B0E0A25ABD4FAB
:10293000C77021E030E001C0220FCA95EAF7129675
:102940008C911297822B12968C930E94C310CF9178
:102950000895A8E5B2E0EFEF80E09D91C917A9F3D3
:10296000EF3F19F4911101C0E82F8F5F8630A9F76E
:10297000EF3F59F30E2E000CFF0BEA5AFD4FC283B6
:10298000E4CF80E28C0F883068F4C77021E030E03B
:1029900001C0220FCA95EAF780912606822B809308
:1029A0002606D3CFEBE5EC0FE33040F4F0E0E15145
:1029B000FE4F808190E00E94530AC9CFC85ACB31A4
:1029C00030F6EC2FF0E0EE0FFF1FEE50FE4F80814F
:1029D00091810E942E0ABBCF1F93CF93DF93182FB4
:1029E000EB010E945214209739F4812F0E94211488
:1029F000DF91CF911F9108958FE99FE00197F1F743
:102A000000C000002197EFCF6AE070E0893311F435
:102A100060E570E00E94EC140895A2E0B0E0E3E10C
:102A2000F5E10C94AF309A8389838AE0A82ECE0119
:102A300001960E948C0A8823B1F1813009F04DC0C3
:102A4000CE0101960E948C0A813039F4CE010196A4
:102A50000E948C0A0E940415EACF823039F4CE011C
:102A600001960E948C0A0E945214E1CF833039F4FF
:102A7000CE0101960E948C0A0E942114D8CF843086
:102A800081F4CE0101960E948C0A10E000E0482FEC
:102A90004053550B9A014A30510548F00115110574
:102AA00099F48111C4CF2296EAE00C94CB30A09E19
:102AB000C001A19E900D11248901080F191FCE019C
:102AC00001960E948C0AE3CFEFE9FFE03197F1F71E
:102AD00000C0000001501109E1CFE82FF0E0EE5EE8
:102AE000FF4EB490282F26952695269530E0F901C3
:102AF000EE5FFF4EE4908770F12C082E02C0F59433
:102B0000E7940A94E2F7F1E0EF22FF24F901EE5096
:102B1000F04FC490D12C082E02C0D594C7940A94CB
:102B2000E2F741E0C422DD24F901EE51F04F0491B7
:102B300010E002C0159507958A95E2F701701127FC
:102B4000E114F10419F081EE0E945214C114D10471
:102B500019F086EE0E94521470E060E08B2D0E9406
:102B6000EC14C114D10419F086EE0E942114E11472
:102B7000F10419F081EE0E9421140115110509F4E8
:102B800056CF8CE267CF80E09091EC052091EB0569
:102B9000291789F1E92FF0E0E351FA4F808187FB93
:102BA000222720F98F779F5F93709093EC05909187
:102BB000EA059F5F9093EA05882349F0813079F414
:102BC0002223A1F08EE40E9404158EE406C0222385
:102BD00041F08AEA0E94041589EA0E94041581E006
:102BE000D3CF89EA0E9404158AEAF7CF8BE40E94CA
:102BF00004158BE4F2CF08951F93CF93DF93162F24
:102C00008A3039F481E00E94B816DF91CF911F918C
:102C100008958D3011F480E0F6CFC091AC03D091CF
:102C2000AD0396E0FE01A6EAB3E001900D929A95FD
:102C3000E1F7803E90F186E0FE0111928A95E9F776
:102C4000C091AC03D091AD03111133C046E050E008
:102C5000BE0186EA93E00E94B3319E012D5D3340B0
:102C6000892B91F52A5F3F4F4091A503642F70E0B7
:102C7000C9010E949330481B463010F4240F311DC7
:102C8000211572E0370710F030E020E023523C4F6E
:102C90003093AD032093AC03B8CFF6E08F9FB00123
:102CA000112462507A4F46E050E0CE010E949D31DF
:102CB000C7CF9E012A5F3F4FFE012E173F0731F21B
:102CC000808180958193F9CFC90145E096958795DC
:102CD0004A95E1F741E050E0BA0102C0660F771F64
:102CE0008A95E2F7CB016091DF057091E005862BB4
:102CF000972BB9016B5F7F4FE5E076956795EA9575
:102D0000E1F702C0440F551F6A95E2F7842B952B1B
:102D10009093E0058093DF05A5CF0F931F93CF938A
:102D2000DF93EC01FC0101900020E9F78F010150D5
:102D30001109C017D10728F0DF91CF911F910F9192
:102D4000089560E089910E94FC15F3CF1F93CF9303
:102D5000DF93EC01162FFE018491811104C0DF91F5
:102D6000CF911F910895612F0E94FC152196F3CFFA
:102D7000CF93382FE091AC03F091AD03ED5DF340BC
:102D80002091A503622F70E0CF010E949330281B91
:102D9000822F332369F066E00E94DE30C82FC150D5
:102DA00010F4CF91089560E080E20E94FC15F7CF07
:102DB0009F01280F311D2115324018F080E0F0E00E
:102DC000E0E08E0F9F2F911D83529C4F9093AD0397
:102DD0008093AC03E6CF0E94A61681E00E94B8164D
:102DE0000895A5E0B0E0E7EFF6E10C94AB308091F8
:102DF0009D0380FF0DC080909103909092038114F9
:102E00009104C9F40E946A102596EEE00C94C73034
:102E10001091680180916901181768F78091660127
:102E2000212F281B822F20E040E060E090E00E94EC
:102E3000AB0A1F5FEFCF809190038111E3CFD12CBC
:102E4000C12C66246394712C80919C0393010C2CFB
:102E500001C0220F0A94EAF7822309F43DC0F6016B
:102E6000EE0FFF1FE80DF91DE590F490E114F10459
:102E700049F245E050E0B701CE0101960E949D3134
:102E800009810F3F49F110E0AA80A00EB12EB11CBC
:102E90008DE0A816B1041CF08CE0A82EB12C0A1508
:102EA0001B0524F085E0E80EF11CE3CF7C818D81C9
:102EB000813A08F080EA6B810E94AC0B472F909119
:102EC0006601202F291B922F282F892F90E00E9426
:102ED000AB0A0F5F1F4FE3CF9FEFC91AD90A25E056
:102EE000C216D10409F0B0CF8DCF0F931F93CF93AB
:102EF000DF93D82F162F042F80919D03C091680176
:102F000080FD11C0DF91CF911F910F9108958091A5
:102F100066019C2F981B892F202F412F6D2F90E049
:102F20000E94AB0ACF5F80916901C81780F30E94AD
:102F3000F116E8CFCF93DF93EC01EC81F0E0E250A3
:102F4000FB4F849190919D0390FF0FC070919F0360
:102F500060919E03813A08F080EA0E94AC0B962FA4
:102F6000672F482F892F0E9475178C818F5F8C8364
:102F7000DF91CF910895EDE9F3E080818E7F80832A
:102F80000E94730BE9E9F3E08281816082830E94F1
:102F9000F1160895AB0124E630E0BC0188E70E94F9
:102FA000472E21E0892B09F020E0822F089580919F
:102FB000E5059091E805911103C091E089270895F6
:102FC000882369F062E070E080E49BE00E94CA1709
:102FD000811103C08091E50508951092E505809167
:102FE000E505EBCFCF93C091E5058091E8058823F7
:102FF000D1F00E94F409605A75418F4F9F4F609342
:10300000E1057093E2058093E3059093E405C11117
:1030100008C062E070E08EE39BE00E94CA17811155
:1030200005C0C091E5058C2FCF91089581E0809374
:10303000E505F7CFCF93DF93C1E0D0E001C0CC0F1F
:103040008A95EAF76C2F83E090E00E94ED318C2F97
:103050000E94450FDF91CF910895B0E0A0E0E3E337
:10306000F8E10C94AD3049015A016B017C010E94DA
:10307000960B8401A4016A2D7B2D88E090E00E94CC
:10308000FF3194014A2D5B2DB601C70100E20E9479
:103090007331622F83E290E00E94ED31CDB7DEB74D
:1030A000ECE00C94C9300F931F93CF93DF93182F4C
:1030B000D62FC42F022F80919D0380FF42C0909194
:1030C0009E03911308C090919F03961304C09091A2
:1030D000A003941729F090919B03926090939B0317
:1030E000E82FE695E695F0E0EB5BFD4F908190933D
:1030F00099038C7F843051F58C2FC13A08F080EA17
:10310000612F7D2F0E94AC0B962F672F482F892FA0
:103110000E94751710939E03D0939F03C093A00342
:10312000002379F020919D036091A1037091A20387
:10313000312F4D2F5C2F8091A3039091A4030E9407
:103140002D18DF91CF911F910F910895923011F7B3
:10315000C091A003DFCFEDE9F3E0438121E1421B01
:1031600008F440E021E0628181810E9453180895B3
:10317000EDE9F3E0438121E1420F08F44FEF21E054
:10318000628181810E9453180895EDE9F3E0628124
:1031900021E1621B08F460E021E0438181810E940B
:1031A00053180895EDE9F3E0628121E1620F08F41C
:1031B0006FEF21E0438181810E9453180895EDE96A
:1031C000F3E0818121E04381628188500E9453189D
:1031D0000895EDE9F3E0818121E043816281885F18
:1031E0000E94531808958091A103882319F08150FB
:1031F0008093A10320919D0330919E0340919F03F2
:103200005091A0036091A1037091A2038091A30348
:103210009091A4030E942D1808958091A1038330FA
:1032200018F48F5F8093A10320919D0330919E033A
:1032300040919F035091A0036091A1037091A2035C
:103240008091A3039091A4030E942D180895CF921A
:10325000DF92EF92FF921F93CF93DF9300D000D0C5
:10326000CDB7DEB7C0900B03D0900C03E0900D03F8
:10327000F0900E030E94F4096C197D098E099F09D4
:1032800011E0643671058105910570F10E94530CBF
:103290006E5F7F4F8F4F9F4F69837A838B839C83B1
:1032A00080913101909132018C519D4F40913001BC
:1032B00050E04530510510F044E050E0BE016F5F32
:1032C0007F4F0E94C03186E090E00E941D30182F91
:1032D000882351F00E94F40960930B0370930C0350
:1032E00080930D0390930E03812F0F900F900F90FA
:1032F0000F90DF91CF911F91FF90EF90DF90CF90D3
:103300000895B0E0A0E0E7E8F9E10C94AD30C82FF3
:103310007B01D42F6901FB0180809180A280B38062
:103320000E94F409681979098A099B0964367105B4
:103330008105910510F4DD2359F10C2E000CDD0BF5
:10334000FE0183E0EE0FFF1F8A95E1F7E050FF4F8B
:10335000818192818C519D4F408150E00417150767
:1033600008F4A801B6010E94C031CE010E941D30B0
:10337000C82F882339F00E94F409F7016083718314
:10338000828393838C2FCDB7DEB7ECE00C94C930E9
:10339000C1E0F8CFACE0B0E0E0EDF9E10C94B5307D
:1033A00088E0EDE9F3E0DE01119601900D928A9537
:1033B000E1F78091990390919A03A0919B03B091BA
:1033C0009C0389879A87AB87BC8741E08B858111F5
:1033D00001C040E00CE010E09E012F5F3F4F6BE129
:1033E00073E08AE00E948119811110929B032C9650
:1033F000E4E00C94D130A1E0B0E0E1E0FAE10C941B
:10340000B5300E94780A898341E09091FE029813BA
:1034100001C040E001E010E09E012F5F3F4F67E1F7
:1034200073E089E00E9481192196E4E00C94D13088
:103430000F931F9341E09091FC02809175069813C1
:1034400001C040E001E010E025E736E063E173E011
:1034500087E00E948119882389F041E09091FD0264
:103460008091BA03981301C040E001E010E02AEB1C
:1034700033E06FE073E088E00E9481191F910F91A3
:1034800008950F931F93CF93DF93EC0145E050E035
:103490006AEE72E00E94B33141E0892B09F440E00A
:1034A00005E010E09E016BED72E082E00E94811960
:1034B000DF91CF911F910F910895A1E0B0E0E3E675
:1034C000FAE10C94A930D62E4A015901682E880FD2
:1034D0007708C3010E941D30C82E882309F46AC0F2
:1034E000C30133E0880F991F3A95E1F7FC01E050E2
:1034F000FF4F438150E04115510511F041E050E08C
:1035000080509F4FFC01648175816C517D4FCE01CD
:1035100001960E94C031F401408051806280738026
:103520000E94F409641975098609970964367105C2
:103530008105910538F4B701C8010E94950A998167
:103540008917C1F16D2C0D2C000C7708C3010E9466
:103550001D30C82E811106C0C12C8C2D2196E0E1B2
:103560000C94C530C30123E0880F991F2A95E1F719
:10357000FC01E050FF4F438150E0E416F50608F4EB
:10358000A70180509F4FFC01648175816C517D4F74
:10359000C5010E94C031B701C8010E94950A9981F6
:1035A0008913DACF0E94F409F40160837183828366
:1035B0009383D3CFA701B801C5010E94C031CDCFFD
:1035C000A8E0B0E0E6EEFAE10C94B33088E0E82E33
:1035D000F12C00EF12E09E012F5F3F4F40EE52E0D2
:1035E00064E083E00E945D1A082F882389F190919E
:1035F000EF028091DF02981759F110E09091F302E9
:103600008091F2028917F1F0E92FF0E0E851FD4FC7
:10361000848587FB662760F99F5F93709093F30220
:103620009091F1029F5F9093F1028F770E94F70AC9
:10363000182F8111E3CF85E090E00E941D30012F0B
:10364000082302C01111F7CF8091EF028093DF02AF
:10365000802F2896E6E00C94CF30A5E0B0E0E3E3BD
:10366000FBE10C94B1306B0185E0E82EF12C05EE06
:1036700012E09E012F5F3F4F47ED52E061E080E096
:103680000E945D1A882349F095E0FE013196A2ED73
:10369000B2E001900D929A95E1F795E0E2EDF2E04B
:1036A000D60101900D929A95E1F72596E8E00C94E9
:1036B000CD30A8E0B0E0EFE5FBE10C94B73065EE6B
:1036C0007EEF90E080E00E940B3260E082E090E0CC
:1036D0000E94ED3181E08093BA0361E083E090E0E5
:1036E0000E94ED3160E074E184E090E00E940B32D2
:1036F00060E086E090E00E94ED3160E087E090E0DD
:103700000E94ED3140E050E0BA0188E090E00E9474
:10371000FF3160E083E290E00E94ED3160E08CE0F8
:1037200090E00E94ED3160E08DE090E00E94ED318C
:1037300019821A821B821C821D821E821F82188699
:1037400048E050E067E170E0CE0101960E94DD3173
:1037500040E050E0BA018FE190E00E94FF3140E08C
:1037600050E0BA018FE090E00E94FF3140E050E06D
:10377000BA0183E190E00E94FF312896E2E00C94C8
:10378000D3301F920F920FB60F9211242F933F93B5
:103790004F935F936F937F938F939F93AF93BF9359
:1037A000CF93DF93EF93FF93D091E900DF70809187
:1037B000EC00C82FC17080FDC0E81092E900809134
:1037C000F000877F8093F00078940E943611109269
:1037D000E9008091F00088608093F000CD2BCF70DD
:1037E000C093E900FF91EF91DF91CF91BF91AF912D
:1037F0009F918F917F916F915F914F913F912F9109
:103800000F900FBE0F901F9018951F920F920FB63A
:103810000F9211242F933F934F935F936F937F9356
:103820008F939F93AF93BF93EF93FF938091E100AA
:1038300082FF09C08091E20082FF05C08091E10013
:103840008B7F8093E1008091DA0080FF24C080911B
:10385000D80080FF20C08091DA008E7F8093DA004C
:103860008091D90080FFAAC080E189BD82E189BD35
:1038700009B400FEFDCF81E08093310680912506DA
:10388000811109C00E9487080E9428098091E200E6
:1038900084608093E2008091E10080FF1AC08091F3
:1038A000E20080FF16C08091E2008E7F8093E200EC
:1038B0008091E20080618093E2008091D800806274
:1038C0008093D80019BC85E08093310683E0809313
:1038D00079018091E10084FF30C08091E20084FF93
:1038E0002CC080E189BD82E189BD99B5892F8170A5
:1038F00090FFFBCF9091D8009F7D9093D80090913E
:10390000E1009F7E9093E1009091E2009F7E909372
:10391000E2009091E20091609093E2009091320673
:10392000992309F451C094E09093310690913106A7
:10393000943009F482E0809379018091E10083FF63
:103940002CC08091E20083FF28C08091E100877F36
:103950008093E10082E080933106109232068091DC
:10396000E1008E7F8093E1008091E2008E7F809362
:10397000E2008091E20080618093E20042E060E03A
:1039800080E00E94F6088091F00088608093F0004B
:1039900081E08093790180937801FF91EF91BF914D
:1039A000AF919F918F917F916F915F914F913F91D7
:1039B0002F910F900FBE0F901F90189519BC109269
:1039C00031061092250667CF9091E30097FD02C063
:1039D000982FAACF93E0A8CF78941F921FB61F927A
:1039E00011248F939F93AF93BF9380912106909161
:1039F0002206A0912306B09124060196A11DB11DB7
:103A00008093210690932206A0932306B093240668
:103A1000BF91AF919F918F911F901FBE1F901895DE
:103A20002FB7F8948091210690912206A091230649
:103A3000B09124062FBF08952F923F925F926F920C
:103A40007F928F929F92AF92BF92CF92DF92EF922E
:103A5000FF920F931F93CF93DF938091E805882304
:103A600009F40BC1C091E605D091E7050E94101D35
:103A70008C1B9D0BC29708F4E0C00E94101D909310
:103A8000E7058093E60560E080E00E945C0B809192
:103A9000AE0390E09093BC038093BB030E94780A2E
:103AA00080911506882309F4C8C060E080E00E9478
:103AB0005C0B80911F0680FD06C060E470E086E725
:103AC0009EE00E941C0B63E080E00E945C0B8091F2
:103AD000BA030E94870F60E0811121C080E79EE059
:103AE0000E94EB168AE791E00E948D1666E080E066
:103AF0000E945C0B809175060E94870F813009F44B
:103B0000D2C0882389F0823009F4C9C0833009F417
:103B1000CEC060E088E49EE00E94EB160AC08AE610
:103B20009EE00E94A616DECF60E084E69EE00E9442
:103B3000A61668E080E00E945C0B0E94780A81FB78
:103B4000662760F982E49EE00E94EB16C090B603FF
:103B5000D090B703E090B803F090B9030E94F40945
:103B60006C197D098E099F09693C710581059105D4
:103B700008F43EC00E94F4096093B6037093B70343
:103B80008093B8039093B9038091B103811104C06D
:103B900080916C0181118FC06FE080E00E945C0B0E
:103BA00089EE91E00E948D166CE080E00E945C0B33
:103BB00081E080936C018091B00390E00196817068
:103BC00099278093B00321E030E0281B390B40E6B1
:103BD000429FC001439F900D11242091AF032223E7
:103BE00009F476C060E670E08E57924F0E941C0B7D
:103BF0008091BB039091BC03181619060CF47BC08E
:103C0000C090B203D090B303E090B403F090B5033A
:103C10000E94F4096C197D098E099F0961367A4E5C
:103C20008105910550F060E080E00E945C0B80E827
:103C300091E00E948D160E94D7178091DF05909128
:103C4000E005892B09F067C08091E5058823A9F07C
:103C50000E94F4090091E1051091E2052091E3052D
:103C60003091E405601B710B820B930B6F3F7F4F0C
:103C70008F4F9F4710F40E94D717DF91CF911F916C
:103C80000F91FF90EF90DF90CF90BF90AF909F90FB
:103C90008F907F906F905F903F902F90089560E09D
:103CA0008DE59EE044CF60E086E59EE040CF60E099
:103CB0008FE49EE03CCF6CE080E00E945C0B89EEDC
:103CC00091E00E948D166DE080E00E945C0B73CF46
:103CD0002091BB033091BC0360E670E02B303105CE
:103CE0001CF48E53934F82CF293231058CF48E5FB2
:103CF000934F0E941C0B0E94F2170E94F4096093DC
:103D0000B2037093B3038093B4039093B50395CF3C
:103D10008E5B944FEECF8091E805882309F494CF11
:103D20008091DE05811190CF0E94F2172091DF056E
:103D30003091E0052115310509F486CF80E041E09E
:103D400050E0082F10E01A01082E02C0220C331C8C
:103D50000A94E2F7B10162237323672B11F48F5F9A
:103D6000F0CF9091DD0590FF95C0880F880F880FE8
:103D700080936F0110927201895F8093700183E0DC
:103D80008093730124E630E047E050E06DE671E097
:103D900088E70E94032E892B09F056CFA80125E061
:103DA000440F551F2A95E1F78091DD0580FF84C0FF
:103DB000EDEBF3E080E2DF011D928A95E9F7AFE4D5
:103DC000B2E00BE412E083E5C82E82E0D82E97E043
:103DD000592E772473948D91E80129918E01240F37
:103DE000352F311D23523C4FE82FF0E0E354FC4FB8
:103DF00090E080E0652C681A872C082E01C0880CA2
:103E00000A94EAF77901A12CE701B9907E01B82064
:103E1000662D6A196770962E062E000C770BDB2D27
:103E200001C0DD0F9A94EAF7719561957109677089
:103E3000772701C0B6946A95EAF7BD2A6081962E6D
:103E40009B289082A39468E0A612DECF019631965B
:103E50008830910579F6CA16DB0609F0BCCF04E676
:103E600010E020E230E04DEB53E060E488E70E9490
:103E70008D2E892B09F0E8CEE101C095D095809177
:103E8000DF059091E005C823D923D093E005C093C6
:103E9000DF05DACE8295880F807680936F019801D6
:103EA000369527953695279520937201815E8093EC
:103EB00070012093730166CF43525C4F04E610E01B
:103EC00020E230E0D2CF80911506882319F00E94BD
:103ED000101D08950E94530CCB01089560919D031D
:103EE0006695669570E041E050E08BE691E00E94B7
:103EF000A631892B19F481E080939A030E94631FF5
:103F0000909394038093930380919B0384608093A8
:103F10009B03089590919D0390FF3AC09370811187
:103F200038C0946090939D0380919B03816080933F
:103F30009B03662391F020919D0330919E03409155
:103F40009F035091A0036091A1037091A2038091FF
:103F5000A3039091A4030E942D1860919D03669580
:103F6000669570E041E050E08BE691E00E94A6315A
:103F7000892BB9F00E94730B81E08093960320E0B7
:103F80004091A00360919F0380919E030E9453186B
:103F90000895863010F09461C5CF880F880F982B54
:103FA000C1CF0E946E1FE8CF80919D0386958695B4
:103FB000815009F485E061E00E948A1F0895809194
:103FC0009D03869586958F5F863008F081E061E0DD
:103FD0000E948A1F0895B0E0A0E0E1EFFFE10C9499
:103FE000B2308C01FC018481882309F4B5C361E0FF
:103FF000C8010E94980FF801C581CC2309F4ECC2D6
:104000009C013A9521153F44C8F59C013327A9012D
:10401000445051094432510528F02B5231092E30B9
:10402000310590F4E0914D03F0E0EE0FFF1FEE5AE2
:10403000FC4F208131812F3F4FE7340709F41DC326
:104040002F5F3F4F3183208380342EE79207F1F0BA
:1040500008F06EC38C37910579F108F05CC38A379C
:10406000910509F44BC0E8F58C32910509F066C062
:1040700021E02093B10310926C0160C030E020E099
:104080008F3F910509F018F69C01C1CF80E00E9496
:104090001A1862C3CC2321F082E00E9401105AC397
:1040A00082E056C3CC2309F457C381E0F0CF82E00D
:1040B000CC2309F451C3EBCF81E00E946D0CCC23DB
:1040C00031F00E94171486E00E94521445C30E94EA
:1040D0000C1486E00E9421143FC30E940C1489E155
:1040E000F9CF81E00E946D0CCC2321F00E941714BF
:1040F0008BE1EACF0E940C148BE1ECCF81E00E94AF
:104100006D0CCC2321F00E9417148DE1DDCF0E94AD
:104110000C148DE1DFCFCC2309F41EC38CE991E0B0
:104120000E940D1519C3CC2309F416C38AE491E04B
:10413000F7CFCC2381F021E02093AF032091260616
:104140002272FC01E052F847EB30F10530F4E35DF8
:10415000FD4C0C943F311092AF039C01205E324520
:104160002032310508F089C08F71CC2309F48FCF3C
:10417000F801E080F180C701CC2309F4A4C00E94BB
:104180009E0EC82F682FC7010E940E0FB7018C2FFB
:104190000E945E0D0E947D0DC82FD82EF80125814A
:1041A000368132953F70892F82958F70E82EF12CE1
:1041B0008C3008F0BFC0F701E85CFD4C0C943F3137
:1041C00080919D0380FF1EC0282F2E7F20939D038A
:1041D00030919E0340919F035091A0036091A103F1
:1041E0007091A2038091A3039091A4030E942D18C3
:1041F0000E94730B80919B03816080939B030E94BC
:10420000F116AAC2816080939D0361E08695869530
:104210000E948A1FA1C2222329F00E94D41F9CC29F
:104220002223D9F30E94DF1F97C2222329F00E9484
:10423000DF1892C22223D9F30E94E9188DC22223EB
:1042400029F00E94C51888C22223D9F30E94D218EF
:1042500083C2222329F00E94AB187EC22223D9F305
:104260000E94B81879C2222329F00E94F31874C260
:104270002223D9F30E940D196FC2CC2309F478CF01
:104280008130ECE79E07E9F08330FCE79F0799F067
:1042900081159C4709F06CCF109226060E941611DA
:1042A0004FEF84E39CE0415080409040E1F700C034
:1042B00000000E94E3096FEF7FEF90E080E00E9432
:1042C0000B320E94F4130E94DA0EC82F5FCFD92F51
:1042D000DF70907F11F0D295D07F8C2F2223C9F010
:1042E000DD2369F090E29C0F983010F0C1110BC0F3
:1042F00080912606D82BD09326060E94C3108C2FBF
:104300000E94521417C08091BD02D82BD093BD02D9
:10431000F4CF0E942114DD2369F0D095C05EC8302F
:1043200010F0D11025C080912606D823D093260600
:104330000E94C310F8E0EF1AF10824E0E216F1043D
:1043400010F40E94780A60E0C8010E94980F82343D
:104350004EE7940709F436C18334EEE79E0709F46B
:1043600023C181349E4709F021C140E060E02CC1A7
:104370008091BD02D823D093BD02DACF892F8F70F0
:10438000907F903211F08295807FF1E0DF120CC0B7
:10439000222329F0363070F60E941714CBCF353027
:1043A00048F60E940C14C6CF222319F03323A1F340
:1043B000A6CF3323B1F3C93309F0EEC02FEF47EE98
:1043C00083E0215040408040E1F700C000008C2F86
:1043D0000E942114AFCF892F86958695837061F056
:1043E000813009F0A7CF8C2F9370211102C080E09B
:1043F00090E00E942E0A9ECF8C2F9370211102C054
:1044000080E090E00E94530A95CF892F8370A1F538
:10441000211190CF8C2F829586958770880F880FF9
:104420004C2F4F70082E01C0440F0A94EAF72C2F2E
:104430002071C4FF07C02FE030E001C0220F8A9531
:10444000EAF72095969596959370923081F0822F99
:10445000842B933030F48091BA03913029F0242BCF
:1044600082230E94450F66CF842B822BFACF242B08
:104470008091BA038227F5CF8695222311F0892FE8
:104480008170882309F456CF8C2F8295869587708A
:10449000880F880F4C2F4F70082E01C0440F0A94CC
:1044A000EAF72C2F2071C4FF07C02FE030E001C0D5
:1044B000220F8A95EAF720959695969593709230FB
:1044C00081F0822F842B933030F4809175069130E7
:1044D00029F0242B82230E94E30F2CCF842B822BE4
:1044E000FACF242B809175068227F5CFD92FDF7064
:1044F000222329F08D2F0E9401108C2F4DCF8C2F5D
:104500000E940C148D2F0E94F40F14CF8C2FF1EF0A
:10451000CF1789F1FC1750F040EFC417B9F02223F0
:10452000B1F13111ECCE892F8F7129C0E2EFCE1796
:1045300049F1F3EFCF13F3CF80E0222361F29F71B3
:1045400081E001C0880F9A95EAF7C5CF222379F060
:10455000353008F0EFCE292F2F7181E090E001C0B7
:10456000880F2A95EAF7909175068927B4CF3630DF
:1045700008F0E0CEF0CF892F8F71222321F20E9424
:104580000110D8CE892F8F712223C9F3BCCF3323DA
:1045900041F0893309F412CFEFE3FCE93197F1F7E9
:1045A00014CF892F8F71AFCF4FEFE0CE809175067A
:1045B0000E94870F813009F4D8CE882349F08230D9
:1045C00009F0CAC040E069ED8FEF0E947517C4C0C2
:1045D0004FEF60E080E0F9CF80342EE7920709F4D6
:1045E000BBC040F58C37910509F466CD68F48A3775
:1045F000910509F483CD08F074CD8C32910509F052
:10460000ACCD1092B103A9CD803E910509F4A3CDA4
:10461000843E910509F49FCD8D37910509F09DCD1C
:1046200081E00E946D0CCC2309F457CD0E94171431
:1046300089E14ACD8434EEE79E0709F48DC058F431
:1046400082342EE7920709F42BCD08F480C083E072
:104650000E94F40F81C08634EEE79E0709F47CC007
:1046600008F47AC087342EE7920709F475C08834BD
:104670004EE7940709F470C070CD8034EEE79E07D2
:1046800009F404CD00F58C37910509F415CD70F4CB
:104690008A37910509F432CD08F023CD8C3291058B
:1046A00009F4E6CCCC2309F458CD48CD803E9105E1
:1046B00009F43FCD843E910509F43BCD8D3791053A
:1046C00009F4AECFEFCF84342EE7920709F4EACC99
:1046D00068F48234EEE79E0709F4DCCCA8F1CC2321
:1046E00009F4B5CF83E00E94011036C086342EE76E
:1046F000920709F413CD08F4DACC8734EEE79E076D
:1047000009F411CD8834FEE79F0761F684ED90E04F
:10471000CC2311F105CD803E910509F40ACD843EEC
:10472000910509F406CD8D37910509F479CF06CDB1
:104730008434EEE79E0709F4B5CC98F482342EE772
:10474000920709F4A7CC58F681E0C111A6CC81E00C
:104750000E94F40F0E94E80FCDB7DEB7E7E00C949B
:10476000CE308634EEE79E0709F4D5CC08F49FCC12
:1047700087342EE7920709F4D6CC88344EE79407A5
:1047800029F2DCCCCF93DF9380919C02807F09F0EB
:104790004DC080919B02882309F448C0E0917406C3
:1047A00050913B06C0919702D09196026091980279
:1047B0007091990247E05E17C9F18E2F90E0E49F57
:1047C000F0011124E45CF94F2481222391F1489FE8
:1047D000F001499FF00D1124DF01A45CB94F11963F
:1047E0002C9111972C1325C02C912D1322C01596B6
:1047F0002C91159721111DC012962D913C91261BCD
:10480000370B283C3105A8F480919C028F708061A1
:1048100080939C02EE5BF94F80818F708061808372
:1048200086E992E00E94EB1F0E94940EDF91CF91E7
:104830000895FC013196E770BECFA4E1B0E0E3E259
:10484000F4E20C94AD308C0186E0F801DE011F9695
:1048500001900D928A95E1F7F8018481E58096E94F
:10486000A92E92E0B92E90919A02911128C0882326
:1048700019F1EE20F1F0C8010E94640FF82E882390
:10488000C1F087E0F801D50101900D928A95E1F71A
:1048900080919A02813031F4809196029091970232
:1048A0000E94CD0E0E94C2238F2D6496ECE00C94E2
:1048B000C930C8010E94EB1FFF24F394F5CFD080CC
:1048C000C18082809380F0909B0220919802309169
:1048D0009902A401421B530BFF2009F4D9C0483CA4
:1048E000510508F092C08823F9F2909197028091C7
:1048F0009C02282F207F09F056C0C91214C0909145
:104900009602D91210C0E11048C08F708061809368
:104910009C0286E992E00E94EB1F80919C02F801C4
:104920008683F12CC1CFE11038C06C2D8D2D0E94F3
:1049300068086C2D8D2D0E946808E82E8111F1CF3A
:10494000DF86C88A8F8598890E94CD0E292F2295EF
:104950002F70243058F49F70223088F0992399F0FA
:10496000F8019681907F79F4FE2C9ECF2A5F2F70FC
:10497000223068F0C8010E94EB1FEF2CF5CF99237D
:1049800011F0882389F3805E883070F3F3CF803F85
:1049900058F3815F833070F7E7CF80919C0281608C
:1049A00080939C02BECFC91207C090919602D91283
:1049B00003C0EE2009F48DC0C8010E94640F882353
:1049C00009F477CFEE2009F474CF80919C028032F5
:1049D00088F02091960230919702398728879B862C
:1049E0008A8690919A029C871D868E87CE010896B2
:1049F0000E94EB1F87E0F801A6E9B2E001900D925A
:104A00008A95E1F70E94C22357CF90919C02292FEB
:104A1000207F51F486E992E00E94EB1F87E0F501C8
:104A200011928A95E9F77DCF882309F43DCF8091D3
:104A300097028C1110C080919602D8120CC0E11020
:104A40000AC09683C8010E94EB1F87E0F50111920E
:104A50008A95E9F729CFC8010E94640F882309F4D9
:104A600028CFEE2009F425CF80919C02803210F2ED
:104A700020919602309197023A8329839C828B82FF
:104A800090919A029D831E828F83CE010196B0CFB2
:104A9000483C5105D0F6882309F40ECFFE2CEE20B9
:104AA00009F407CF809197028C1120C08091960263
:104AB000D8121CC080919C0280FD0FC0982F907F5F
:104AC00061F08683903F31F0982F907F905F8F70D8
:104AD000892B8683C8010E94EB1F87E0F801A6E9B5
:104AE000B2E001900D928A95E1F7DECEC8010E94F6
:104AF000640F81117FCF80919C02816080939C0222
:104B0000C8010E94EB1FD0CEABE1B0E0EAE8F5E2CD
:104B10000C94B6304E8B5F8B688F798F8A8F9B8F0A
:104B200091111092BD021D8A86E0FE017696DE018B
:104B30001F9601900D928A95E1F78B89882351F099
:104B400061E0CE010F960E94980F61E0CE010F96B2
:104B50000E94980F87E0FE013F96DE0118960190B3
:104B60000D928A95E1F7CE0108960E941D248111CD
:104B70000CC087E0FE013896DE01119601900D927F
:104B80008A95E1F78C8581110BC017E0809174063E
:104B900090913B06891333C06B96E3E00C94D230BE
:104BA00020913B0630E0C90101968770992740911A
:104BB00074064817190699F097E0929FD001939FC9
:104BC000B00D1124A45CB94FFE01319601900D92F5
:104BD0009A95E1F780933B060E94940ED6CF1092EF
:104BE00026060E94161110923B061092740687E06A
:104BF000E6E9F2E0DF011D928A95E9F7C6CF819FD1
:104C0000C0011124845C994F0E941D24882321F245
:104C10008091740690E001968770992780937406BE
:104C2000B5CFA6E1B0E0E7E1F6E20C94AC308E013E
:104C3000035F1F4F8AE0F80111928A95E9F78AE233
:104C4000C82E82E0D82EF12CE12CAA24A394B12CFA
:104C500025E3822E22E0922EF60181916F018F3F93
:104C600009F442C0F894E82FE295EF70F0E021A13A
:104C70008F70A50102C0440F551F8A95E2F7CA0143
:104C8000922F982B91A392A18095892382A3789447
:104C900000C0EFE2F2E0712C31E021912F3F09F4E6
:104CA000B7C0A22FA295AF70B0E090968C9190E023
:104CB0002F7002C0959587952A95E2F780FDA8C0D0
:104CC000832F782A330F8E169F0639F7F601319716
:104CD00080818F3F11F00E943C0C50EA5A95F1F709
:104CE000F801EE0DFF1D70828FEFE81AF80A95E0CB
:104CF000E916F10409F0B0CF4AE050E0B80184E2CF
:104D000093E00E94B331009741F02AE0F801A4E259
:104D1000B3E001900D922A95E1F700912F0310E086
:104D20000E5C1C4F892B09F475C081E08093CA0288
:104D30000E94101D9093C9028093C802D12CC0908C
:104D40001506FE0131967F01CC2009F4BDC085E037
:104D500011928A95E9F780911F038A3008F080C08C
:104D60004DE25BE1B701C8010E949010882309F46D
:104D70009AC041E45AE1B701C8010E94901088230B
:104D800009F491C040EE5AE1B701C8010E949010A9
:104D9000882309F488C047E259E1B701C8010E949D
:104DA0009010882309F47FC048E15AE1B701C80197
:104DB0000E949010882309F476C04BEF59E1B701A7
:104DC000C8010E949010882309F46DC04AEC59E193
:104DD000B701C8010E949010882309F464C01092A2
:104DE0001F0380912E0390E045E050E0B7018E5CF8
:104DF0009C4F0E94B33121E02093D102892B09F00E
:104E000046C0C12C8C2D8D296696EDE00C94C830DF
:104E100080E057CFD090CA02DD2009F48FCFE09018
:104E2000C802F090C9020E94101D8E199F090597B3
:104E300008F484CF45E050E064E273E0C8010E94CA
:104E4000B331892B59F085E0E4E2F3E0D801019019
:104E50000D928A95E1F71092CA0271CFD12CFBCF47
:104E6000A090CB02B090CC020E94101D8A199B0921
:104E7000843F914008F074CF8091D102882309F2D9
:104E800085E0F70111928A95E9F71092D102A0917D
:104E90002E03B0E0AE5CBC4F85E0F70101900D92AF
:104EA0008A95E1F7AFCF80911F038F3F31F08F5F7D
:104EB00080931F038A3008F494CF0E94101D9093B2
:104EC000CC028093CB02D8CFA0902E03B12CA501A9
:104ED0004E5C5C4F5A0185E0F801A5EEB2E001900E
:104EE0000D928A95E1F765E070E085EE92E00E9410
:104EF000950A8093E40285E0EAEEF2E0D5010190A4
:104F00000D928A95E1F788E0E9EEF5E0A0EFB2E0D6
:104F100001900D928A95E1F768E070E080EF92E0F1
:104F20000E94950A8093EF028090F8029090F90217
:104F3000A090FA02B090FB028091CD029091CE0237
:104F4000A091CF02B091D00288169906AA06BB069E
:104F5000B1F08092CD029092CE02A092CF02B09298
:104F6000D0020E94F409861A970AA80AB90A809208
:104F7000200390922103A0922203B09223038091F8
:104F8000FC02809375068091FD028093BA038091A4
:104F9000FE02809317068CE0EFEFF2E0D70101905C
:104FA0000D928A95E1F78091FF0286958695F090A3
:104FB0000003E0900103B0900203009108031091F8
:104FC000090390910A0310920903112309F41ACFDF
:104FD00014FD90939C0310FF0BC0998190FF1CC09F
:104FE00090919D03916090939D0360E00E948A1FC1
:104FF00011FF06C020E04B2D6E2D8F2D0E945318FF
:1050000012FF04C0002359F00E946E1F13FFFACE56
:1050100081E080939603F6CE0E94BB17E9CF0E94F1
:10502000730BF4CFA6E0B0E0E8E1F8E20C94B53001
:105030000E94101D8C018091C6029091C7028017BA
:10504000910781F019821A820E94101D682F4981F0
:105050005A81792F80E090E00E9484251093C70246
:105060000093C6022696E4E00C94D1301F921FB63E
:105070001F9211248F939F93AF93BF93809120062B
:10508000811113C08091210690912206A0912306E0
:10509000B09124064196A11DB11D809321069093E5
:1050A0002206A0932306B0932406BF91AF919F914F
:1050B0008F911F901FBE1F901895CF93DF93EC0127
:1050C0000E94101D8C1B9D0BDF91CF91089500D085
:1050D00000D000D00F92CDB7DEB785B7806885BF0E
:1050E00085B7806885BF84B7877F84BF0FB6F89483
:1050F000A8958091600088618093600010926000A4
:105100000FBE80E890E00FB6F89480936100909312
:1051100061000FBE81E08093790186E39CE090936B
:105120005502809354020E9487080E9428098091AA
:10513000E20084608093E2007894809131068823B5
:10514000A1F01091E9001F709091EC00892F8170FF
:1051500090FD80E8182B1092E9008091E80083FD13
:105160000E9436111F701093E90082E084BD93E025
:1051700095BD9AEF97BD80936E0010922003109218
:105180002103109222031092230388EC90E01091E7
:10519000E300111F1127111F61F4AFE3BCE9119760
:1051A000F1F700C00000019791F70E948708109264
:1051B00031061093150690E080E00E94D731853EBD
:1051C0009E4F11F00E94591B8EE090E00E94C93161
:1051D00091E0811101C090E09093160690935801E0
:1051E0008823D1F11092660186E080936701809157
:1051F000150681110E94312FE9EEF5E088E0DF010C
:105200001D928A95E9F78091580191E08927809352
:1052100089038091580190938C038091580180916B
:105220005801811106C084EF8093740185EF80934B
:10523000750182E08093650160E080E00E94D40AFD
:1052400061E080E00E94D40A8FE891E00197F1F7D5
:1052500000C0000010E015C086E080936601C5CF55
:1052600060E0812F0E94B80A082F61E0812F0E9420
:10527000B80AE12FF0E0E657FC4F880F802B8083BF
:105280001F5F80918C03181758F38091580180910B
:10529000580195E0811190E090932F0385E0891BE0
:1052A00080932E030AE212E0EFE2EE2EE2E0FE2E01
:1052B000F80181918F018F3F11F00E943C0CE016A4
:1052C000F106B1F70FE212E075E3E72E72E0F72E78
:1052D000D8018D918D018F3F11F00E943C0CE0169A
:1052E000F106B1F78AE0E2E3F3E0DF01282F1D9237
:1052F0002A95E9F7E4E2F3E0DF011D928A95E9F7E8
:1053000080919D03816080939D0361E086958695E1
:105310000E948A1F4FEF60E080E00E94751790E0C6
:1053200080E00E94D731853E9E4F11F00E94591BAC
:1053300082E090E00E94C93180933C0384E090E0D9
:105340000E94D73190931F0680931E060E9411265B
:10535000EFEFF6E721E0E150F0402040E1F700C038
:1053600000000E9411268091320380FF08C06FEF79
:105370007FEF90E080E00E940B320E94E30983E01F
:1053800090E00E94C9310E94450F809175060E94ED
:10539000C30F83E08093DD0580E28093A5030E9424
:1053A000CF2D6BE070E085EE93E00E94CA17882352
:1053B000E9F18091DD0565E070E081FD2FC180EEAF
:1053C00093E00E94CA17882389F16DE070E08EECAB
:1053D00093E00E94CA17882349F10E94F409605A99
:1053E00075418F4F9F4F6093E1057093E205809365
:1053F000E3059093E405EDEDF3E080E092E0DF015A
:105400009C011D9221503040E1F7F093AD03E093F1
:10541000AC038FEF9FEF9093E0058093DF0581E071
:105420008093E8058093E5051092DE0580913003B6
:10543000811186C088E090E00E94D1314B015C016F
:1054400083E290E00E94C931282F30E040E050E034
:1054500060E070E080E090E000E20E94583128298E
:1054600039294A295B2920939D0330939E03409359
:105470009F035093A0036093A1037093A2038093B2
:10548000A3039093A40330919B03336030939B0359
:105490002C7F09F043C025E020939D0310929E03CA
:1054A0002FEF20939F0320EA2093A0031092A103E3
:1054B00025E030E04FEF50EA60E00E942D1888E0D0
:1054C00090E00E94D1316B017C0183E290E00E9468
:1054D000C931282F30E040E050E060E070E080E02B
:1054E00090E00E945831B22FA32FF42FE52F5B01DB
:1054F00097018601BC29A12BFE29E32BB0939D03C4
:10550000A0939E03F0939F03E093A0036093A103F5
:10551000B092A2038093A3039093A4030E94960BDE
:105520000E94730B0E94B60A80919D0380FF05C004
:1055300060E0869586950E948A1F81E08093300303
:1055400080911506811102C00E94342F80EF93E0F4
:10555000909392038093910389E591E090931B06C9
:1055600080931A0654E6852E912CA12CB12C69E16A
:10557000262E312C8091310610E402E1853009F4A9
:1055800096C00E9411260DE313E042E3E42E43E0AF
:10559000F42ED701F80191918D9123E0E734F207C1
:1055A00009F4AAC09817B9F340901506D12CD70179
:1055B000CD907D01F80151908F015C1431F15C2494
:1055C000712C66246394862D8521B9F04420A9F0BE
:1055D0007982DA820E94101D9C838B83F1E0FD8327
:1055E00091E0862D8C2109F490E09E8349815A81B7
:1055F0006B817C818D810E9484257394660C26E0EA
:105600007212E1CFF8013197C082D3943AE0D312FD
:10561000CECF0E94530C41E04F8373C08BED93E0DB
:10562000D0CE80913106843009F435C00E94730BCE
:105630008091900381110AC031E0309390038091F2
:105640009D038170809331030E94BB170E94D7177E
:105650001092200648E150E00FB6F894A8954093C8
:1056600060000FBE1093600083B7817F846083BFAA
:1056700083B7816083BF7894889583B78E7F83BF1B
:105680000FB6F894A89580916000886180936000BF
:10569000109260000FBE0E941126E2E3F3E08191B8
:1056A00081110DC28CE393E08E179F07C1F78091A3
:1056B0003106853009F4B5CF109226060E941611E6
:1056C0000E94780A1092900380913103882369F038
:1056D00080919D03816080939D0360E0869586950F
:1056E0000E948A1F0E946E1F4CCF80919C038823CA
:1056F000C9F30E94F116F6CF981356CF0E941228D4
:105700001F8280911506882309F4B9C04090520386
:1057100050905303052C000C660877081091630124
:10572000212F30E0E2E5F3E081E090E032962817A7
:1057300039070CF03BC1C0904E03D0904F03E0906E
:105740005003F09051030E94F4099B01AC012C1905
:105750003D094E095F0969017A0139ECC316D1048C
:10576000E104F1040CF180914D0390E00196B10148
:105770000E94EA3080934D03880F991FFC01EE5A76
:10578000FC4F11821082812F183108F087E18F5F62
:10579000809363010E94F40960934E0370934F035A
:1057A000809350039093510342E0441651046104E6
:1057B00071040CF407C1A0E6BAEEA30192010E94A5
:1057C00045312B013C0158EC159F90011124032E0B
:1057D000000C440B550B2C0D3D1D4E1D5F1DA5E00F
:1057E000B0E00E9445319B01AC01C301B2010E94AF
:1057F000FE3069017A0181EFC816D104E104F10499
:105800002CF020EFC22ED12CE12CF12C409049033A
:1058100050904A0360904B0370904C030E94F4092F
:105820009B01AC01241935094609570929013A01A0
:1058300035E6431651046104710484F00E94F409B2
:105840006093490370934A0380934B0390934C03F6
:105850008091AE0380934803C092470310914803A0
:10586000A0914703A11BBB0BA30192010E945031E1
:10587000A50194010E942031120F1093AE03809174
:105880009A03882309F465C080919903E0919D03F0
:10589000E695E695E81BE0939503823009F096C003
:1058A000F0E0E650FC4FE4910E2F10E09AE9E92E6B
:1058B00097E1F92E80919603882361F01092960368
:1058C0000E94631F90939403809393031092980314
:1058D000109297030E94631FE0919303F091940349
:1058E0009C012E1B3F0B2F3F3F4798F520918603CD
:1058F0002223B1F010928603209184033091850316
:10590000821B930B8F3F9F4758F4205D3A4830939A
:1059100085032093840380919B03886080939B037D
:10592000C0909703D09098030E0F1F1F10939403FD
:105930000093930383E993E0F7010995809197031E
:1059400090919803892B29F4CD2819F0F1E0F09378
:10595000860380918F03882391F010928F038091AA
:105960009A03811107C080919D0360E0869586951A
:105970000E948A1F80919D0380FF0E94F116609013
:105980001506662019F00E94C315682E80918D03BC
:10599000882351F010928D038091EB058093EC05E4
:1059A0008091E9058093EA05712C63C040815181A3
:1059B000052E000C660B770B440E551E661E771ED7
:1059C0000196B4CEC12CD12C760120CF00ED17E08A
:1059D00081EEE82E89E0F82E6DCF61E0872D0E94E0
:1059E000B80A182F60E0872D0E94B80AE12FEE0F49
:1059F000E82B272D30E0D901A657BC4F9C91892F69
:105A00008370E817A9F1990F990FE92BEC93509047
:105A10008903570CA52DB0E0AC59BE4FCC90EF7068
:105A2000F0E0EB5CFD4FA90149575C4F7A01008122
:105A3000DA018C91080F0C93002E000C110BD12C65
:105A40000C151D0524F060E0852D0E94F70A8827BB
:105A500099278C199D098017910724F061E0852D05
:105A60000E94F70AC801B6010E94EA30F70180835C
:105A7000739480918C03781608F4AFCF809115064B
:105A8000882319F00E94C315682A662039F00E9405
:105A9000530C0E941C1D0E94F21705C00E941C1D81
:105AA000FF81F111F8CF0E94780A90918E03891737
:105AB00009F460CD80938E030E94F4095BCD809140
:105AC0003006882309F4F3CD90E199BD09BD09B4EE
:105AD00000FEFDCF8091D8008F7D8093D80080910B
